{
  "contractName": "MockDemonzv1",
  "abi": [
    {
      "inputs": [],
      "stateMutability": "nonpayable",
      "type": "constructor"
    },
    {
      "anonymous": false,
      "inputs": [
        {
          "indexed": true,
          "internalType": "address",
          "name": "owner",
          "type": "address"
        },
        {
          "indexed": true,
          "internalType": "address",
          "name": "approved",
          "type": "address"
        },
        {
          "indexed": true,
          "internalType": "uint256",
          "name": "tokenId",
          "type": "uint256"
        }
      ],
      "name": "Approval",
      "type": "event"
    },
    {
      "anonymous": false,
      "inputs": [
        {
          "indexed": true,
          "internalType": "address",
          "name": "owner",
          "type": "address"
        },
        {
          "indexed": true,
          "internalType": "address",
          "name": "operator",
          "type": "address"
        },
        {
          "indexed": false,
          "internalType": "bool",
          "name": "approved",
          "type": "bool"
        }
      ],
      "name": "ApprovalForAll",
      "type": "event"
    },
    {
      "anonymous": false,
      "inputs": [
        {
          "indexed": true,
          "internalType": "address",
          "name": "from",
          "type": "address"
        },
        {
          "indexed": true,
          "internalType": "address",
          "name": "to",
          "type": "address"
        },
        {
          "indexed": true,
          "internalType": "uint256",
          "name": "tokenId",
          "type": "uint256"
        }
      ],
      "name": "Transfer",
      "type": "event"
    },
    {
      "inputs": [
        {
          "internalType": "address",
          "name": "to",
          "type": "address"
        },
        {
          "internalType": "uint256",
          "name": "tokenId",
          "type": "uint256"
        }
      ],
      "name": "approve",
      "outputs": [],
      "stateMutability": "nonpayable",
      "type": "function"
    },
    {
      "inputs": [
        {
          "internalType": "address",
          "name": "owner",
          "type": "address"
        }
      ],
      "name": "balanceOf",
      "outputs": [
        {
          "internalType": "uint256",
          "name": "",
          "type": "uint256"
        }
      ],
      "stateMutability": "view",
      "type": "function",
      "constant": true
    },
    {
      "inputs": [
        {
          "internalType": "uint256",
          "name": "tokenId",
          "type": "uint256"
        }
      ],
      "name": "getApproved",
      "outputs": [
        {
          "internalType": "address",
          "name": "",
          "type": "address"
        }
      ],
      "stateMutability": "view",
      "type": "function",
      "constant": true
    },
    {
      "inputs": [
        {
          "internalType": "address",
          "name": "owner",
          "type": "address"
        },
        {
          "internalType": "address",
          "name": "operator",
          "type": "address"
        }
      ],
      "name": "isApprovedForAll",
      "outputs": [
        {
          "internalType": "bool",
          "name": "",
          "type": "bool"
        }
      ],
      "stateMutability": "view",
      "type": "function",
      "constant": true
    },
    {
      "inputs": [],
      "name": "name",
      "outputs": [
        {
          "internalType": "string",
          "name": "",
          "type": "string"
        }
      ],
      "stateMutability": "view",
      "type": "function",
      "constant": true
    },
    {
      "inputs": [
        {
          "internalType": "uint256",
          "name": "tokenId",
          "type": "uint256"
        }
      ],
      "name": "ownerOf",
      "outputs": [
        {
          "internalType": "address",
          "name": "",
          "type": "address"
        }
      ],
      "stateMutability": "view",
      "type": "function",
      "constant": true
    },
    {
      "inputs": [
        {
          "internalType": "address",
          "name": "from",
          "type": "address"
        },
        {
          "internalType": "address",
          "name": "to",
          "type": "address"
        },
        {
          "internalType": "uint256",
          "name": "tokenId",
          "type": "uint256"
        }
      ],
      "name": "safeTransferFrom",
      "outputs": [],
      "stateMutability": "nonpayable",
      "type": "function"
    },
    {
      "inputs": [
        {
          "internalType": "address",
          "name": "from",
          "type": "address"
        },
        {
          "internalType": "address",
          "name": "to",
          "type": "address"
        },
        {
          "internalType": "uint256",
          "name": "tokenId",
          "type": "uint256"
        },
        {
          "internalType": "bytes",
          "name": "_data",
          "type": "bytes"
        }
      ],
      "name": "safeTransferFrom",
      "outputs": [],
      "stateMutability": "nonpayable",
      "type": "function"
    },
    {
      "inputs": [
        {
          "internalType": "address",
          "name": "operator",
          "type": "address"
        },
        {
          "internalType": "bool",
          "name": "approved",
          "type": "bool"
        }
      ],
      "name": "setApprovalForAll",
      "outputs": [],
      "stateMutability": "nonpayable",
      "type": "function"
    },
    {
      "inputs": [
        {
          "internalType": "bytes4",
          "name": "interfaceId",
          "type": "bytes4"
        }
      ],
      "name": "supportsInterface",
      "outputs": [
        {
          "internalType": "bool",
          "name": "",
          "type": "bool"
        }
      ],
      "stateMutability": "view",
      "type": "function",
      "constant": true
    },
    {
      "inputs": [],
      "name": "symbol",
      "outputs": [
        {
          "internalType": "string",
          "name": "",
          "type": "string"
        }
      ],
      "stateMutability": "view",
      "type": "function",
      "constant": true
    },
    {
      "inputs": [
        {
          "internalType": "uint256",
          "name": "index",
          "type": "uint256"
        }
      ],
      "name": "tokenByIndex",
      "outputs": [
        {
          "internalType": "uint256",
          "name": "",
          "type": "uint256"
        }
      ],
      "stateMutability": "view",
      "type": "function",
      "constant": true
    },
    {
      "inputs": [
        {
          "internalType": "address",
          "name": "owner",
          "type": "address"
        },
        {
          "internalType": "uint256",
          "name": "index",
          "type": "uint256"
        }
      ],
      "name": "tokenOfOwnerByIndex",
      "outputs": [
        {
          "internalType": "uint256",
          "name": "",
          "type": "uint256"
        }
      ],
      "stateMutability": "view",
      "type": "function",
      "constant": true
    },
    {
      "inputs": [
        {
          "internalType": "uint256",
          "name": "tokenId",
          "type": "uint256"
        }
      ],
      "name": "tokenURI",
      "outputs": [
        {
          "internalType": "string",
          "name": "",
          "type": "string"
        }
      ],
      "stateMutability": "view",
      "type": "function",
      "constant": true
    },
    {
      "inputs": [],
      "name": "totalSupply",
      "outputs": [
        {
          "internalType": "uint256",
          "name": "",
          "type": "uint256"
        }
      ],
      "stateMutability": "view",
      "type": "function",
      "constant": true
    },
    {
      "inputs": [
        {
          "internalType": "address",
          "name": "from",
          "type": "address"
        },
        {
          "internalType": "address",
          "name": "to",
          "type": "address"
        },
        {
          "internalType": "uint256",
          "name": "tokenId",
          "type": "uint256"
        }
      ],
      "name": "transferFrom",
      "outputs": [],
      "stateMutability": "nonpayable",
      "type": "function"
    },
    {
      "inputs": [
        {
          "internalType": "uint256",
          "name": "_amount",
          "type": "uint256"
        }
      ],
      "name": "mintToken",
      "outputs": [],
      "stateMutability": "payable",
      "type": "function",
      "payable": true
    },
    {
      "inputs": [
        {
          "internalType": "uint256",
          "name": "_token_id",
          "type": "uint256"
        }
      ],
      "name": "burnToken",
      "outputs": [],
      "stateMutability": "nonpayable",
      "type": "function"
    }
  ],
  "bytecode": "0x60806040523480156200001157600080fd5b506040518060400160405280600e81526020017f43727970746f44656d6f6e7a56310000000000000000000000000000000000008152506040518060400160405280600881526020017f44454d4f4e5a7631000000000000000000000000000000000000000000000000815250816000908051906020019062000096929190620000b8565b508060019080519060200190620000af929190620000b8565b505050620001cd565b828054620000c69062000168565b90600052602060002090601f016020900481019282620000ea576000855562000136565b82601f106200010557805160ff191683800117855562000136565b8280016001018555821562000136579182015b828111156200013557825182559160200191906001019062000118565b5b50905062000145919062000149565b5090565b5b80821115620001645760008160009055506001016200014a565b5090565b600060028204905060018216806200018157607f821691505b602082108114156200019857620001976200019e565b5b50919050565b7f4e487b7100000000000000000000000000000000000000000000000000000000600052602260045260246000fd5b6131f280620001dd6000396000f3fe6080604052600436106101095760003560e01c80636352211e11610095578063a22cb46511610064578063a22cb465146103a1578063b88d4fde146103ca578063c634d032146103f3578063c87b56dd1461040f578063e985e9c51461044c57610109565b80636352211e146102d357806370a08231146103105780637b47ec1a1461034d57806395d89b411461037657610109565b806318160ddd116100dc57806318160ddd146101dc57806323b872dd146102075780632f745c591461023057806342842e0e1461026d5780634f6ccce71461029657610109565b806301ffc9a71461010e57806306fdde031461014b578063081812fc14610176578063095ea7b3146101b3575b600080fd5b34801561011a57600080fd5b50610135600480360381019061013091906121e6565b610489565b604051610142919061261b565b60405180910390f35b34801561015757600080fd5b50610160610503565b60405161016d9190612636565b60405180910390f35b34801561018257600080fd5b5061019d60048036038101906101989190612240565b610595565b6040516101aa91906125b4565b60405180910390f35b3480156101bf57600080fd5b506101da60048036038101906101d591906121a6565b61061a565b005b3480156101e857600080fd5b506101f1610732565b6040516101fe9190612878565b60405180910390f35b34801561021357600080fd5b5061022e60048036038101906102299190612090565b61073f565b005b34801561023c57600080fd5b50610257600480360381019061025291906121a6565b61079f565b6040516102649190612878565b60405180910390f35b34801561027957600080fd5b50610294600480360381019061028f9190612090565b610844565b005b3480156102a257600080fd5b506102bd60048036038101906102b89190612240565b610864565b6040516102ca9190612878565b60405180910390f35b3480156102df57600080fd5b506102fa60048036038101906102f59190612240565b6108d5565b60405161030791906125b4565b60405180910390f35b34801561031c57600080fd5b5061033760048036038101906103329190612023565b610987565b6040516103449190612878565b60405180910390f35b34801561035957600080fd5b50610374600480360381019061036f9190612240565b610a3f565b005b34801561038257600080fd5b5061038b610ac1565b6040516103989190612636565b60405180910390f35b3480156103ad57600080fd5b506103c860048036038101906103c39190612166565b610b53565b005b3480156103d657600080fd5b506103f160048036038101906103ec91906120e3565b610cd4565b005b61040d60048036038101906104089190612240565b610d36565b005b34801561041b57600080fd5b5061043660048036038101906104319190612240565b610d67565b6040516104439190612636565b60405180910390f35b34801561045857600080fd5b50610473600480360381019061046e9190612050565b610e0e565b604051610480919061261b565b60405180910390f35b60007f780e9d63000000000000000000000000000000000000000000000000000000007bffffffffffffffffffffffffffffffffffffffffffffffffffffffff1916827bffffffffffffffffffffffffffffffffffffffffffffffffffffffff191614806104fc57506104fb82610ea2565b5b9050919050565b60606000805461051290612a9d565b80601f016020809104026020016040519081016040528092919081815260200182805461053e90612a9d565b801561058b5780601f106105605761010080835404028352916020019161058b565b820191906000526020600020905b81548152906001019060200180831161056e57829003601f168201915b5050505050905090565b60006105a082610f84565b6105df576040517f08c379a00000000000000000000000000000000000000000000000000000000081526004016105d690612798565b60405180910390fd5b6004600083815260200190815260200160002060009054906101000a900473ffffffffffffffffffffffffffffffffffffffff169050919050565b6000610625826108d5565b90508073ffffffffffffffffffffffffffffffffffffffff168373ffffffffffffffffffffffffffffffffffffffff161415610696576040517f08c379a000000000000000000000000000000000000000000000000000000000815260040161068d906127f8565b60405180910390fd5b8073ffffffffffffffffffffffffffffffffffffffff166106b5610ff0565b73ffffffffffffffffffffffffffffffffffffffff1614806106e457506106e3816106de610ff0565b610e0e565b5b610723576040517f08c379a000000000000000000000000000000000000000000000000000000000815260040161071a90612718565b60405180910390fd5b61072d8383610ff8565b505050565b6000600880549050905090565b61075061074a610ff0565b826110b1565b61078f576040517f08c379a000000000000000000000000000000000000000000000000000000000815260040161078690612838565b60405180910390fd5b61079a83838361118f565b505050565b60006107aa83610987565b82106107eb576040517f08c379a00000000000000000000000000000000000000000000000000000000081526004016107e290612658565b60405180910390fd5b600660008473ffffffffffffffffffffffffffffffffffffffff1673ffffffffffffffffffffffffffffffffffffffff168152602001908152602001600020600083815260200190815260200160002054905092915050565b61085f83838360405180602001604052806000815250610cd4565b505050565b600061086e610732565b82106108af576040517f08c379a00000000000000000000000000000000000000000000000000000000081526004016108a690612858565b60405180910390fd5b600882815481106108c3576108c2612c36565b5b90600052602060002001549050919050565b6000806002600084815260200190815260200160002060009054906101000a900473ffffffffffffffffffffffffffffffffffffffff169050600073ffffffffffffffffffffffffffffffffffffffff168173ffffffffffffffffffffffffffffffffffffffff16141561097e576040517f08c379a000000000000000000000000000000000000000000000000000000000815260040161097590612758565b60405180910390fd5b80915050919050565b60008073ffffffffffffffffffffffffffffffffffffffff168273ffffffffffffffffffffffffffffffffffffffff1614156109f8576040517f08c379a00000000000000000000000000000000000000000000000000000000081526004016109ef90612738565b60405180910390fd5b600360008373ffffffffffffffffffffffffffffffffffffffff1673ffffffffffffffffffffffffffffffffffffffff168152602001908152602001600020549050919050565b3373ffffffffffffffffffffffffffffffffffffffff16610a5f826108d5565b73ffffffffffffffffffffffffffffffffffffffff1614610ab5576040517f08c379a0000000000000000000000000000000000000000000000000000000008152600401610aac90612818565b60405180910390fd5b610abe816113eb565b50565b606060018054610ad090612a9d565b80601f0160208091040260200160405190810160405280929190818152602001828054610afc90612a9d565b8015610b495780601f10610b1e57610100808354040283529160200191610b49565b820191906000526020600020905b815481529060010190602001808311610b2c57829003601f168201915b5050505050905090565b610b5b610ff0565b73ffffffffffffffffffffffffffffffffffffffff168273ffffffffffffffffffffffffffffffffffffffff161415610bc9576040517f08c379a0000000000000000000000000000000000000000000000000000000008152600401610bc0906126d8565b60405180910390fd5b8060056000610bd6610ff0565b73ffffffffffffffffffffffffffffffffffffffff1673ffffffffffffffffffffffffffffffffffffffff16815260200190815260200160002060008473ffffffffffffffffffffffffffffffffffffffff1673ffffffffffffffffffffffffffffffffffffffff16815260200190815260200160002060006101000a81548160ff0219169083151502179055508173ffffffffffffffffffffffffffffffffffffffff16610c83610ff0565b73ffffffffffffffffffffffffffffffffffffffff167f17307eab39ab6107e8899845ad3d59bd9653f200f220920489ca2b5937696c3183604051610cc8919061261b565b60405180910390a35050565b610ce5610cdf610ff0565b836110b1565b610d24576040517f08c379a0000000000000000000000000000000000000000000000000000000008152600401610d1b90612838565b60405180910390fd5b610d30848484846114fc565b50505050565b60005b81811015610d6357610d5233610d4d610732565b611558565b80610d5c90612b00565b9050610d39565b5050565b6060610d7282610f84565b610db1576040517f08c379a0000000000000000000000000000000000000000000000000000000008152600401610da8906127d8565b60405180910390fd5b6000610dbb611576565b90506000815111610ddb5760405180602001604052806000815250610e06565b80610de58461158d565b604051602001610df6929190612590565b6040516020818303038152906040525b915050919050565b6000600560008473ffffffffffffffffffffffffffffffffffffffff1673ffffffffffffffffffffffffffffffffffffffff16815260200190815260200160002060008373ffffffffffffffffffffffffffffffffffffffff1673ffffffffffffffffffffffffffffffffffffffff16815260200190815260200160002060009054906101000a900460ff16905092915050565b60007f80ac58cd000000000000000000000000000000000000000000000000000000007bffffffffffffffffffffffffffffffffffffffffffffffffffffffff1916827bffffffffffffffffffffffffffffffffffffffffffffffffffffffff19161480610f6d57507f5b5e139f000000000000000000000000000000000000000000000000000000007bffffffffffffffffffffffffffffffffffffffffffffffffffffffff1916827bffffffffffffffffffffffffffffffffffffffffffffffffffffffff1916145b80610f7d5750610f7c826116ee565b5b9050919050565b60008073ffffffffffffffffffffffffffffffffffffffff166002600084815260200190815260200160002060009054906101000a900473ffffffffffffffffffffffffffffffffffffffff1673ffffffffffffffffffffffffffffffffffffffff1614159050919050565b600033905090565b816004600083815260200190815260200160002060006101000a81548173ffffffffffffffffffffffffffffffffffffffff021916908373ffffffffffffffffffffffffffffffffffffffff160217905550808273ffffffffffffffffffffffffffffffffffffffff1661106b836108d5565b73ffffffffffffffffffffffffffffffffffffffff167f8c5be1e5ebec7d5bd14f71427d1e84f3dd0314c0f7b2291e5b200ac8c7c3b92560405160405180910390a45050565b60006110bc82610f84565b6110fb576040517f08c379a00000000000000000000000000000000000000000000000000000000081526004016110f2906126f8565b60405180910390fd5b6000611106836108d5565b90508073ffffffffffffffffffffffffffffffffffffffff168473ffffffffffffffffffffffffffffffffffffffff16148061117557508373ffffffffffffffffffffffffffffffffffffffff1661115d84610595565b73ffffffffffffffffffffffffffffffffffffffff16145b8061118657506111858185610e0e565b5b91505092915050565b8273ffffffffffffffffffffffffffffffffffffffff166111af826108d5565b73ffffffffffffffffffffffffffffffffffffffff1614611205576040517f08c379a00000000000000000000000000000000000000000000000000000000081526004016111fc906127b8565b60405180910390fd5b600073ffffffffffffffffffffffffffffffffffffffff168273ffffffffffffffffffffffffffffffffffffffff161415611275576040517f08c379a000000000000000000000000000000000000000000000000000000000815260040161126c906126b8565b60405180910390fd5b611280838383611758565b61128b600082610ff8565b6001600360008573ffffffffffffffffffffffffffffffffffffffff1673ffffffffffffffffffffffffffffffffffffffff16815260200190815260200160002060008282546112db91906129b3565b925050819055506001600360008473ffffffffffffffffffffffffffffffffffffffff1673ffffffffffffffffffffffffffffffffffffffff1681526020019081526020016000206000828254611332919061292c565b92505081905550816002600083815260200190815260200160002060006101000a81548173ffffffffffffffffffffffffffffffffffffffff021916908373ffffffffffffffffffffffffffffffffffffffff160217905550808273ffffffffffffffffffffffffffffffffffffffff168473ffffffffffffffffffffffffffffffffffffffff167fddf252ad1be2c89b69c2b068fc378daa952ba7f163c4a11628f55a4df523b3ef60405160405180910390a4505050565b60006113f6826108d5565b905061140481600084611758565b61140f600083610ff8565b6001600360008373ffffffffffffffffffffffffffffffffffffffff1673ffffffffffffffffffffffffffffffffffffffff168152602001908152602001600020600082825461145f91906129b3565b925050819055506002600083815260200190815260200160002060006101000a81549073ffffffffffffffffffffffffffffffffffffffff021916905581600073ffffffffffffffffffffffffffffffffffffffff168273ffffffffffffffffffffffffffffffffffffffff167fddf252ad1be2c89b69c2b068fc378daa952ba7f163c4a11628f55a4df523b3ef60405160405180910390a45050565b61150784848461118f565b6115138484848461186c565b611552576040517f08c379a000000000000000000000000000000000000000000000000000000000815260040161154990612678565b60405180910390fd5b50505050565b611572828260405180602001604052806000815250611a03565b5050565b606060405180602001604052806000815250905090565b606060008214156115d5576040518060400160405280600181526020017f300000000000000000000000000000000000000000000000000000000000000081525090506116e9565b600082905060005b600082146116075780806115f090612b00565b915050600a826116009190612982565b91506115dd565b60008167ffffffffffffffff81111561162357611622612c65565b5b6040519080825280601f01601f1916602001820160405280156116555781602001600182028036833780820191505090505b5090505b600085146116e25760018261166e91906129b3565b9150600a8561167d9190612b49565b6030611689919061292c565b60f81b81838151811061169f5761169e612c36565b5b60200101907effffffffffffffffffffffffffffffffffffffffffffffffffffffffffffff1916908160001a905350600a856116db9190612982565b9450611659565b8093505050505b919050565b60007f01ffc9a7000000000000000000000000000000000000000000000000000000007bffffffffffffffffffffffffffffffffffffffffffffffffffffffff1916827bffffffffffffffffffffffffffffffffffffffffffffffffffffffff1916149050919050565b611763838383611a5e565b600073ffffffffffffffffffffffffffffffffffffffff168373ffffffffffffffffffffffffffffffffffffffff1614156117a6576117a181611a63565b6117e5565b8173ffffffffffffffffffffffffffffffffffffffff168373ffffffffffffffffffffffffffffffffffffffff16146117e4576117e38382611aac565b5b5b600073ffffffffffffffffffffffffffffffffffffffff168273ffffffffffffffffffffffffffffffffffffffff1614156118285761182381611c19565b611867565b8273ffffffffffffffffffffffffffffffffffffffff168273ffffffffffffffffffffffffffffffffffffffff1614611866576118658282611cea565b5b5b505050565b600061188d8473ffffffffffffffffffffffffffffffffffffffff16611d69565b156119f6578373ffffffffffffffffffffffffffffffffffffffff1663150b7a026118b6610ff0565b8786866040518563ffffffff1660e01b81526004016118d894939291906125cf565b602060405180830381600087803b1580156118f257600080fd5b505af192505050801561192357506040513d601f19601f820116820180604052508101906119209190612213565b60015b6119a6573d8060008114611953576040519150601f19603f3d011682016040523d82523d6000602084013e611958565b606091505b5060008151141561199e576040517f08c379a000000000000000000000000000000000000000000000000000000000815260040161199590612678565b60405180910390fd5b805181602001fd5b63150b7a0260e01b7bffffffffffffffffffffffffffffffffffffffffffffffffffffffff1916817bffffffffffffffffffffffffffffffffffffffffffffffffffffffff1916149150506119fb565b600190505b949350505050565b611a0d8383611d7c565b611a1a600084848461186c565b611a59576040517f08c379a0000000000000000000000000000000000000000000000000000000008152600401611a5090612678565b60405180910390fd5b505050565b505050565b6008805490506009600083815260200190815260200160002081905550600881908060018154018082558091505060019003906000526020600020016000909190919091505550565b60006001611ab984610987565b611ac391906129b3565b9050600060076000848152602001908152602001600020549050818114611ba8576000600660008673ffffffffffffffffffffffffffffffffffffffff1673ffffffffffffffffffffffffffffffffffffffff168152602001908152602001600020600084815260200190815260200160002054905080600660008773ffffffffffffffffffffffffffffffffffffffff1673ffffffffffffffffffffffffffffffffffffffff168152602001908152602001600020600084815260200190815260200160002081905550816007600083815260200190815260200160002081905550505b6007600084815260200190815260200160002060009055600660008573ffffffffffffffffffffffffffffffffffffffff1673ffffffffffffffffffffffffffffffffffffffff16815260200190815260200160002060008381526020019081526020016000206000905550505050565b60006001600880549050611c2d91906129b3565b9050600060096000848152602001908152602001600020549050600060088381548110611c5d57611c5c612c36565b5b906000526020600020015490508060088381548110611c7f57611c7e612c36565b5b906000526020600020018190555081600960008381526020019081526020016000208190555060096000858152602001908152602001600020600090556008805480611cce57611ccd612c07565b5b6001900381819060005260206000200160009055905550505050565b6000611cf583610987565b905081600660008573ffffffffffffffffffffffffffffffffffffffff1673ffffffffffffffffffffffffffffffffffffffff168152602001908152602001600020600083815260200190815260200160002081905550806007600084815260200190815260200160002081905550505050565b600080823b905060008111915050919050565b600073ffffffffffffffffffffffffffffffffffffffff168273ffffffffffffffffffffffffffffffffffffffff161415611dec576040517f08c379a0000000000000000000000000000000000000000000000000000000008152600401611de390612778565b60405180910390fd5b611df581610f84565b15611e35576040517f08c379a0000000000000000000000000000000000000000000000000000000008152600401611e2c90612698565b60405180910390fd5b611e4160008383611758565b6001600360008473ffffffffffffffffffffffffffffffffffffffff1673ffffffffffffffffffffffffffffffffffffffff1681526020019081526020016000206000828254611e91919061292c565b92505081905550816002600083815260200190815260200160002060006101000a81548173ffffffffffffffffffffffffffffffffffffffff021916908373ffffffffffffffffffffffffffffffffffffffff160217905550808273ffffffffffffffffffffffffffffffffffffffff16600073ffffffffffffffffffffffffffffffffffffffff167fddf252ad1be2c89b69c2b068fc378daa952ba7f163c4a11628f55a4df523b3ef60405160405180910390a45050565b6000611f5d611f58846128b8565b612893565b905082815260208101848484011115611f7957611f78612c99565b5b611f84848285612a5b565b509392505050565b600081359050611f9b81613160565b92915050565b600081359050611fb081613177565b92915050565b600081359050611fc58161318e565b92915050565b600081519050611fda8161318e565b92915050565b600082601f830112611ff557611ff4612c94565b5b8135612005848260208601611f4a565b91505092915050565b60008135905061201d816131a5565b92915050565b60006020828403121561203957612038612ca3565b5b600061204784828501611f8c565b91505092915050565b6000806040838503121561206757612066612ca3565b5b600061207585828601611f8c565b925050602061208685828601611f8c565b9150509250929050565b6000806000606084860312156120a9576120a8612ca3565b5b60006120b786828701611f8c565b93505060206120c886828701611f8c565b92505060406120d98682870161200e565b9150509250925092565b600080600080608085870312156120fd576120fc612ca3565b5b600061210b87828801611f8c565b945050602061211c87828801611f8c565b935050604061212d8782880161200e565b925050606085013567ffffffffffffffff81111561214e5761214d612c9e565b5b61215a87828801611fe0565b91505092959194509250565b6000806040838503121561217d5761217c612ca3565b5b600061218b85828601611f8c565b925050602061219c85828601611fa1565b9150509250929050565b600080604083850312156121bd576121bc612ca3565b5b60006121cb85828601611f8c565b92505060206121dc8582860161200e565b9150509250929050565b6000602082840312156121fc576121fb612ca3565b5b600061220a84828501611fb6565b91505092915050565b60006020828403121561222957612228612ca3565b5b600061223784828501611fcb565b91505092915050565b60006020828403121561225657612255612ca3565b5b60006122648482850161200e565b91505092915050565b612276816129e7565b82525050565b612285816129f9565b82525050565b6000612296826128e9565b6122a081856128ff565b93506122b0818560208601612a6a565b6122b981612ca8565b840191505092915050565b60006122cf826128f4565b6122d98185612910565b93506122e9818560208601612a6a565b6122f281612ca8565b840191505092915050565b6000612308826128f4565b6123128185612921565b9350612322818560208601612a6a565b80840191505092915050565b600061233b602b83612910565b915061234682612cb9565b604082019050919050565b600061235e603283612910565b915061236982612d08565b604082019050919050565b6000612381601c83612910565b915061238c82612d57565b602082019050919050565b60006123a4602483612910565b91506123af82612d80565b604082019050919050565b60006123c7601983612910565b91506123d282612dcf565b602082019050919050565b60006123ea602c83612910565b91506123f582612df8565b604082019050919050565b600061240d603883612910565b915061241882612e47565b604082019050919050565b6000612430602a83612910565b915061243b82612e96565b604082019050919050565b6000612453602983612910565b915061245e82612ee5565b604082019050919050565b6000612476602083612910565b915061248182612f34565b602082019050919050565b6000612499602c83612910565b91506124a482612f5d565b604082019050919050565b60006124bc602983612910565b91506124c782612fac565b604082019050919050565b60006124df602f83612910565b91506124ea82612ffb565b604082019050919050565b6000612502602183612910565b915061250d8261304a565b604082019050919050565b6000612525601383612910565b915061253082613099565b602082019050919050565b6000612548603183612910565b9150612553826130c2565b604082019050919050565b600061256b602c83612910565b915061257682613111565b604082019050919050565b61258a81612a51565b82525050565b600061259c82856122fd565b91506125a882846122fd565b91508190509392505050565b60006020820190506125c9600083018461226d565b92915050565b60006080820190506125e4600083018761226d565b6125f1602083018661226d565b6125fe6040830185612581565b8181036060830152612610818461228b565b905095945050505050565b6000602082019050612630600083018461227c565b92915050565b6000602082019050818103600083015261265081846122c4565b905092915050565b600060208201905081810360008301526126718161232e565b9050919050565b6000602082019050818103600083015261269181612351565b9050919050565b600060208201905081810360008301526126b181612374565b9050919050565b600060208201905081810360008301526126d181612397565b9050919050565b600060208201905081810360008301526126f1816123ba565b9050919050565b60006020820190508181036000830152612711816123dd565b9050919050565b6000602082019050818103600083015261273181612400565b9050919050565b6000602082019050818103600083015261275181612423565b9050919050565b6000602082019050818103600083015261277181612446565b9050919050565b6000602082019050818103600083015261279181612469565b9050919050565b600060208201905081810360008301526127b18161248c565b9050919050565b600060208201905081810360008301526127d1816124af565b9050919050565b600060208201905081810360008301526127f1816124d2565b9050919050565b60006020820190508181036000830152612811816124f5565b9050919050565b6000602082019050818103600083015261283181612518565b9050919050565b600060208201905081810360008301526128518161253b565b9050919050565b600060208201905081810360008301526128718161255e565b9050919050565b600060208201905061288d6000830184612581565b92915050565b600061289d6128ae565b90506128a98282612acf565b919050565b6000604051905090565b600067ffffffffffffffff8211156128d3576128d2612c65565b5b6128dc82612ca8565b9050602081019050919050565b600081519050919050565b600081519050919050565b600082825260208201905092915050565b600082825260208201905092915050565b600081905092915050565b600061293782612a51565b915061294283612a51565b9250827fffffffffffffffffffffffffffffffffffffffffffffffffffffffffffffffff0382111561297757612976612b7a565b5b828201905092915050565b600061298d82612a51565b915061299883612a51565b9250826129a8576129a7612ba9565b5b828204905092915050565b60006129be82612a51565b91506129c983612a51565b9250828210156129dc576129db612b7a565b5b828203905092915050565b60006129f282612a31565b9050919050565b60008115159050919050565b60007fffffffff0000000000000000000000000000000000000000000000000000000082169050919050565b600073ffffffffffffffffffffffffffffffffffffffff82169050919050565b6000819050919050565b82818337600083830152505050565b60005b83811015612a88578082015181840152602081019050612a6d565b83811115612a97576000848401525b50505050565b60006002820490506001821680612ab557607f821691505b60208210811415612ac957612ac8612bd8565b5b50919050565b612ad882612ca8565b810181811067ffffffffffffffff82111715612af757612af6612c65565b5b80604052505050565b6000612b0b82612a51565b91507fffffffffffffffffffffffffffffffffffffffffffffffffffffffffffffffff821415612b3e57612b3d612b7a565b5b600182019050919050565b6000612b5482612a51565b9150612b5f83612a51565b925082612b6f57612b6e612ba9565b5b828206905092915050565b7f4e487b7100000000000000000000000000000000000000000000000000000000600052601160045260246000fd5b7f4e487b7100000000000000000000000000000000000000000000000000000000600052601260045260246000fd5b7f4e487b7100000000000000000000000000000000000000000000000000000000600052602260045260246000fd5b7f4e487b7100000000000000000000000000000000000000000000000000000000600052603160045260246000fd5b7f4e487b7100000000000000000000000000000000000000000000000000000000600052603260045260246000fd5b7f4e487b7100000000000000000000000000000000000000000000000000000000600052604160045260246000fd5b600080fd5b600080fd5b600080fd5b600080fd5b6000601f19601f8301169050919050565b7f455243373231456e756d657261626c653a206f776e657220696e646578206f7560008201527f74206f6620626f756e6473000000000000000000000000000000000000000000602082015250565b7f4552433732313a207472616e7366657220746f206e6f6e20455243373231526560008201527f63656976657220696d706c656d656e7465720000000000000000000000000000602082015250565b7f4552433732313a20746f6b656e20616c7265616479206d696e74656400000000600082015250565b7f4552433732313a207472616e7366657220746f20746865207a65726f2061646460008201527f7265737300000000000000000000000000000000000000000000000000000000602082015250565b7f4552433732313a20617070726f766520746f2063616c6c657200000000000000600082015250565b7f4552433732313a206f70657261746f7220717565727920666f72206e6f6e657860008201527f697374656e7420746f6b656e0000000000000000000000000000000000000000602082015250565b7f4552433732313a20617070726f76652063616c6c6572206973206e6f74206f7760008201527f6e6572206e6f7220617070726f76656420666f7220616c6c0000000000000000602082015250565b7f4552433732313a2062616c616e636520717565727920666f7220746865207a6560008201527f726f206164647265737300000000000000000000000000000000000000000000602082015250565b7f4552433732313a206f776e657220717565727920666f72206e6f6e657869737460008201527f656e7420746f6b656e0000000000000000000000000000000000000000000000602082015250565b7f4552433732313a206d696e7420746f20746865207a65726f2061646472657373600082015250565b7f4552433732313a20617070726f76656420717565727920666f72206e6f6e657860008201527f697374656e7420746f6b656e0000000000000000000000000000000000000000602082015250565b7f4552433732313a207472616e73666572206f6620746f6b656e2074686174206960008201527f73206e6f74206f776e0000000000000000000000000000000000000000000000602082015250565b7f4552433732314d657461646174613a2055524920717565727920666f72206e6f60008201527f6e6578697374656e7420746f6b656e0000000000000000000000000000000000602082015250565b7f4552433732313a20617070726f76616c20746f2063757272656e74206f776e6560008201527f7200000000000000000000000000000000000000000000000000000000000000602082015250565b7f53656e646572206973206e6f74206f776e657200000000000000000000000000600082015250565b7f4552433732313a207472616e736665722063616c6c6572206973206e6f74206f60008201527f776e6572206e6f7220617070726f766564000000000000000000000000000000602082015250565b7f455243373231456e756d657261626c653a20676c6f62616c20696e646578206f60008201527f7574206f6620626f756e64730000000000000000000000000000000000000000602082015250565b613169816129e7565b811461317457600080fd5b50565b613180816129f9565b811461318b57600080fd5b50565b61319781612a05565b81146131a257600080fd5b50565b6131ae81612a51565b81146131b957600080fd5b5056fea2646970667358221220f750fb7b4d40cfa2c5dff687b802e0d5cee81a55cb842ac22f081757a4fb815564736f6c63430008070033",
  "immutableReferences": {},
  "source": "pragma solidity ^0.8.2;\n\nimport \"@openzeppelin/contracts/token/ERC721/ERC721.sol\";\nimport \"@openzeppelin/contracts/token/ERC721/extensions/ERC721Enumerable.sol\";\n\ncontract MockDemonzv1 is ERC721Enumerable {\n    constructor() ERC721 (\"CryptoDemonzV1\", \"DEMONZv1\") {}\n\n    function mintToken(uint256 _amount) external payable {\n        for (uint256 i=0; i<_amount; ++i) {\n            _safeMint(msg.sender, totalSupply());\n        }\n    }\n\n    function burnToken(uint256 _token_id) external {\n        require(ownerOf(_token_id) == msg.sender, \"Sender is not owner\");\n        _burn(_token_id);\n    }\n}",
  "sourcePath": "/home/levi/wheel_typescript/contracts/v1mock.sol",
  "compiler": {
    "name": "solc",
    "version": "0.8.7+commit.e28d00a7.Emscripten.clang"
  },
  "schemaVersion": "3.4.1",
  "updatedAt": "2021-11-01T02:58:49.722Z",
  "networkType": "ethereum",
  "devdoc": {
    "kind": "dev",
    "methods": {
      "approve(address,uint256)": {
        "details": "See {IERC721-approve}."
      },
      "balanceOf(address)": {
        "details": "See {IERC721-balanceOf}."
      },
      "getApproved(uint256)": {
        "details": "See {IERC721-getApproved}."
      },
      "isApprovedForAll(address,address)": {
        "details": "See {IERC721-isApprovedForAll}."
      },
      "name()": {
        "details": "See {IERC721Metadata-name}."
      },
      "ownerOf(uint256)": {
        "details": "See {IERC721-ownerOf}."
      },
      "safeTransferFrom(address,address,uint256)": {
        "details": "See {IERC721-safeTransferFrom}."
      },
      "safeTransferFrom(address,address,uint256,bytes)": {
        "details": "See {IERC721-safeTransferFrom}."
      },
      "setApprovalForAll(address,bool)": {
        "details": "See {IERC721-setApprovalForAll}."
      },
      "supportsInterface(bytes4)": {
        "details": "See {IERC165-supportsInterface}."
      },
      "symbol()": {
        "details": "See {IERC721Metadata-symbol}."
      },
      "tokenByIndex(uint256)": {
        "details": "See {IERC721Enumerable-tokenByIndex}."
      },
      "tokenOfOwnerByIndex(address,uint256)": {
        "details": "See {IERC721Enumerable-tokenOfOwnerByIndex}."
      },
      "tokenURI(uint256)": {
        "details": "See {IERC721Metadata-tokenURI}."
      },
      "totalSupply()": {
        "details": "See {IERC721Enumerable-totalSupply}."
      },
      "transferFrom(address,address,uint256)": {
        "details": "See {IERC721-transferFrom}."
      }
    },
    "version": 1
  },
  "userdoc": {
    "kind": "user",
    "methods": {},
    "version": 1
  }
}