{
  "contractName": "Wheel",
  "abi": [
    {
      "inputs": [
        {
          "internalType": "address",
          "name": "LLTH_",
          "type": "address"
        }
      ],
      "stateMutability": "nonpayable",
      "type": "constructor"
    },
    {
      "anonymous": false,
      "inputs": [
        {
          "indexed": true,
          "internalType": "address",
          "name": "previousOwner",
          "type": "address"
        },
        {
          "indexed": true,
          "internalType": "address",
          "name": "newOwner",
          "type": "address"
        }
      ],
      "name": "OwnershipTransferred",
      "type": "event"
    },
    {
      "anonymous": false,
      "inputs": [
        {
          "indexed": false,
          "internalType": "bytes32",
          "name": "requestId",
          "type": "bytes32"
        },
        {
          "indexed": false,
          "internalType": "uint256",
          "name": "randomNumber",
          "type": "uint256"
        }
      ],
      "name": "RandomIsArrived",
      "type": "event"
    },
    {
      "anonymous": false,
      "inputs": [
        {
          "indexed": false,
          "internalType": "address",
          "name": "player",
          "type": "address"
        },
        {
          "indexed": false,
          "internalType": "bytes32",
          "name": "requestId",
          "type": "bytes32"
        }
      ],
      "name": "RequestIdIsCreated",
      "type": "event"
    },
    {
      "inputs": [],
      "name": "LINKToken",
      "outputs": [
        {
          "internalType": "address",
          "name": "",
          "type": "address"
        }
      ],
      "stateMutability": "view",
      "type": "function",
      "constant": true
    },
    {
      "inputs": [],
      "name": "VRFCoordinator",
      "outputs": [
        {
          "internalType": "address",
          "name": "",
          "type": "address"
        }
      ],
      "stateMutability": "view",
      "type": "function",
      "constant": true
    },
    {
      "inputs": [
        {
          "internalType": "address",
          "name": "",
          "type": "address"
        }
      ],
      "name": "addressToRequestId",
      "outputs": [
        {
          "internalType": "bytes32",
          "name": "",
          "type": "bytes32"
        }
      ],
      "stateMutability": "view",
      "type": "function",
      "constant": true
    },
    {
      "inputs": [
        {
          "internalType": "address",
          "name": "",
          "type": "address"
        }
      ],
      "name": "bets",
      "outputs": [
        {
          "internalType": "uint256",
          "name": "",
          "type": "uint256"
        }
      ],
      "stateMutability": "view",
      "type": "function",
      "constant": true
    },
    {
      "inputs": [
        {
          "internalType": "address",
          "name": "",
          "type": "address"
        }
      ],
      "name": "currency",
      "outputs": [
        {
          "internalType": "enum Wheel.Currency",
          "name": "",
          "type": "uint8"
        }
      ],
      "stateMutability": "view",
      "type": "function",
      "constant": true
    },
    {
      "inputs": [],
      "name": "fee",
      "outputs": [
        {
          "internalType": "uint256",
          "name": "",
          "type": "uint256"
        }
      ],
      "stateMutability": "view",
      "type": "function",
      "constant": true
    },
    {
      "inputs": [],
      "name": "keyHash",
      "outputs": [
        {
          "internalType": "bytes32",
          "name": "",
          "type": "bytes32"
        }
      ],
      "stateMutability": "view",
      "type": "function",
      "constant": true
    },
    {
      "inputs": [],
      "name": "maxMultiplier",
      "outputs": [
        {
          "internalType": "uint256",
          "name": "",
          "type": "uint256"
        }
      ],
      "stateMutability": "view",
      "type": "function",
      "constant": true
    },
    {
      "inputs": [],
      "name": "minMultiplier",
      "outputs": [
        {
          "internalType": "uint256",
          "name": "",
          "type": "uint256"
        }
      ],
      "stateMutability": "view",
      "type": "function",
      "constant": true
    },
    {
      "inputs": [
        {
          "internalType": "address",
          "name": "",
          "type": "address"
        }
      ],
      "name": "multipliers",
      "outputs": [
        {
          "internalType": "uint256",
          "name": "",
          "type": "uint256"
        }
      ],
      "stateMutability": "view",
      "type": "function",
      "constant": true
    },
    {
      "inputs": [],
      "name": "owner",
      "outputs": [
        {
          "internalType": "address",
          "name": "",
          "type": "address"
        }
      ],
      "stateMutability": "view",
      "type": "function",
      "constant": true
    },
    {
      "inputs": [
        {
          "internalType": "bytes32",
          "name": "requestId",
          "type": "bytes32"
        },
        {
          "internalType": "uint256",
          "name": "randomness",
          "type": "uint256"
        }
      ],
      "name": "rawFulfillRandomness",
      "outputs": [],
      "stateMutability": "nonpayable",
      "type": "function"
    },
    {
      "inputs": [],
      "name": "renounceOwnership",
      "outputs": [],
      "stateMutability": "nonpayable",
      "type": "function"
    },
    {
      "inputs": [
        {
          "internalType": "bytes32",
          "name": "",
          "type": "bytes32"
        }
      ],
      "name": "requestIdToRandomNumber",
      "outputs": [
        {
          "internalType": "uint256",
          "name": "",
          "type": "uint256"
        }
      ],
      "stateMutability": "view",
      "type": "function",
      "constant": true
    },
    {
      "inputs": [
        {
          "internalType": "address",
          "name": "newOwner",
          "type": "address"
        }
      ],
      "name": "transferOwnership",
      "outputs": [],
      "stateMutability": "nonpayable",
      "type": "function"
    },
    {
      "inputs": [
        {
          "internalType": "address",
          "name": "player",
          "type": "address"
        }
      ],
      "name": "requestIdOf",
      "outputs": [
        {
          "internalType": "bytes32",
          "name": "",
          "type": "bytes32"
        }
      ],
      "stateMutability": "view",
      "type": "function",
      "constant": true
    },
    {
      "inputs": [],
      "name": "getBalance",
      "outputs": [
        {
          "internalType": "uint256",
          "name": "",
          "type": "uint256"
        }
      ],
      "stateMutability": "view",
      "type": "function",
      "constant": true
    },
    {
      "inputs": [
        {
          "internalType": "address",
          "name": "player",
          "type": "address"
        }
      ],
      "name": "betOf",
      "outputs": [
        {
          "internalType": "uint256",
          "name": "",
          "type": "uint256"
        }
      ],
      "stateMutability": "view",
      "type": "function",
      "constant": true
    },
    {
      "inputs": [
        {
          "internalType": "address",
          "name": "LLTH_",
          "type": "address"
        }
      ],
      "name": "setLLTH",
      "outputs": [],
      "stateMutability": "nonpayable",
      "type": "function"
    },
    {
      "inputs": [
        {
          "internalType": "uint256",
          "name": "minMultiplier_",
          "type": "uint256"
        }
      ],
      "name": "setMinMultiplier",
      "outputs": [],
      "stateMutability": "nonpayable",
      "type": "function"
    },
    {
      "inputs": [
        {
          "internalType": "uint256",
          "name": "maxMultiplier_",
          "type": "uint256"
        }
      ],
      "name": "setMaxMultiplier",
      "outputs": [],
      "stateMutability": "nonpayable",
      "type": "function"
    },
    {
      "inputs": [
        {
          "internalType": "address",
          "name": "player",
          "type": "address"
        }
      ],
      "name": "getWinningMultiplier",
      "outputs": [
        {
          "internalType": "uint256",
          "name": "",
          "type": "uint256"
        }
      ],
      "stateMutability": "view",
      "type": "function",
      "constant": true
    },
    {
      "inputs": [
        {
          "internalType": "uint256",
          "name": "bet",
          "type": "uint256"
        },
        {
          "internalType": "uint256",
          "name": "multiplier",
          "type": "uint256"
        }
      ],
      "name": "placeBetInLLTH",
      "outputs": [],
      "stateMutability": "nonpayable",
      "type": "function"
    },
    {
      "inputs": [
        {
          "internalType": "uint256",
          "name": "multiplier",
          "type": "uint256"
        }
      ],
      "name": "placeBetInETH",
      "outputs": [],
      "stateMutability": "payable",
      "type": "function",
      "payable": true
    },
    {
      "inputs": [
        {
          "internalType": "uint256",
          "name": "amount",
          "type": "uint256"
        }
      ],
      "name": "withdrawLLTH",
      "outputs": [],
      "stateMutability": "nonpayable",
      "type": "function"
    },
    {
      "inputs": [
        {
          "internalType": "uint256",
          "name": "amount",
          "type": "uint256"
        }
      ],
      "name": "withdrawETH",
      "outputs": [],
      "stateMutability": "nonpayable",
      "type": "function"
    },
    {
      "inputs": [
        {
          "internalType": "address",
          "name": "player",
          "type": "address"
        }
      ],
      "name": "closeRound",
      "outputs": [],
      "stateMutability": "nonpayable",
      "type": "function"
    }
  ],
  "bytecode": "0x60c06040526002600355600d600455738c7382f9d8f56b33781fe506e897a4f1e2d17255600760006101000a81548173ffffffffffffffffffffffffffffffffffffffff021916908373ffffffffffffffffffffffffffffffffffffffff16021790555073326c977e6efc84e512bb9c30f76e30c160ed06fb600860006101000a81548173ffffffffffffffffffffffffffffffffffffffff021916908373ffffffffffffffffffffffffffffffffffffffff160217905550348015620000c557600080fd5b5060405162003386380380620033868339818101604052810190620000eb919062000323565b600760009054906101000a900473ffffffffffffffffffffffffffffffffffffffff16600860009054906101000a900473ffffffffffffffffffffffffffffffffffffffff1662000151620001456200024060201b60201c565b6200024860201b60201c565b8173ffffffffffffffffffffffffffffffffffffffff1660a08173ffffffffffffffffffffffffffffffffffffffff1660601b815250508073ffffffffffffffffffffffffffffffffffffffff1660808173ffffffffffffffffffffffffffffffffffffffff1660601b81525050505080600260006101000a81548173ffffffffffffffffffffffffffffffffffffffff021916908373ffffffffffffffffffffffffffffffffffffffff1602179055507f6e75b569a01ef56d18cab6a8e71e6600d6ce853834d4a5748b720d06f878b3a460001b600681905550655af3107a400060058190555050620003a8565b600033905090565b60008060009054906101000a900473ffffffffffffffffffffffffffffffffffffffff169050816000806101000a81548173ffffffffffffffffffffffffffffffffffffffff021916908373ffffffffffffffffffffffffffffffffffffffff1602179055508173ffffffffffffffffffffffffffffffffffffffff168173ffffffffffffffffffffffffffffffffffffffff167f8be0079c531659141344cd1fd0a4f28419497f9722a3daafe3b4186f6b6457e060405160405180910390a35050565b6000815190506200031d816200038e565b92915050565b6000602082840312156200033c576200033b62000389565b5b60006200034c848285016200030c565b91505092915050565b6000620003628262000369565b9050919050565b600073ffffffffffffffffffffffffffffffffffffffff82169050919050565b600080fd5b620003998162000355565b8114620003a557600080fd5b50565b60805160601c60a05160601c612fa4620003e2600039600081816115fa01526120d8015260008181611dc1015261209c0152612fa46000f3fe60806040526004361061019c5760003560e01c8063715018a6116100ec578063a24e0d871161008a578063ddca3f4311610064578063ddca3f43146105dd578063f14210a614610608578063f2fde38b14610631578063f4e9775d1461065a5761019c565b8063a24e0d871461054c578063ac524f3d14610577578063cad8c3b9146105b45761019c565b80638da5cb5b116100c65780638da5cb5b1461049257806394985ddd146104bd5780639bef9200146104e65780639fd751c7146105235761019c565b8063715018a6146104155780637c7778061461042c57806389a78f1a146104555761019c565b806333b6086311610159578063507953991161013357806350795399146103475780635ae467741461038457806361728f39146103c157806368258f49146103ec5761019c565b806333b60863146102a25780634288d759146102cd5780635017efb61461030a5761019c565b806301526a43146101a15780630187aea0146101ca57806302b87f19146101f557806312065fe01461021157806318af3f3a1461023c57806319ebf02814610265575b600080fd5b3480156101ad57600080fd5b506101c860048036038101906101c39190612398565b610685565b005b3480156101d657600080fd5b506101df61070b565b6040516101ec9190612968565b60405180910390f35b61020f600480360381019061020a9190612398565b610711565b005b34801561021d57600080fd5b50610226610992565b6040516102339190612968565b60405180910390f35b34801561024857600080fd5b50610263600480360381019061025e9190612398565b610a44565b005b34801561027157600080fd5b5061028c600480360381019061028791906122d1565b610c67565b60405161029991906127ed565b60405180910390f35b3480156102ae57600080fd5b506102b7610c87565b6040516102c49190612682565b60405180910390f35b3480156102d957600080fd5b506102f460048036038101906102ef91906122d1565b610cad565b6040516103019190612968565b60405180910390f35b34801561031657600080fd5b50610331600480360381019061032c91906122d1565b610d2f565b60405161033e9190612764565b60405180910390f35b34801561035357600080fd5b5061036e600480360381019061036991906122d1565b610d47565b60405161037b9190612968565b60405180910390f35b34801561039057600080fd5b506103ab60048036038101906103a691906122d1565b610ecd565b6040516103b89190612764565b60405180910390f35b3480156103cd57600080fd5b506103d6610f16565b6040516103e39190612764565b60405180910390f35b3480156103f857600080fd5b50610413600480360381019061040e91906122d1565b610f1c565b005b34801561042157600080fd5b5061042a61146f565b005b34801561043857600080fd5b50610453600480360381019061044e91906122d1565b6114f7565b005b34801561046157600080fd5b5061047c600480360381019061047791906122d1565b6115b7565b6040516104899190612968565b60405180910390f35b34801561049e57600080fd5b506104a76115cf565b6040516104b49190612682565b60405180910390f35b3480156104c957600080fd5b506104e460048036038101906104df9190612358565b6115f8565b005b3480156104f257600080fd5b5061050d6004803603810190610508919061232b565b611694565b60405161051a9190612968565b60405180910390f35b34801561052f57600080fd5b5061054a60048036038101906105459190612398565b6116ac565b005b34801561055857600080fd5b50610561611732565b60405161056e9190612968565b60405180910390f35b34801561058357600080fd5b5061059e600480360381019061059991906122d1565b611738565b6040516105ab9190612968565b60405180910390f35b3480156105c057600080fd5b506105db60048036038101906105d691906123f2565b611750565b005b3480156105e957600080fd5b506105f2611b71565b6040516105ff9190612968565b60405180910390f35b34801561061457600080fd5b5061062f600480360381019061062a9190612398565b611b77565b005b34801561063d57600080fd5b50610658600480360381019061065391906122d1565b611c80565b005b34801561066657600080fd5b5061066f611d78565b60405161067c9190612682565b60405180910390f35b61068d611d9e565b73ffffffffffffffffffffffffffffffffffffffff166106ab6115cf565b73ffffffffffffffffffffffffffffffffffffffff1614610701576040517f08c379a00000000000000000000000000000000000000000000000000000000081526004016106f8906128c8565b60405180910390fd5b8060048190555050565b60045481565b60018111610754576040517f08c379a000000000000000000000000000000000000000000000000000000000815260040161074b90612828565b60405180910390fd5b600e8110610797576040517f08c379a000000000000000000000000000000000000000000000000000000000815260040161078e90612828565b60405180910390fd5b6107aa8134611da690919063ffffffff16565b600260009054906101000a900473ffffffffffffffffffffffffffffffffffffffff1673ffffffffffffffffffffffffffffffffffffffff166370a08231306040518263ffffffff1660e01b81526004016108059190612682565b60206040518083038186803b15801561081d57600080fd5b505afa158015610831573d6000803e3d6000fd5b505050506040513d601f19601f8201168201806040525081019061085591906123c5565b1015610896576040517f08c379a000000000000000000000000000000000000000000000000000000000815260040161088d90612808565b60405180910390fd5b61089f33611dbc565b34600960003373ffffffffffffffffffffffffffffffffffffffff1673ffffffffffffffffffffffffffffffffffffffff1681526020019081526020016000208190555080600a60003373ffffffffffffffffffffffffffffffffffffffff1673ffffffffffffffffffffffffffffffffffffffff168152602001908152602001600020819055506000600d60003373ffffffffffffffffffffffffffffffffffffffff1673ffffffffffffffffffffffffffffffffffffffff16815260200190815260200160002060006101000a81548160ff0219169083600181111561098a57610989612c12565b5b021790555050565b6000600260009054906101000a900473ffffffffffffffffffffffffffffffffffffffff1673ffffffffffffffffffffffffffffffffffffffff166370a08231306040518263ffffffff1660e01b81526004016109ef9190612682565b60206040518083038186803b158015610a0757600080fd5b505afa158015610a1b573d6000803e3d6000fd5b505050506040513d601f19601f82011682018060405250810190610a3f91906123c5565b905090565b610a4c611d9e565b73ffffffffffffffffffffffffffffffffffffffff16610a6a6115cf565b73ffffffffffffffffffffffffffffffffffffffff1614610ac0576040517f08c379a0000000000000000000000000000000000000000000000000000000008152600401610ab7906128c8565b60405180910390fd5b80600260009054906101000a900473ffffffffffffffffffffffffffffffffffffffff1673ffffffffffffffffffffffffffffffffffffffff166370a08231306040518263ffffffff1660e01b8152600401610b1c9190612682565b60206040518083038186803b158015610b3457600080fd5b505afa158015610b48573d6000803e3d6000fd5b505050506040513d601f19601f82011682018060405250810190610b6c91906123c5565b1015610bad576040517f08c379a0000000000000000000000000000000000000000000000000000000008152600401610ba490612868565b60405180910390fd5b600260009054906101000a900473ffffffffffffffffffffffffffffffffffffffff1673ffffffffffffffffffffffffffffffffffffffff1663a9059cbb610bf36115cf565b836040518363ffffffff1660e01b8152600401610c119291906126fd565b602060405180830381600087803b158015610c2b57600080fd5b505af1158015610c3f573d6000803e3d6000fd5b505050506040513d601f19601f82011682018060405250810190610c6391906122fe565b5050565b600d6020528060005260406000206000915054906101000a900460ff1681565b600760009054906101000a900473ffffffffffffffffffffffffffffffffffffffff1681565b60008073ffffffffffffffffffffffffffffffffffffffff168273ffffffffffffffffffffffffffffffffffffffff161415610ce857600080fd5b600960008373ffffffffffffffffffffffffffffffffffffffff1673ffffffffffffffffffffffffffffffffffffffff168152602001908152602001600020549050919050565b600b6020528060005260406000206000915090505481565b60006001600c6000600b60008673ffffffffffffffffffffffffffffffffffffffff1673ffffffffffffffffffffffffffffffffffffffff1681526020019081526020016000205481526020019081526020016000205411610dde576040517f08c379a0000000000000000000000000000000000000000000000000000000008152600401610dd590612948565b60405180910390fd5b600e600c6000600b60008673ffffffffffffffffffffffffffffffffffffffff1673ffffffffffffffffffffffffffffffffffffffff1681526020019081526020016000205481526020019081526020016000205410610e73576040517f08c379a0000000000000000000000000000000000000000000000000000000008152600401610e6a90612948565b60405180910390fd5b600c6000600b60008573ffffffffffffffffffffffffffffffffffffffff1673ffffffffffffffffffffffffffffffffffffffff168152602001908152602001600020548152602001908152602001600020549050919050565b6000600b60008373ffffffffffffffffffffffffffffffffffffffff1673ffffffffffffffffffffffffffffffffffffffff168152602001908152602001600020549050919050565b60065481565b610f24611d9e565b73ffffffffffffffffffffffffffffffffffffffff16610f426115cf565b73ffffffffffffffffffffffffffffffffffffffff1614610f98576040517f08c379a0000000000000000000000000000000000000000000000000000000008152600401610f8f906128c8565b60405180910390fd5b600073ffffffffffffffffffffffffffffffffffffffff168173ffffffffffffffffffffffffffffffffffffffff161415611008576040517f08c379a0000000000000000000000000000000000000000000000000000000008152600401610fff90612888565b60405180910390fd5b61101181610d47565b600a60008373ffffffffffffffffffffffffffffffffffffffff1673ffffffffffffffffffffffffffffffffffffffff16815260200190815260200160002054141561135457600080600181111561106c5761106b612c12565b5b600d60008473ffffffffffffffffffffffffffffffffffffffff1673ffffffffffffffffffffffffffffffffffffffff16815260200190815260200160002060009054906101000a900460ff1660018111156110cb576110ca612c12565b5b14156111325761112b600960008473ffffffffffffffffffffffffffffffffffffffff1673ffffffffffffffffffffffffffffffffffffffff1681526020019081526020016000205461111d33610d47565b611da690919063ffffffff16565b90506111b5565b6111b2600a6111a4600f611196600960008873ffffffffffffffffffffffffffffffffffffffff1673ffffffffffffffffffffffffffffffffffffffff1681526020019081526020016000205461118833610d47565b611da690919063ffffffff16565b611da690919063ffffffff16565b611f3c90919063ffffffff16565b90505b80600260009054906101000a900473ffffffffffffffffffffffffffffffffffffffff1673ffffffffffffffffffffffffffffffffffffffff166370a08231306040518263ffffffff1660e01b81526004016112119190612682565b60206040518083038186803b15801561122957600080fd5b505afa15801561123d573d6000803e3d6000fd5b505050506040513d601f19601f8201168201806040525081019061126191906123c5565b10156112a2576040517f08c379a000000000000000000000000000000000000000000000000000000000815260040161129990612868565b60405180910390fd5b600260009054906101000a900473ffffffffffffffffffffffffffffffffffffffff1673ffffffffffffffffffffffffffffffffffffffff1663a9059cbb83836040518363ffffffff1660e01b81526004016112ff9291906126fd565b602060405180830381600087803b15801561131957600080fd5b505af115801561132d573d6000803e3d6000fd5b505050506040513d601f19601f8201168201806040525081019061135191906122fe565b50505b600a60008273ffffffffffffffffffffffffffffffffffffffff1673ffffffffffffffffffffffffffffffffffffffff16815260200190815260200160002060009055600960008273ffffffffffffffffffffffffffffffffffffffff1673ffffffffffffffffffffffffffffffffffffffff16815260200190815260200160002060009055600b60008273ffffffffffffffffffffffffffffffffffffffff1673ffffffffffffffffffffffffffffffffffffffff16815260200190815260200160002060009055600d60008273ffffffffffffffffffffffffffffffffffffffff1673ffffffffffffffffffffffffffffffffffffffff16815260200190815260200160002060006101000a81549060ff021916905550565b611477611d9e565b73ffffffffffffffffffffffffffffffffffffffff166114956115cf565b73ffffffffffffffffffffffffffffffffffffffff16146114eb576040517f08c379a00000000000000000000000000000000000000000000000000000000081526004016114e2906128c8565b60405180910390fd5b6114f56000611f52565b565b6114ff611d9e565b73ffffffffffffffffffffffffffffffffffffffff1661151d6115cf565b73ffffffffffffffffffffffffffffffffffffffff1614611573576040517f08c379a000000000000000000000000000000000000000000000000000000000815260040161156a906128c8565b60405180910390fd5b80600260006101000a81548173ffffffffffffffffffffffffffffffffffffffff021916908373ffffffffffffffffffffffffffffffffffffffff16021790555050565b60096020528060005260406000206000915090505481565b60008060009054906101000a900473ffffffffffffffffffffffffffffffffffffffff16905090565b7f000000000000000000000000000000000000000000000000000000000000000073ffffffffffffffffffffffffffffffffffffffff163373ffffffffffffffffffffffffffffffffffffffff1614611686576040517f08c379a000000000000000000000000000000000000000000000000000000000815260040161167d906128e8565b60405180910390fd5b6116908282612016565b5050565b600c6020528060005260406000206000915090505481565b6116b4611d9e565b73ffffffffffffffffffffffffffffffffffffffff166116d26115cf565b73ffffffffffffffffffffffffffffffffffffffff1614611728576040517f08c379a000000000000000000000000000000000000000000000000000000000815260040161171f906128c8565b60405180910390fd5b8060038190555050565b60035481565b600a6020528060005260406000206000915090505481565b60018111611793576040517f08c379a000000000000000000000000000000000000000000000000000000000815260040161178a90612828565b60405180910390fd5b600e81106117d6576040517f08c379a00000000000000000000000000000000000000000000000000000000081526004016117cd90612828565b60405180910390fd5b81600260009054906101000a900473ffffffffffffffffffffffffffffffffffffffff1673ffffffffffffffffffffffffffffffffffffffff166370a08231336040518263ffffffff1660e01b81526004016118329190612682565b60206040518083038186803b15801561184a57600080fd5b505afa15801561185e573d6000803e3d6000fd5b505050506040513d601f19601f8201168201806040525081019061188291906123c5565b10156118c3576040517f08c379a00000000000000000000000000000000000000000000000000000000081526004016118ba906128a8565b60405180910390fd5b6118d68183611da690919063ffffffff16565b600260009054906101000a900473ffffffffffffffffffffffffffffffffffffffff1673ffffffffffffffffffffffffffffffffffffffff166370a08231306040518263ffffffff1660e01b81526004016119319190612682565b60206040518083038186803b15801561194957600080fd5b505afa15801561195d573d6000803e3d6000fd5b505050506040513d601f19601f8201168201806040525081019061198191906123c5565b10156119c2576040517f08c379a00000000000000000000000000000000000000000000000000000000081526004016119b990612808565b60405180910390fd5b600260009054906101000a900473ffffffffffffffffffffffffffffffffffffffff1673ffffffffffffffffffffffffffffffffffffffff166323b872dd3330856040518463ffffffff1660e01b8152600401611a219392919061269d565b602060405180830381600087803b158015611a3b57600080fd5b505af1158015611a4f573d6000803e3d6000fd5b505050506040513d601f19601f82011682018060405250810190611a7391906122fe565b50611a7d33611dbc565b81600960003373ffffffffffffffffffffffffffffffffffffffff1673ffffffffffffffffffffffffffffffffffffffff1681526020019081526020016000208190555080600a60003373ffffffffffffffffffffffffffffffffffffffff1673ffffffffffffffffffffffffffffffffffffffff168152602001908152602001600020819055506001600d60003373ffffffffffffffffffffffffffffffffffffffff1673ffffffffffffffffffffffffffffffffffffffff16815260200190815260200160002060006101000a81548160ff02191690836001811115611b6857611b67612c12565b5b02179055505050565b60055481565b611b7f611d9e565b73ffffffffffffffffffffffffffffffffffffffff16611b9d6115cf565b73ffffffffffffffffffffffffffffffffffffffff1614611bf3576040517f08c379a0000000000000000000000000000000000000000000000000000000008152600401611bea906128c8565b60405180910390fd5b47811115611c36576040517f08c379a0000000000000000000000000000000000000000000000000000000008152600401611c2d90612908565b60405180910390fd5b3373ffffffffffffffffffffffffffffffffffffffff166108fc829081150290604051600060405180830381858888f19350505050158015611c7c573d6000803e3d6000fd5b5050565b611c88611d9e565b73ffffffffffffffffffffffffffffffffffffffff16611ca66115cf565b73ffffffffffffffffffffffffffffffffffffffff1614611cfc576040517f08c379a0000000000000000000000000000000000000000000000000000000008152600401611cf3906128c8565b60405180910390fd5b600073ffffffffffffffffffffffffffffffffffffffff168173ffffffffffffffffffffffffffffffffffffffff161415611d6c576040517f08c379a0000000000000000000000000000000000000000000000000000000008152600401611d6390612848565b60405180910390fd5b611d7581611f52565b50565b600860009054906101000a900473ffffffffffffffffffffffffffffffffffffffff1681565b600033905090565b60008183611db49190612a37565b905092915050565b6005547f000000000000000000000000000000000000000000000000000000000000000073ffffffffffffffffffffffffffffffffffffffff166370a08231306040518263ffffffff1660e01b8152600401611e189190612682565b60206040518083038186803b158015611e3057600080fd5b505afa158015611e44573d6000803e3d6000fd5b505050506040513d601f19601f82011682018060405250810190611e6891906123c5565b1015611ea9576040517f08c379a0000000000000000000000000000000000000000000000000000000008152600401611ea090612928565b60405180910390fd5b6000611eb9600654600554612098565b905080600b60008473ffffffffffffffffffffffffffffffffffffffff1673ffffffffffffffffffffffffffffffffffffffff168152602001908152602001600020819055507faede8a84bd70912adc412a1c86f3aa87a32e75e15b66e8d2c6139982e12777768282604051611f309291906126d4565b60405180910390a15050565b60008183611f4a9190612a06565b905092915050565b60008060009054906101000a900473ffffffffffffffffffffffffffffffffffffffff169050816000806101000a81548173ffffffffffffffffffffffffffffffffffffffff021916908373ffffffffffffffffffffffffffffffffffffffff1602179055508173ffffffffffffffffffffffffffffffffffffffff168173ffffffffffffffffffffffffffffffffffffffff167f8be0079c531659141344cd1fd0a4f28419497f9722a3daafe3b4186f6b6457e060405160405180910390a35050565b600060035460035460045461202b9190612a91565b836120369190612b83565b61204091906129b0565b905080600c6000858152602001908152602001600020819055507f487bf13e5d88ca8eb4a14e229b6ad3371c9627c7a096e6e416d556ac33a7da4c838260405161208b92919061277f565b60405180910390a1505050565b60007f000000000000000000000000000000000000000000000000000000000000000073ffffffffffffffffffffffffffffffffffffffff16634000aea07f00000000000000000000000000000000000000000000000000000000000000008486600060405160200161210c92919061277f565b6040516020818303038152906040526040518463ffffffff1660e01b815260040161213993929190612726565b602060405180830381600087803b15801561215357600080fd5b505af1158015612167573d6000803e3d6000fd5b505050506040513d601f19601f8201168201806040525081019061218b91906122fe565b5060006121ae8460003060016000898152602001908152602001600020546121f9565b90506001806000868152602001908152602001600020546121cf91906129b0565b60016000868152602001908152602001600020819055506121f08482612235565b91505092915050565b60008484848460405160200161221294939291906127a8565b6040516020818303038152906040528051906020012060001c9050949350505050565b6000828260405160200161224a929190612656565b60405160208183030381529060405280519060200120905092915050565b60008135905061227781612f12565b92915050565b60008151905061228c81612f29565b92915050565b6000813590506122a181612f40565b92915050565b6000813590506122b681612f57565b92915050565b6000815190506122cb81612f57565b92915050565b6000602082840312156122e7576122e6612c41565b5b60006122f584828501612268565b91505092915050565b60006020828403121561231457612313612c41565b5b60006123228482850161227d565b91505092915050565b60006020828403121561234157612340612c41565b5b600061234f84828501612292565b91505092915050565b6000806040838503121561236f5761236e612c41565b5b600061237d85828601612292565b925050602061238e858286016122a7565b9150509250929050565b6000602082840312156123ae576123ad612c41565b5b60006123bc848285016122a7565b91505092915050565b6000602082840312156123db576123da612c41565b5b60006123e9848285016122bc565b91505092915050565b6000806040838503121561240957612408612c41565b5b6000612417858286016122a7565b9250506020612428858286016122a7565b9150509250929050565b61243b81612ac5565b82525050565b61244a81612ae3565b82525050565b61246161245c82612ae3565b612b6f565b82525050565b600061247282612983565b61247c818561298e565b935061248c818560208601612b3c565b61249581612c46565b840191505092915050565b6124a981612b2a565b82525050565b60006124bc60288361299f565b91506124c782612c57565b604082019050919050565b60006124df60248361299f565b91506124ea82612ca6565b604082019050919050565b600061250260268361299f565b915061250d82612cf5565b604082019050919050565b600061252560228361299f565b915061253082612d44565b604082019050919050565b600061254860178361299f565b915061255382612d93565b602082019050919050565b600061256b60268361299f565b915061257682612dbc565b604082019050919050565b600061258e60208361299f565b915061259982612e0b565b602082019050919050565b60006125b1601f8361299f565b91506125bc82612e34565b602082019050919050565b60006125d4600f8361299f565b91506125df82612e5d565b602082019050919050565b60006125f760108361299f565b915061260282612e86565b602082019050919050565b600061261a60278361299f565b915061262582612eaf565b604082019050919050565b61263981612b20565b82525050565b61265061264b82612b20565b612b79565b82525050565b60006126628285612450565b602082019150612672828461263f565b6020820191508190509392505050565b60006020820190506126976000830184612432565b92915050565b60006060820190506126b26000830186612432565b6126bf6020830185612432565b6126cc6040830184612630565b949350505050565b60006040820190506126e96000830185612432565b6126f66020830184612441565b9392505050565b60006040820190506127126000830185612432565b61271f6020830184612630565b9392505050565b600060608201905061273b6000830186612432565b6127486020830185612630565b818103604083015261275a8184612467565b9050949350505050565b60006020820190506127796000830184612441565b92915050565b60006040820190506127946000830185612441565b6127a16020830184612630565b9392505050565b60006080820190506127bd6000830187612441565b6127ca6020830186612630565b6127d76040830185612432565b6127e46060830184612630565b95945050505050565b600060208201905061280260008301846124a0565b92915050565b60006020820190508181036000830152612821816124af565b9050919050565b60006020820190508181036000830152612841816124d2565b9050919050565b60006020820190508181036000830152612861816124f5565b9050919050565b6000602082019050818103600083015261288181612518565b9050919050565b600060208201905081810360008301526128a18161253b565b9050919050565b600060208201905081810360008301526128c18161255e565b9050919050565b600060208201905081810360008301526128e181612581565b9050919050565b60006020820190508181036000830152612901816125a4565b9050919050565b60006020820190508181036000830152612921816125c7565b9050919050565b60006020820190508181036000830152612941816125ea565b9050919050565b600060208201905081810360008301526129618161260d565b9050919050565b600060208201905061297d6000830184612630565b92915050565b600081519050919050565b600082825260208201905092915050565b600082825260208201905092915050565b60006129bb82612b20565b91506129c683612b20565b9250827fffffffffffffffffffffffffffffffffffffffffffffffffffffffffffffffff038211156129fb576129fa612bb4565b5b828201905092915050565b6000612a1182612b20565b9150612a1c83612b20565b925082612a2c57612a2b612be3565b5b828204905092915050565b6000612a4282612b20565b9150612a4d83612b20565b9250817fffffffffffffffffffffffffffffffffffffffffffffffffffffffffffffffff0483118215151615612a8657612a85612bb4565b5b828202905092915050565b6000612a9c82612b20565b9150612aa783612b20565b925082821015612aba57612ab9612bb4565b5b828203905092915050565b6000612ad082612b00565b9050919050565b60008115159050919050565b6000819050919050565b6000819050612afb82612efe565b919050565b600073ffffffffffffffffffffffffffffffffffffffff82169050919050565b6000819050919050565b6000612b3582612aed565b9050919050565b60005b83811015612b5a578082015181840152602081019050612b3f565b83811115612b69576000848401525b50505050565b6000819050919050565b6000819050919050565b6000612b8e82612b20565b9150612b9983612b20565b925082612ba957612ba8612be3565b5b828206905092915050565b7f4e487b7100000000000000000000000000000000000000000000000000000000600052601160045260246000fd5b7f4e487b7100000000000000000000000000000000000000000000000000000000600052601260045260246000fd5b7f4e487b7100000000000000000000000000000000000000000000000000000000600052602160045260246000fd5b600080fd5b6000601f19601f8301169050919050565b7f4e6f7420656e6f75676820244c4c544820746f6b656e20696e2067616d65277360008201527f2077616c6c65742e000000000000000000000000000000000000000000000000602082015250565b7f4d756c7469706c696572206d757374206265206265747765656e203220616e6460008201527f2031332e00000000000000000000000000000000000000000000000000000000602082015250565b7f4f776e61626c653a206e6577206f776e657220697320746865207a65726f206160008201527f6464726573730000000000000000000000000000000000000000000000000000602082015250565b7f4e6f7420656e6f75676820244c4c544820696e2067616d6527732077616c6c6560008201527f742e000000000000000000000000000000000000000000000000000000000000602082015250565b7f416464726573732063616e6e6f74206265206e756c6c2e000000000000000000600082015250565b7f4e6f7420656e6f75676820244c4c544820746f6b656e20696e20796f7572207760008201527f616c6c65742e0000000000000000000000000000000000000000000000000000602082015250565b7f4f776e61626c653a2063616c6c6572206973206e6f7420746865206f776e6572600082015250565b7f4f6e6c7920565246436f6f7264696e61746f722063616e2066756c66696c6c00600082015250565b7f4e6f7420656e6f756768204554482e0000000000000000000000000000000000600082015250565b7f4e6f7420656e6f756768204c494e4b2e00000000000000000000000000000000600082015250565b7f52616e646f6d206e756d626572206d757374206265206265747765656e20322060008201527f616e642031332e00000000000000000000000000000000000000000000000000602082015250565b60028110612f0f57612f0e612c12565b5b50565b612f1b81612ac5565b8114612f2657600080fd5b50565b612f3281612ad7565b8114612f3d57600080fd5b50565b612f4981612ae3565b8114612f5457600080fd5b50565b612f6081612b20565b8114612f6b57600080fd5b5056fea26469706673582212204c832af89729ca812e91d0129d5fed3f275cd486fb58bfdedd5d5672925ec85a64736f6c63430008070033",
  "immutableReferences": {
    "73": [
      {
        "length": 32,
        "start": 7617
      },
      {
        "length": 32,
        "start": 8348
      }
    ],
    "75": [
      {
        "length": 32,
        "start": 5626
      },
      {
        "length": 32,
        "start": 8408
      }
    ]
  },
  "source": "/**\n *   _____________   _______ _____ ___________ ________  ________ _   _ ______\n *  /  __ | ___ \\ \\ / | ___ |_   _|  _  |  _  |  ___|  \\/  |  _  | \\ | |___  /\n *  | /  \\| |_/ /\\ V /| |_/ / | | | | | | | | | |__ |      | | | |  \\| |  / /\n *  | |   |    /  \\ / |  __/  | | | | | | | | |  __|| |\\/| | | | |     | / /\n *  \\ \\__/| |\\ \\  | | | |     | | \\ \\_/ | |/ /| |___| |  | \\ \\_/ | |\\  |/ /___\n *   \\____\\_| \\_| \\_/ \\_|     \\_/  \\___/|___/ \\____/\\_|  |_/\\___/\\_| \\_\\_____/\n *\n *\n *  #CryptoDemonz, Wheel of Fortune\n *\n *  It's a wheel with 12 segments, each segment defines a multiplier like 2x, 3x, , 12x, 13x.\n *  The player can place a bet and has to figure out which multiplier will be the result when the wheel is stopped.\n *  After betting, the wheel starts spinning and spinning, then it stops.\n *  Anyone who successfully figured out the winning multiplier where the wheels stopped,\n *  gets the prize: bet amount x winning multiplier. Otherwise, the player loses their bet.\n *\n */\n\n// SPDX-License-Identifier: MIT\npragma solidity ^0.8.7;\n\nimport \"@openzeppelin/contracts/token/ERC20/IERC20.sol\";\nimport \"@openzeppelin/contracts/token/ERC20/utils/SafeERC20.sol\";\nimport \"@openzeppelin/contracts/utils/Address.sol\";\nimport \"@openzeppelin/contracts/access/Ownable.sol\";\nimport \"@openzeppelin/contracts/utils/math/SafeMath.sol\";\nimport \"@chainlink/contracts/src/v0.8/VRFConsumerBase.sol\";\n\ncontract Wheel is Ownable, VRFConsumerBase {\n    using SafeMath for uint256;\n    using Address for address;\n\n    // currencies that are available for placing bets\n    enum Currency {\n        ETH,\n        LLTH\n    }\n\n    // instance of $LLTH token\n    IERC20 internal _LLTH;\n\n    // minimum value of the wheel segment multiplier\n    uint256 public minMultiplier = 2;\n\n    // maximum value of the wheel segment multiplier\n    uint256 public maxMultiplier = 13;\n\n    // fee required to fulfill a VRF request\n    uint256 public fee;\n\n    // public key against which randomness is generated\n    bytes32 public keyHash;\n\n    // the address of the smart contract which verifies if the numbers returned from Chainlink are actually random\n    address public VRFCoordinator = 0x8C7382F9D8f56b33781fE506E897a4F1e2d17255;\n\n    // LINK token's address\n    address public LINKToken = 0x326C977E6efc84E512bB9C30f76E30c160eD06FB;\n\n    // bets of players\n    mapping(address => uint256) public bets;\n\n    // multipliers of players\n    mapping(address => uint256) public multipliers;\n\n    // mapping of player's address to requestId\n    mapping(address => bytes32) public addressToRequestId;\n\n    // mapping of requestId to the returned random number\n    mapping(bytes32 => uint256) public requestIdToRandomNumber;\n\n    // mapping to find the currency of players used for betting\n    mapping(address => Currency) public currency;\n\n    // sending random number for front-end\n    event RandomIsArrived(bytes32 requestId, uint256 randomNumber);\n\n    // sending request ID for front-end\n    event RequestIdIsCreated(address player, bytes32 requestId);\n\n    //-------------------------------------------------------------------------\n    // CONSTRUCTOR\n    //-------------------------------------------------------------------------\n\n    constructor(address LLTH_) VRFConsumerBase(VRFCoordinator, LINKToken) {\n        _LLTH = IERC20(LLTH_);\n        keyHash = 0x6e75b569a01ef56d18cab6a8e71e6600d6ce853834d4a5748b720d06f878b3a4;\n        fee = 0.0001 * 10**18; // 0.0001 LINK\n    }\n\n    //-------------------------------------------------------------------------\n    // VIEW FUNCTIONS\n    //-------------------------------------------------------------------------\n\n    function requestIdOf(address player) external view returns (bytes32) {\n        return addressToRequestId[player];\n    }\n\n    function getBalance() external view returns (uint256) {\n        return _LLTH.balanceOf(address(this));\n    }\n\n    function betOf(address player) external view returns (uint256) {\n        require(player != address(0));\n        return bets[player];\n    }\n\n    //-------------------------------------------------------------------------\n    // SET FUNCTIONS\n    //-------------------------------------------------------------------------\n\n    function setLLTH(address LLTH_) external onlyOwner {\n        _LLTH = IERC20(LLTH_);\n    }\n\n    function setMinMultiplier(uint256 minMultiplier_) external onlyOwner {\n        minMultiplier = minMultiplier_;\n    }\n\n    function setMaxMultiplier(uint256 maxMultiplier_) external onlyOwner {\n        maxMultiplier = maxMultiplier_;\n    }\n\n    //-------------------------------------------------------------------------\n    // RANDOM NUMBER FUNCTIONS\n    //-------------------------------------------------------------------------\n\n    function getRandomNumber(address player) internal {\n        require(LINK.balanceOf(address(this)) >= fee, \"Not enough LINK.\");\n        bytes32 requestId = requestRandomness(keyHash, fee);\n        addressToRequestId[player] = requestId;\n\n        emit RequestIdIsCreated(player, requestId);\n    }\n\n    function fulfillRandomness(bytes32 requestId, uint256 randomness)\n        internal\n        override\n    {\n        uint256 randomNumber = (randomness % (maxMultiplier - minMultiplier)) +\n            minMultiplier; // random number between 2 and 13\n        requestIdToRandomNumber[requestId] = randomNumber;\n\n        emit RandomIsArrived(requestId, randomNumber);\n    }\n\n    function getWinningMultiplier(address player)\n        public\n        view\n        returns (uint256)\n    {\n        require(\n            requestIdToRandomNumber[addressToRequestId[player]] > 1,\n            \"Random number must be between 2 and 13.\"\n        );\n        require(\n            requestIdToRandomNumber[addressToRequestId[player]] < 14,\n            \"Random number must be between 2 and 13.\"\n        );\n\n        return requestIdToRandomNumber[addressToRequestId[player]];\n    }\n\n    //-------------------------------------------------------------------------\n    // EXTERNAL FUNCTIONS\n    //-------------------------------------------------------------------------\n\n    // Called by front-end when placing bet. It saves player's data and tranfers their bet to this contract's address.\n    function placeBetInLLTH(uint256 bet, uint256 multiplier) external {\n        require(multiplier > 1, \"Multiplier must be between 2 and 13.\");\n        require(multiplier < 14, \"Multiplier must be between 2 and 13.\");\n        require(\n            _LLTH.balanceOf(address(msg.sender)) >= bet,\n            \"Not enough $LLTH token in your wallet.\"\n        );\n        require(\n            _LLTH.balanceOf(address(this)) >= bet.mul(multiplier),\n            \"Not enough $LLTH token in game's wallet.\"\n        );\n\n        _LLTH.transferFrom(msg.sender, address(this), bet);\n        getRandomNumber(msg.sender);\n        bets[msg.sender] = bet;\n        multipliers[msg.sender] = multiplier;\n        currency[msg.sender] = Currency.LLTH;\n    }\n\n    function placeBetInETH(uint256 multiplier) external payable {\n        require(multiplier > 1, \"Multiplier must be between 2 and 13.\");\n        require(multiplier < 14, \"Multiplier must be between 2 and 13.\");\n        require(\n            _LLTH.balanceOf(address(this)) >= msg.value.mul(multiplier),\n            \"Not enough $LLTH token in game's wallet.\"\n        );\n        //require(msg.value == 0.01 ether, \"Incorrect amount of ETH was sent.\");\n\n        getRandomNumber(msg.sender);\n        bets[msg.sender] = msg.value;\n        multipliers[msg.sender] = multiplier;\n        currency[msg.sender] = Currency.ETH;\n    }\n\n    function withdrawLLTH(uint256 amount) external onlyOwner {\n        require(\n            _LLTH.balanceOf(address(this)) >= amount,\n            \"Not enough $LLTH in game's wallet.\"\n        );\n\n        _LLTH.transfer(owner(), amount);\n    }\n\n    function withdrawETH(uint256 amount) external onlyOwner {\n        require(amount <= address(this).balance, \"Not enough ETH.\");\n        payable(msg.sender).transfer(amount);\n    }\n\n    // Transfers prize, resets mappings and array.\n    function closeRound(address player) external onlyOwner {\n        require(player != address(0), \"Address cannot be null.\");\n\n        if (multipliers[player] == getWinningMultiplier(player)) {\n            uint256 amount;\n            if (currency[player] == Currency.ETH) {\n                amount = getWinningMultiplier(msg.sender).mul(bets[player]);\n            } else {\n                amount = getWinningMultiplier(msg.sender)\n                    .mul(bets[player])\n                    .mul(15)\n                    .div(10);\n            }\n            require(\n                _LLTH.balanceOf(address(this)) >= amount,\n                \"Not enough $LLTH in game's wallet.\"\n            );\n            _LLTH.transfer(player, amount);\n        }\n\n        delete multipliers[player];\n        delete bets[player];\n        delete addressToRequestId[player];\n        delete currency[player];\n    }\n}\n",
  "sourcePath": "/home/levi/wheel_typescript/contracts/Wheel.sol",
  "compiler": {
    "name": "solc",
    "version": "0.8.7+commit.e28d00a7.Emscripten.clang"
  },
  "schemaVersion": "3.4.1",
  "updatedAt": "2021-10-22T21:16:54.384Z",
  "networkType": "ethereum",
  "devdoc": {
    "kind": "dev",
    "methods": {
      "owner()": {
        "details": "Returns the address of the current owner."
      },
      "renounceOwnership()": {
        "details": "Leaves the contract without owner. It will not be possible to call `onlyOwner` functions anymore. Can only be called by the current owner. NOTE: Renouncing ownership will leave the contract without an owner, thereby removing any functionality that is only available to the owner."
      },
      "transferOwnership(address)": {
        "details": "Transfers ownership of the contract to a new account (`newOwner`). Can only be called by the current owner."
      }
    },
    "version": 1
  },
  "userdoc": {
    "kind": "user",
    "methods": {},
    "version": 1
  }
}