{
  "contractName": "Wheel",
  "abi": [
    {
      "inputs": [
        {
          "internalType": "address",
          "name": "LLTH_",
          "type": "address"
        }
      ],
      "stateMutability": "nonpayable",
      "type": "constructor"
    },
    {
      "anonymous": false,
      "inputs": [
        {
          "indexed": true,
          "internalType": "address",
          "name": "previousOwner",
          "type": "address"
        },
        {
          "indexed": true,
          "internalType": "address",
          "name": "newOwner",
          "type": "address"
        }
      ],
      "name": "OwnershipTransferred",
      "type": "event"
    },
    {
      "anonymous": false,
      "inputs": [
        {
          "indexed": false,
          "internalType": "bytes32",
          "name": "requestId",
          "type": "bytes32"
        },
        {
          "indexed": false,
          "internalType": "uint256",
          "name": "randomNumber",
          "type": "uint256"
        }
      ],
      "name": "RandomIsArrived",
      "type": "event"
    },
    {
      "anonymous": false,
      "inputs": [
        {
          "indexed": false,
          "internalType": "address",
          "name": "player",
          "type": "address"
        },
        {
          "indexed": false,
          "internalType": "bytes32",
          "name": "requestId",
          "type": "bytes32"
        }
      ],
      "name": "RequestIdIsCreated",
      "type": "event"
    },
    {
      "inputs": [],
      "name": "LINKToken",
      "outputs": [
        {
          "internalType": "address",
          "name": "",
          "type": "address"
        }
      ],
      "stateMutability": "view",
      "type": "function",
      "constant": true
    },
    {
      "inputs": [],
      "name": "VRFCoordinator",
      "outputs": [
        {
          "internalType": "address",
          "name": "",
          "type": "address"
        }
      ],
      "stateMutability": "view",
      "type": "function",
      "constant": true
    },
    {
      "inputs": [
        {
          "internalType": "address",
          "name": "",
          "type": "address"
        }
      ],
      "name": "addressToRequestId",
      "outputs": [
        {
          "internalType": "bytes32",
          "name": "",
          "type": "bytes32"
        }
      ],
      "stateMutability": "view",
      "type": "function",
      "constant": true
    },
    {
      "inputs": [
        {
          "internalType": "address",
          "name": "",
          "type": "address"
        }
      ],
      "name": "bets",
      "outputs": [
        {
          "internalType": "uint256",
          "name": "",
          "type": "uint256"
        }
      ],
      "stateMutability": "view",
      "type": "function",
      "constant": true
    },
    {
      "inputs": [],
      "name": "fee",
      "outputs": [
        {
          "internalType": "uint256",
          "name": "",
          "type": "uint256"
        }
      ],
      "stateMutability": "view",
      "type": "function",
      "constant": true
    },
    {
      "inputs": [],
      "name": "keyHash",
      "outputs": [
        {
          "internalType": "bytes32",
          "name": "",
          "type": "bytes32"
        }
      ],
      "stateMutability": "view",
      "type": "function",
      "constant": true
    },
    {
      "inputs": [],
      "name": "maxMultiplier",
      "outputs": [
        {
          "internalType": "uint256",
          "name": "",
          "type": "uint256"
        }
      ],
      "stateMutability": "view",
      "type": "function",
      "constant": true
    },
    {
      "inputs": [],
      "name": "minMultiplier",
      "outputs": [
        {
          "internalType": "uint256",
          "name": "",
          "type": "uint256"
        }
      ],
      "stateMutability": "view",
      "type": "function",
      "constant": true
    },
    {
      "inputs": [
        {
          "internalType": "address",
          "name": "",
          "type": "address"
        }
      ],
      "name": "multipliers",
      "outputs": [
        {
          "internalType": "uint256",
          "name": "",
          "type": "uint256"
        }
      ],
      "stateMutability": "view",
      "type": "function",
      "constant": true
    },
    {
      "inputs": [],
      "name": "owner",
      "outputs": [
        {
          "internalType": "address",
          "name": "",
          "type": "address"
        }
      ],
      "stateMutability": "view",
      "type": "function",
      "constant": true
    },
    {
      "inputs": [
        {
          "internalType": "bytes32",
          "name": "requestId",
          "type": "bytes32"
        },
        {
          "internalType": "uint256",
          "name": "randomness",
          "type": "uint256"
        }
      ],
      "name": "rawFulfillRandomness",
      "outputs": [],
      "stateMutability": "nonpayable",
      "type": "function"
    },
    {
      "inputs": [],
      "name": "renounceOwnership",
      "outputs": [],
      "stateMutability": "nonpayable",
      "type": "function"
    },
    {
      "inputs": [
        {
          "internalType": "bytes32",
          "name": "",
          "type": "bytes32"
        }
      ],
      "name": "requestIdToRandomNumber",
      "outputs": [
        {
          "internalType": "uint256",
          "name": "",
          "type": "uint256"
        }
      ],
      "stateMutability": "view",
      "type": "function",
      "constant": true
    },
    {
      "inputs": [
        {
          "internalType": "address",
          "name": "newOwner",
          "type": "address"
        }
      ],
      "name": "transferOwnership",
      "outputs": [],
      "stateMutability": "nonpayable",
      "type": "function"
    },
    {
      "inputs": [
        {
          "internalType": "address",
          "name": "player",
          "type": "address"
        }
      ],
      "name": "requestIdOf",
      "outputs": [
        {
          "internalType": "bytes32",
          "name": "",
          "type": "bytes32"
        }
      ],
      "stateMutability": "view",
      "type": "function",
      "constant": true
    },
    {
      "inputs": [],
      "name": "getBalance",
      "outputs": [
        {
          "internalType": "uint256",
          "name": "",
          "type": "uint256"
        }
      ],
      "stateMutability": "view",
      "type": "function",
      "constant": true
    },
    {
      "inputs": [
        {
          "internalType": "address",
          "name": "player",
          "type": "address"
        }
      ],
      "name": "betOf",
      "outputs": [
        {
          "internalType": "uint256",
          "name": "",
          "type": "uint256"
        }
      ],
      "stateMutability": "view",
      "type": "function",
      "constant": true
    },
    {
      "inputs": [
        {
          "internalType": "address",
          "name": "LLTH_",
          "type": "address"
        }
      ],
      "name": "setLLTH",
      "outputs": [],
      "stateMutability": "nonpayable",
      "type": "function"
    },
    {
      "inputs": [
        {
          "internalType": "uint256",
          "name": "minMultiplier_",
          "type": "uint256"
        }
      ],
      "name": "setMinMultiplier",
      "outputs": [],
      "stateMutability": "nonpayable",
      "type": "function"
    },
    {
      "inputs": [
        {
          "internalType": "uint256",
          "name": "maxMultiplier_",
          "type": "uint256"
        }
      ],
      "name": "setMaxMultiplier",
      "outputs": [],
      "stateMutability": "nonpayable",
      "type": "function"
    },
    {
      "inputs": [
        {
          "internalType": "address",
          "name": "player",
          "type": "address"
        }
      ],
      "name": "getWinningMultiplier",
      "outputs": [
        {
          "internalType": "uint256",
          "name": "",
          "type": "uint256"
        }
      ],
      "stateMutability": "view",
      "type": "function",
      "constant": true
    },
    {
      "inputs": [
        {
          "internalType": "uint256",
          "name": "bet",
          "type": "uint256"
        },
        {
          "internalType": "uint256",
          "name": "multiplier",
          "type": "uint256"
        }
      ],
      "name": "placeBet",
      "outputs": [],
      "stateMutability": "nonpayable",
      "type": "function"
    },
    {
      "inputs": [
        {
          "internalType": "uint256",
          "name": "amount",
          "type": "uint256"
        }
      ],
      "name": "withdraw",
      "outputs": [],
      "stateMutability": "nonpayable",
      "type": "function"
    },
    {
      "inputs": [
        {
          "internalType": "address",
          "name": "player",
          "type": "address"
        }
      ],
      "name": "closeRound",
      "outputs": [],
      "stateMutability": "nonpayable",
      "type": "function"
    }
  ],
  "bytecode": "0x60c06040526002600355600d600455738c7382f9d8f56b33781fe506e897a4f1e2d17255600760006101000a81548173ffffffffffffffffffffffffffffffffffffffff021916908373ffffffffffffffffffffffffffffffffffffffff16021790555073326c977e6efc84e512bb9c30f76e30c160ed06fb600860006101000a81548173ffffffffffffffffffffffffffffffffffffffff021916908373ffffffffffffffffffffffffffffffffffffffff160217905550348015620000c557600080fd5b5060405162002ae238038062002ae28339818101604052810190620000eb919062000323565b600760009054906101000a900473ffffffffffffffffffffffffffffffffffffffff16600860009054906101000a900473ffffffffffffffffffffffffffffffffffffffff1662000151620001456200024060201b60201c565b6200024860201b60201c565b8173ffffffffffffffffffffffffffffffffffffffff1660a08173ffffffffffffffffffffffffffffffffffffffff1660601b815250508073ffffffffffffffffffffffffffffffffffffffff1660808173ffffffffffffffffffffffffffffffffffffffff1660601b81525050505080600260006101000a81548173ffffffffffffffffffffffffffffffffffffffff021916908373ffffffffffffffffffffffffffffffffffffffff1602179055507f6e75b569a01ef56d18cab6a8e71e6600d6ce853834d4a5748b720d06f878b3a460001b600681905550655af3107a400060058190555050620003a8565b600033905090565b60008060009054906101000a900473ffffffffffffffffffffffffffffffffffffffff169050816000806101000a81548173ffffffffffffffffffffffffffffffffffffffff021916908373ffffffffffffffffffffffffffffffffffffffff1602179055508173ffffffffffffffffffffffffffffffffffffffff168173ffffffffffffffffffffffffffffffffffffffff167f8be0079c531659141344cd1fd0a4f28419497f9722a3daafe3b4186f6b6457e060405160405180910390a35050565b6000815190506200031d816200038e565b92915050565b6000602082840312156200033c576200033b62000389565b5b60006200034c848285016200030c565b91505092915050565b6000620003628262000369565b9050919050565b600073ffffffffffffffffffffffffffffffffffffffff82169050919050565b600080fd5b620003998162000355565b8114620003a557600080fd5b50565b60805160601c60a05160601c612700620003e2600039600081816113c50152611963015260008181611662015261192701526127006000f3fe608060405234801561001057600080fd5b50600436106101585760003560e01c8063715018a6116100c35780639fd751c71161007c5780639fd751c7146103c5578063a24e0d87146103e1578063ac524f3d146103ff578063ddca3f431461042f578063f2fde38b1461044d578063f4e9775d1461046957610158565b8063715018a6146103055780637c7778061461030f57806389a78f1a1461032b5780638da5cb5b1461035b57806394985ddd146103795780639bef92001461039557610158565b80634afe62b5116101155780634afe62b51461021f5780635017efb61461023b578063507953991461026b5780635ae467741461029b57806361728f39146102cb57806368258f49146102e957610158565b806301526a431461015d5780630187aea01461017957806312065fe0146101975780632e1a7d4d146101b557806333b60863146101d15780634288d759146101ef575b600080fd5b61017760048036038101906101729190611c23565b610487565b005b61018161050d565b60405161018e9190612186565b60405180910390f35b61019f610513565b6040516101ac9190612186565b60405180910390f35b6101cf60048036038101906101ca9190611c23565b6105c5565b005b6101d96107e8565b6040516101e69190611edb565b60405180910390f35b61020960048036038101906102049190611b5c565b61080e565b6040516102169190612186565b60405180910390f35b61023960048036038101906102349190611c7d565b610890565b005b61025560048036038101906102509190611b5c565b610c49565b6040516102629190611fbd565b60405180910390f35b61028560048036038101906102809190611b5c565b610c61565b6040516102929190612186565b60405180910390f35b6102b560048036038101906102b09190611b5c565b610de7565b6040516102c29190611fbd565b60405180910390f35b6102d3610e30565b6040516102e09190611fbd565b60405180910390f35b61030360048036038101906102fe9190611b5c565b610e36565b005b61030d61123a565b005b61032960048036038101906103249190611b5c565b6112c2565b005b61034560048036038101906103409190611b5c565b611382565b6040516103529190612186565b60405180910390f35b61036361139a565b6040516103709190611edb565b60405180910390f35b610393600480360381019061038e9190611be3565b6113c3565b005b6103af60048036038101906103aa9190611bb6565b61145f565b6040516103bc9190612186565b60405180910390f35b6103df60048036038101906103da9190611c23565b611477565b005b6103e96114fd565b6040516103f69190612186565b60405180910390f35b61041960048036038101906104149190611b5c565b611503565b6040516104269190612186565b60405180910390f35b61043761151b565b6040516104449190612186565b60405180910390f35b61046760048036038101906104629190611b5c565b611521565b005b610471611619565b60405161047e9190611edb565b60405180910390f35b61048f61163f565b73ffffffffffffffffffffffffffffffffffffffff166104ad61139a565b73ffffffffffffffffffffffffffffffffffffffff1614610503576040517f08c379a00000000000000000000000000000000000000000000000000000000081526004016104fa90612106565b60405180910390fd5b8060048190555050565b60045481565b6000600260009054906101000a900473ffffffffffffffffffffffffffffffffffffffff1673ffffffffffffffffffffffffffffffffffffffff166370a08231306040518263ffffffff1660e01b81526004016105709190611edb565b60206040518083038186803b15801561058857600080fd5b505afa15801561059c573d6000803e3d6000fd5b505050506040513d601f19601f820116820180604052508101906105c09190611c50565b905090565b6105cd61163f565b73ffffffffffffffffffffffffffffffffffffffff166105eb61139a565b73ffffffffffffffffffffffffffffffffffffffff1614610641576040517f08c379a000000000000000000000000000000000000000000000000000000000815260040161063890612106565b60405180910390fd5b80600260009054906101000a900473ffffffffffffffffffffffffffffffffffffffff1673ffffffffffffffffffffffffffffffffffffffff166370a08231306040518263ffffffff1660e01b815260040161069d9190611edb565b60206040518083038186803b1580156106b557600080fd5b505afa1580156106c9573d6000803e3d6000fd5b505050506040513d601f19601f820116820180604052508101906106ed9190611c50565b101561072e576040517f08c379a0000000000000000000000000000000000000000000000000000000008152600401610725906120a6565b60405180910390fd5b600260009054906101000a900473ffffffffffffffffffffffffffffffffffffffff1673ffffffffffffffffffffffffffffffffffffffff1663a9059cbb61077461139a565b836040518363ffffffff1660e01b8152600401610792929190611f56565b602060405180830381600087803b1580156107ac57600080fd5b505af11580156107c0573d6000803e3d6000fd5b505050506040513d601f19601f820116820180604052508101906107e49190611b89565b5050565b600760009054906101000a900473ffffffffffffffffffffffffffffffffffffffff1681565b60008073ffffffffffffffffffffffffffffffffffffffff168273ffffffffffffffffffffffffffffffffffffffff16141561084957600080fd5b600960008373ffffffffffffffffffffffffffffffffffffffff1673ffffffffffffffffffffffffffffffffffffffff168152602001908152602001600020549050919050565b600181116108d3576040517f08c379a00000000000000000000000000000000000000000000000000000000081526004016108ca90612066565b60405180910390fd5b600e8110610916576040517f08c379a000000000000000000000000000000000000000000000000000000000815260040161090d90612066565b60405180910390fd5b81600260009054906101000a900473ffffffffffffffffffffffffffffffffffffffff1673ffffffffffffffffffffffffffffffffffffffff166370a08231336040518263ffffffff1660e01b81526004016109729190611edb565b60206040518083038186803b15801561098a57600080fd5b505afa15801561099e573d6000803e3d6000fd5b505050506040513d601f19601f820116820180604052508101906109c29190611c50565b1015610a03576040517f08c379a00000000000000000000000000000000000000000000000000000000081526004016109fa906120e6565b60405180910390fd5b610a16818361164790919063ffffffff16565b600260009054906101000a900473ffffffffffffffffffffffffffffffffffffffff1673ffffffffffffffffffffffffffffffffffffffff166370a08231306040518263ffffffff1660e01b8152600401610a719190611edb565b60206040518083038186803b158015610a8957600080fd5b505afa158015610a9d573d6000803e3d6000fd5b505050506040513d601f19601f82011682018060405250810190610ac19190611c50565b1015610b02576040517f08c379a0000000000000000000000000000000000000000000000000000000008152600401610af990612046565b60405180910390fd5b600260009054906101000a900473ffffffffffffffffffffffffffffffffffffffff1673ffffffffffffffffffffffffffffffffffffffff166323b872dd3330856040518463ffffffff1660e01b8152600401610b6193929190611ef6565b602060405180830381600087803b158015610b7b57600080fd5b505af1158015610b8f573d6000803e3d6000fd5b505050506040513d601f19601f82011682018060405250810190610bb39190611b89565b50610bbd3361165d565b81600960003373ffffffffffffffffffffffffffffffffffffffff1673ffffffffffffffffffffffffffffffffffffffff1681526020019081526020016000208190555080600a60003373ffffffffffffffffffffffffffffffffffffffff1673ffffffffffffffffffffffffffffffffffffffff168152602001908152602001600020819055505050565b600b6020528060005260406000206000915090505481565b60006001600c6000600b60008673ffffffffffffffffffffffffffffffffffffffff1673ffffffffffffffffffffffffffffffffffffffff1681526020019081526020016000205481526020019081526020016000205411610cf8576040517f08c379a0000000000000000000000000000000000000000000000000000000008152600401610cef90612166565b60405180910390fd5b600e600c6000600b60008673ffffffffffffffffffffffffffffffffffffffff1673ffffffffffffffffffffffffffffffffffffffff1681526020019081526020016000205481526020019081526020016000205410610d8d576040517f08c379a0000000000000000000000000000000000000000000000000000000008152600401610d8490612166565b60405180910390fd5b600c6000600b60008573ffffffffffffffffffffffffffffffffffffffff1673ffffffffffffffffffffffffffffffffffffffff168152602001908152602001600020548152602001908152602001600020549050919050565b6000600b60008373ffffffffffffffffffffffffffffffffffffffff1673ffffffffffffffffffffffffffffffffffffffff168152602001908152602001600020549050919050565b60065481565b610e3e61163f565b73ffffffffffffffffffffffffffffffffffffffff16610e5c61139a565b73ffffffffffffffffffffffffffffffffffffffff1614610eb2576040517f08c379a0000000000000000000000000000000000000000000000000000000008152600401610ea990612106565b60405180910390fd5b600073ffffffffffffffffffffffffffffffffffffffff168173ffffffffffffffffffffffffffffffffffffffff161415610f22576040517f08c379a0000000000000000000000000000000000000000000000000000000008152600401610f19906120c6565b60405180910390fd5b610f2b81610c61565b600a60008373ffffffffffffffffffffffffffffffffffffffff1673ffffffffffffffffffffffffffffffffffffffff16815260200190815260200160002054141561116e576000610fcd600960008473ffffffffffffffffffffffffffffffffffffffff1673ffffffffffffffffffffffffffffffffffffffff16815260200190815260200160002054610fbf33610c61565b61164790919063ffffffff16565b905080600260009054906101000a900473ffffffffffffffffffffffffffffffffffffffff1673ffffffffffffffffffffffffffffffffffffffff166370a08231306040518263ffffffff1660e01b815260040161102b9190611edb565b60206040518083038186803b15801561104357600080fd5b505afa158015611057573d6000803e3d6000fd5b505050506040513d601f19601f8201168201806040525081019061107b9190611c50565b10156110bc576040517f08c379a00000000000000000000000000000000000000000000000000000000081526004016110b3906120a6565b60405180910390fd5b600260009054906101000a900473ffffffffffffffffffffffffffffffffffffffff1673ffffffffffffffffffffffffffffffffffffffff1663a9059cbb83836040518363ffffffff1660e01b8152600401611119929190611f56565b602060405180830381600087803b15801561113357600080fd5b505af1158015611147573d6000803e3d6000fd5b505050506040513d601f19601f8201168201806040525081019061116b9190611b89565b50505b600a60008273ffffffffffffffffffffffffffffffffffffffff1673ffffffffffffffffffffffffffffffffffffffff16815260200190815260200160002060009055600960008273ffffffffffffffffffffffffffffffffffffffff1673ffffffffffffffffffffffffffffffffffffffff16815260200190815260200160002060009055600b60008273ffffffffffffffffffffffffffffffffffffffff1673ffffffffffffffffffffffffffffffffffffffff1681526020019081526020016000206000905550565b61124261163f565b73ffffffffffffffffffffffffffffffffffffffff1661126061139a565b73ffffffffffffffffffffffffffffffffffffffff16146112b6576040517f08c379a00000000000000000000000000000000000000000000000000000000081526004016112ad90612106565b60405180910390fd5b6112c060006117dd565b565b6112ca61163f565b73ffffffffffffffffffffffffffffffffffffffff166112e861139a565b73ffffffffffffffffffffffffffffffffffffffff161461133e576040517f08c379a000000000000000000000000000000000000000000000000000000000815260040161133590612106565b60405180910390fd5b80600260006101000a81548173ffffffffffffffffffffffffffffffffffffffff021916908373ffffffffffffffffffffffffffffffffffffffff16021790555050565b60096020528060005260406000206000915090505481565b60008060009054906101000a900473ffffffffffffffffffffffffffffffffffffffff16905090565b7f000000000000000000000000000000000000000000000000000000000000000073ffffffffffffffffffffffffffffffffffffffff163373ffffffffffffffffffffffffffffffffffffffff1614611451576040517f08c379a000000000000000000000000000000000000000000000000000000000815260040161144890612126565b60405180910390fd5b61145b82826118a1565b5050565b600c6020528060005260406000206000915090505481565b61147f61163f565b73ffffffffffffffffffffffffffffffffffffffff1661149d61139a565b73ffffffffffffffffffffffffffffffffffffffff16146114f3576040517f08c379a00000000000000000000000000000000000000000000000000000000081526004016114ea90612106565b60405180910390fd5b8060038190555050565b60035481565b600a6020528060005260406000206000915090505481565b60055481565b61152961163f565b73ffffffffffffffffffffffffffffffffffffffff1661154761139a565b73ffffffffffffffffffffffffffffffffffffffff161461159d576040517f08c379a000000000000000000000000000000000000000000000000000000000815260040161159490612106565b60405180910390fd5b600073ffffffffffffffffffffffffffffffffffffffff168173ffffffffffffffffffffffffffffffffffffffff16141561160d576040517f08c379a000000000000000000000000000000000000000000000000000000000815260040161160490612086565b60405180910390fd5b611616816117dd565b50565b600860009054906101000a900473ffffffffffffffffffffffffffffffffffffffff1681565b600033905090565b600081836116559190612224565b905092915050565b6005547f000000000000000000000000000000000000000000000000000000000000000073ffffffffffffffffffffffffffffffffffffffff166370a08231306040518263ffffffff1660e01b81526004016116b99190611edb565b60206040518083038186803b1580156116d157600080fd5b505afa1580156116e5573d6000803e3d6000fd5b505050506040513d601f19601f820116820180604052508101906117099190611c50565b101561174a576040517f08c379a000000000000000000000000000000000000000000000000000000000815260040161174190612146565b60405180910390fd5b600061175a600654600554611923565b905080600b60008473ffffffffffffffffffffffffffffffffffffffff1673ffffffffffffffffffffffffffffffffffffffff168152602001908152602001600020819055507faede8a84bd70912adc412a1c86f3aa87a32e75e15b66e8d2c6139982e127777682826040516117d1929190611f2d565b60405180910390a15050565b60008060009054906101000a900473ffffffffffffffffffffffffffffffffffffffff169050816000806101000a81548173ffffffffffffffffffffffffffffffffffffffff021916908373ffffffffffffffffffffffffffffffffffffffff1602179055508173ffffffffffffffffffffffffffffffffffffffff168173ffffffffffffffffffffffffffffffffffffffff167f8be0079c531659141344cd1fd0a4f28419497f9722a3daafe3b4186f6b6457e060405160405180910390a35050565b60006003546003546004546118b6919061227e565b836118c1919061234b565b6118cb91906121ce565b905080600c6000858152602001908152602001600020819055507f487bf13e5d88ca8eb4a14e229b6ad3371c9627c7a096e6e416d556ac33a7da4c8382604051611916929190611fd8565b60405180910390a1505050565b60007f000000000000000000000000000000000000000000000000000000000000000073ffffffffffffffffffffffffffffffffffffffff16634000aea07f000000000000000000000000000000000000000000000000000000000000000084866000604051602001611997929190611fd8565b6040516020818303038152906040526040518463ffffffff1660e01b81526004016119c493929190611f7f565b602060405180830381600087803b1580156119de57600080fd5b505af11580156119f2573d6000803e3d6000fd5b505050506040513d601f19601f82011682018060405250810190611a169190611b89565b506000611a39846000306001600089815260200190815260200160002054611a84565b9050600180600086815260200190815260200160002054611a5a91906121ce565b6001600086815260200190815260200160002081905550611a7b8482611ac0565b91505092915050565b600084848484604051602001611a9d9493929190612001565b6040516020818303038152906040528051906020012060001c9050949350505050565b60008282604051602001611ad5929190611eaf565b60405160208183030381529060405280519060200120905092915050565b600081359050611b028161266e565b92915050565b600081519050611b1781612685565b92915050565b600081359050611b2c8161269c565b92915050565b600081359050611b41816126b3565b92915050565b600081519050611b56816126b3565b92915050565b600060208284031215611b7257611b716123da565b5b6000611b8084828501611af3565b91505092915050565b600060208284031215611b9f57611b9e6123da565b5b6000611bad84828501611b08565b91505092915050565b600060208284031215611bcc57611bcb6123da565b5b6000611bda84828501611b1d565b91505092915050565b60008060408385031215611bfa57611bf96123da565b5b6000611c0885828601611b1d565b9250506020611c1985828601611b32565b9150509250929050565b600060208284031215611c3957611c386123da565b5b6000611c4784828501611b32565b91505092915050565b600060208284031215611c6657611c656123da565b5b6000611c7484828501611b47565b91505092915050565b60008060408385031215611c9457611c936123da565b5b6000611ca285828601611b32565b9250506020611cb385828601611b32565b9150509250929050565b611cc6816122b2565b82525050565b611cd5816122d0565b82525050565b611cec611ce7826122d0565b612337565b82525050565b6000611cfd826121a1565b611d0781856121ac565b9350611d17818560208601612304565b611d20816123df565b840191505092915050565b6000611d386028836121bd565b9150611d43826123f0565b604082019050919050565b6000611d5b6024836121bd565b9150611d668261243f565b604082019050919050565b6000611d7e6026836121bd565b9150611d898261248e565b604082019050919050565b6000611da16022836121bd565b9150611dac826124dd565b604082019050919050565b6000611dc46017836121bd565b9150611dcf8261252c565b602082019050919050565b6000611de76026836121bd565b9150611df282612555565b604082019050919050565b6000611e0a6020836121bd565b9150611e15826125a4565b602082019050919050565b6000611e2d601f836121bd565b9150611e38826125cd565b602082019050919050565b6000611e506010836121bd565b9150611e5b826125f6565b602082019050919050565b6000611e736027836121bd565b9150611e7e8261261f565b604082019050919050565b611e92816122fa565b82525050565b611ea9611ea4826122fa565b612341565b82525050565b6000611ebb8285611cdb565b602082019150611ecb8284611e98565b6020820191508190509392505050565b6000602082019050611ef06000830184611cbd565b92915050565b6000606082019050611f0b6000830186611cbd565b611f186020830185611cbd565b611f256040830184611e89565b949350505050565b6000604082019050611f426000830185611cbd565b611f4f6020830184611ccc565b9392505050565b6000604082019050611f6b6000830185611cbd565b611f786020830184611e89565b9392505050565b6000606082019050611f946000830186611cbd565b611fa16020830185611e89565b8181036040830152611fb38184611cf2565b9050949350505050565b6000602082019050611fd26000830184611ccc565b92915050565b6000604082019050611fed6000830185611ccc565b611ffa6020830184611e89565b9392505050565b60006080820190506120166000830187611ccc565b6120236020830186611e89565b6120306040830185611cbd565b61203d6060830184611e89565b95945050505050565b6000602082019050818103600083015261205f81611d2b565b9050919050565b6000602082019050818103600083015261207f81611d4e565b9050919050565b6000602082019050818103600083015261209f81611d71565b9050919050565b600060208201905081810360008301526120bf81611d94565b9050919050565b600060208201905081810360008301526120df81611db7565b9050919050565b600060208201905081810360008301526120ff81611dda565b9050919050565b6000602082019050818103600083015261211f81611dfd565b9050919050565b6000602082019050818103600083015261213f81611e20565b9050919050565b6000602082019050818103600083015261215f81611e43565b9050919050565b6000602082019050818103600083015261217f81611e66565b9050919050565b600060208201905061219b6000830184611e89565b92915050565b600081519050919050565b600082825260208201905092915050565b600082825260208201905092915050565b60006121d9826122fa565b91506121e4836122fa565b9250827fffffffffffffffffffffffffffffffffffffffffffffffffffffffffffffffff038211156122195761221861237c565b5b828201905092915050565b600061222f826122fa565b915061223a836122fa565b9250817fffffffffffffffffffffffffffffffffffffffffffffffffffffffffffffffff04831182151516156122735761227261237c565b5b828202905092915050565b6000612289826122fa565b9150612294836122fa565b9250828210156122a7576122a661237c565b5b828203905092915050565b60006122bd826122da565b9050919050565b60008115159050919050565b6000819050919050565b600073ffffffffffffffffffffffffffffffffffffffff82169050919050565b6000819050919050565b60005b83811015612322578082015181840152602081019050612307565b83811115612331576000848401525b50505050565b6000819050919050565b6000819050919050565b6000612356826122fa565b9150612361836122fa565b925082612371576123706123ab565b5b828206905092915050565b7f4e487b7100000000000000000000000000000000000000000000000000000000600052601160045260246000fd5b7f4e487b7100000000000000000000000000000000000000000000000000000000600052601260045260246000fd5b600080fd5b6000601f19601f8301169050919050565b7f4e6f7420656e6f75676820244c4c544820746f6b656e20696e2067616d65277360008201527f2077616c6c65742e000000000000000000000000000000000000000000000000602082015250565b7f4d756c7469706c696572206d757374206265206265747765656e203220616e6460008201527f2031332e00000000000000000000000000000000000000000000000000000000602082015250565b7f4f776e61626c653a206e6577206f776e657220697320746865207a65726f206160008201527f6464726573730000000000000000000000000000000000000000000000000000602082015250565b7f4e6f7420656e6f75676820244c4c544820696e2067616d6527732077616c6c6560008201527f742e000000000000000000000000000000000000000000000000000000000000602082015250565b7f416464726573732063616e6e6f74206265206e756c6c2e000000000000000000600082015250565b7f4e6f7420656e6f75676820244c4c544820746f6b656e20696e20796f7572207760008201527f616c6c65742e0000000000000000000000000000000000000000000000000000602082015250565b7f4f776e61626c653a2063616c6c6572206973206e6f7420746865206f776e6572600082015250565b7f4f6e6c7920565246436f6f7264696e61746f722063616e2066756c66696c6c00600082015250565b7f4e6f7420656e6f756768204c494e4b2e00000000000000000000000000000000600082015250565b7f52616e646f6d206e756d626572206d757374206265206265747765656e20322060008201527f616e642031332e00000000000000000000000000000000000000000000000000602082015250565b612677816122b2565b811461268257600080fd5b50565b61268e816122c4565b811461269957600080fd5b50565b6126a5816122d0565b81146126b057600080fd5b50565b6126bc816122fa565b81146126c757600080fd5b5056fea26469706673582212208e72d661e5f00b90d977b3c9600aaf260d582c9e48de152f3371c75aa3bf764464736f6c63430008070033",
  "immutableReferences": {
    "73": [
      {
        "length": 32,
        "start": 5730
      },
      {
        "length": 32,
        "start": 6439
      }
    ],
    "75": [
      {
        "length": 32,
        "start": 5061
      },
      {
        "length": 32,
        "start": 6499
      }
    ]
  },
  "source": "/**\n *   _____________   _______ _____ ___________ ________  ________ _   _ ______\n *  /  __ | ___ \\ \\ / | ___ |_   _|  _  |  _  |  ___|  \\/  |  _  | \\ | |___  /\n *  | /  \\| |_/ /\\ V /| |_/ / | | | | | | | | | |__ |      | | | |  \\| |  / / \n *  | |   |    /  \\ / |  __/  | | | | | | | | |  __|| |\\/| | | | |     | / /  \n *  \\ \\__/| |\\ \\  | | | |     | | \\ \\_/ | |/ /| |___| |  | \\ \\_/ | |\\  |/ /___\n *   \\____\\_| \\_| \\_/ \\_|     \\_/  \\___/|___/ \\____/\\_|  |_/\\___/\\_| \\_\\_____/\n *                                                                          \n *                                                                           \n *  #CryptoDemonz, Wheel of Fortune\n *\n *  It's a wheel with 12 segments, each segment defines a multiplier like 2x, 3x, , 12x, 13x. \n *  The player can place a bet and has to figure out which multiplier will be the result when the wheel is stopped. \n *  After betting, the wheel starts spinning and spinning, then it stops. \n *  Anyone who successfully figured out the winning multiplier where the wheels stopped, \n *  gets the prize: bet amount x winning multiplier. Otherwise, the player loses their bet.\n *\n */\n\n// SPDX-License-Identifier: MIT\npragma solidity ^0.8.7;\n\nimport \"@openzeppelin/contracts/token/ERC20/IERC20.sol\";\nimport \"@openzeppelin/contracts/token/ERC20/utils/SafeERC20.sol\";\nimport \"@openzeppelin/contracts/utils/Address.sol\";\nimport \"@openzeppelin/contracts/access/Ownable.sol\";\nimport \"@openzeppelin/contracts/utils/math/SafeMath.sol\";\nimport \"@chainlink/contracts/src/v0.8/VRFConsumerBase.sol\";\n\n\ncontract Wheel is Ownable, VRFConsumerBase {\n\n    using SafeMath for uint256;\n    using Address for address;\n \n\n    // instance of $LLTH token\n    IERC20 internal _LLTH; \n\n\n    // minimum value of the wheel segment multiplier\n    uint256 public minMultiplier = 2;\n\n    // maximum value of the wheel segment multiplier \n    uint256 public maxMultiplier = 13;\n\n    // fee required to fulfill a VRF request\n    uint256 public fee;\n \n\n    // public key against which randomness is generated\n    bytes32 public keyHash;\n\n\n    // the address of the smart contract which verifies if the numbers returned from Chainlink are actually random\n    address public VRFCoordinator = 0x8C7382F9D8f56b33781fE506E897a4F1e2d17255;\n\n    // LINK token's address\n    address public LINKToken = 0x326C977E6efc84E512bB9C30f76E30c160eD06FB;\n\n\n    // bets of players\n    mapping(address => uint256) public bets; \n\n    // multipliers of players\n    mapping(address => uint256) public multipliers; \n\n    // mapping of player's address to requestId \n    mapping(address => bytes32) public addressToRequestId; \n\n    // mapping of requestId to the returned random number\n    mapping(bytes32 => uint256) public requestIdToRandomNumber;\n\n    \n    // sending random number for front-end\n    event RandomIsArrived(bytes32 requestId, uint256 randomNumber);\n    \n    // sending request ID for front-end\n    event RequestIdIsCreated(address player, bytes32 requestId);\n\n\n\n    //-------------------------------------------------------------------------\n    // CONSTRUCTOR\n    //-------------------------------------------------------------------------\n\n    constructor(address LLTH_) VRFConsumerBase(VRFCoordinator, LINKToken) {\n        _LLTH = IERC20(LLTH_);\n        keyHash = 0x6e75b569a01ef56d18cab6a8e71e6600d6ce853834d4a5748b720d06f878b3a4;\n        fee = 0.0001 * 10 ** 18; // 0.0001 LINK\n    }\n\n\n    //-------------------------------------------------------------------------\n    // VIEW FUNCTIONS\n    //-------------------------------------------------------------------------\n    \n    function requestIdOf(address player) external view returns(bytes32) {\n        return addressToRequestId[player];\n    }\n\n    function getBalance() external view returns(uint256) {\n        return _LLTH.balanceOf(address(this));\n    }\n\n    function betOf(address player) external view returns(uint256) {\n        require(player != address(0));\n        return bets[player];\n    }\n\n\n    //-------------------------------------------------------------------------\n    // SET FUNCTIONS\n    //-------------------------------------------------------------------------\n\n    function setLLTH(address LLTH_) external onlyOwner() {\n        _LLTH = IERC20(LLTH_);\n    }\n\n    function setMinMultiplier(uint256 minMultiplier_) external onlyOwner() {\n        minMultiplier = minMultiplier_;\n    }\n\n    function setMaxMultiplier(uint256 maxMultiplier_) external onlyOwner() {\n        maxMultiplier = maxMultiplier_;\n    }\n  \n  \n    //-------------------------------------------------------------------------\n    // RANDOM NUMBER FUNCTIONS \n    //-------------------------------------------------------------------------\n       \n    function getRandomNumber(address player) internal {\n        require(LINK.balanceOf(address(this)) >= fee, \"Not enough LINK.\");\n        bytes32 requestId = requestRandomness(keyHash, fee);\n        addressToRequestId[player] = requestId;\n        \n        emit RequestIdIsCreated(player, requestId);\n    }\n\n    function fulfillRandomness(bytes32 requestId, uint256 randomness) internal override {\n        uint256 randomNumber = (randomness % (maxMultiplier-minMultiplier)) + minMultiplier; // random number between 2 and 13\n        requestIdToRandomNumber[requestId] = randomNumber;\n        \n        emit RandomIsArrived(requestId, randomNumber);\n    }\n\n    function getWinningMultiplier(address player) public view returns(uint256) {\n        require(requestIdToRandomNumber[addressToRequestId[player]] > 1, \"Random number must be between 2 and 13.\");\n        require(requestIdToRandomNumber[addressToRequestId[player]] < 14, \"Random number must be between 2 and 13.\");\n        \n        return requestIdToRandomNumber[addressToRequestId[player]];\n    }\n \n\n    //-------------------------------------------------------------------------\n    // EXTERNAL FUNCTIONS \n    //-------------------------------------------------------------------------\n\n    // Called by front-end when placing bet. It saves player's data and tranfers their bet to this contract's address. \n    function placeBet(uint256 bet, uint256 multiplier) external {\n        require(multiplier > 1, \"Multiplier must be between 2 and 13.\");\n        require(multiplier < 14, \"Multiplier must be between 2 and 13.\");\n        require(_LLTH.balanceOf(address(msg.sender)) >= bet, \"Not enough $LLTH token in your wallet.\");\n        require(_LLTH.balanceOf(address(this)) >= bet.mul(multiplier), \"Not enough $LLTH token in game's wallet.\");\n        \n        _LLTH.transferFrom(msg.sender, address(this), bet);\n        getRandomNumber(msg.sender);    \n        bets[msg.sender] = bet;\n        multipliers[msg.sender] = multiplier;\n    }\n\n    function withdraw(uint256 amount) external onlyOwner() {\n        require(_LLTH.balanceOf(address(this)) >= amount, \"Not enough $LLTH in game's wallet.\");\n\n        _LLTH.transfer(owner(), amount);\n    }\n\n     // Transfers prize, resets mappings and array.\n    function closeRound(address player) external onlyOwner() {\n        require(player != address(0), \"Address cannot be null.\");\n\n        if (multipliers[player] == getWinningMultiplier(player)) {\n            uint256 amount = getWinningMultiplier(msg.sender).mul(bets[player]);\n            require(_LLTH.balanceOf(address(this)) >= amount, \"Not enough $LLTH in game's wallet.\");\n            _LLTH.transfer(player, amount);\n        }\n\n        delete multipliers[player];\n        delete bets[player];\n        delete addressToRequestId[player];\n    }\n\n}",
  "sourcePath": "/home/levi/wheel_typescript/contracts/Wheel.sol",
  "compiler": {
    "name": "solc",
    "version": "0.8.7+commit.e28d00a7.Emscripten.clang"
  },
  "schemaVersion": "3.4.1",
  "updatedAt": "2021-10-08T22:25:07.451Z",
  "networkType": "ethereum",
  "devdoc": {
    "kind": "dev",
    "methods": {
      "owner()": {
        "details": "Returns the address of the current owner."
      },
      "renounceOwnership()": {
        "details": "Leaves the contract without owner. It will not be possible to call `onlyOwner` functions anymore. Can only be called by the current owner. NOTE: Renouncing ownership will leave the contract without an owner, thereby removing any functionality that is only available to the owner."
      },
      "transferOwnership(address)": {
        "details": "Transfers ownership of the contract to a new account (`newOwner`). Can only be called by the current owner."
      }
    },
    "version": 1
  },
  "userdoc": {
    "kind": "user",
    "methods": {},
    "version": 1
  }
}