{
  "contractName": "Wheel",
  "abi": [
    {
      "inputs": [
        {
          "internalType": "address",
          "name": "LLTH_",
          "type": "address"
        }
      ],
      "stateMutability": "nonpayable",
      "type": "constructor"
    },
    {
      "anonymous": false,
      "inputs": [
        {
          "indexed": true,
          "internalType": "address",
          "name": "previousOwner",
          "type": "address"
        },
        {
          "indexed": true,
          "internalType": "address",
          "name": "newOwner",
          "type": "address"
        }
      ],
      "name": "OwnershipTransferred",
      "type": "event"
    },
    {
      "anonymous": false,
      "inputs": [
        {
          "indexed": false,
          "internalType": "bytes32",
          "name": "requestId",
          "type": "bytes32"
        },
        {
          "indexed": false,
          "internalType": "uint256",
          "name": "randomNumber",
          "type": "uint256"
        }
      ],
      "name": "RandomIsArrived",
      "type": "event"
    },
    {
      "anonymous": false,
      "inputs": [
        {
          "indexed": false,
          "internalType": "address",
          "name": "player",
          "type": "address"
        },
        {
          "indexed": false,
          "internalType": "bytes32",
          "name": "requestId",
          "type": "bytes32"
        }
      ],
      "name": "RequestIdIsCreated",
      "type": "event"
    },
    {
      "inputs": [],
      "name": "LINKToken",
      "outputs": [
        {
          "internalType": "address",
          "name": "",
          "type": "address"
        }
      ],
      "stateMutability": "view",
      "type": "function",
      "constant": true
    },
    {
      "inputs": [],
      "name": "VRFCoordinator",
      "outputs": [
        {
          "internalType": "address",
          "name": "",
          "type": "address"
        }
      ],
      "stateMutability": "view",
      "type": "function",
      "constant": true
    },
    {
      "inputs": [
        {
          "internalType": "address",
          "name": "",
          "type": "address"
        }
      ],
      "name": "addressToRequestId",
      "outputs": [
        {
          "internalType": "bytes32",
          "name": "",
          "type": "bytes32"
        }
      ],
      "stateMutability": "view",
      "type": "function",
      "constant": true
    },
    {
      "inputs": [
        {
          "internalType": "address",
          "name": "",
          "type": "address"
        }
      ],
      "name": "bets",
      "outputs": [
        {
          "internalType": "uint256",
          "name": "",
          "type": "uint256"
        }
      ],
      "stateMutability": "view",
      "type": "function",
      "constant": true
    },
    {
      "inputs": [],
      "name": "fee",
      "outputs": [
        {
          "internalType": "uint256",
          "name": "",
          "type": "uint256"
        }
      ],
      "stateMutability": "view",
      "type": "function",
      "constant": true
    },
    {
      "inputs": [],
      "name": "keyHash",
      "outputs": [
        {
          "internalType": "bytes32",
          "name": "",
          "type": "bytes32"
        }
      ],
      "stateMutability": "view",
      "type": "function",
      "constant": true
    },
    {
      "inputs": [],
      "name": "maxBet",
      "outputs": [
        {
          "internalType": "uint256",
          "name": "",
          "type": "uint256"
        }
      ],
      "stateMutability": "view",
      "type": "function",
      "constant": true
    },
    {
      "inputs": [],
      "name": "maxMultiplier",
      "outputs": [
        {
          "internalType": "uint256",
          "name": "",
          "type": "uint256"
        }
      ],
      "stateMutability": "view",
      "type": "function",
      "constant": true
    },
    {
      "inputs": [],
      "name": "minMultiplier",
      "outputs": [
        {
          "internalType": "uint256",
          "name": "",
          "type": "uint256"
        }
      ],
      "stateMutability": "view",
      "type": "function",
      "constant": true
    },
    {
      "inputs": [
        {
          "internalType": "address",
          "name": "",
          "type": "address"
        }
      ],
      "name": "multipliers",
      "outputs": [
        {
          "internalType": "uint256",
          "name": "",
          "type": "uint256"
        }
      ],
      "stateMutability": "view",
      "type": "function",
      "constant": true
    },
    {
      "inputs": [],
      "name": "owner",
      "outputs": [
        {
          "internalType": "address",
          "name": "",
          "type": "address"
        }
      ],
      "stateMutability": "view",
      "type": "function",
      "constant": true
    },
    {
      "inputs": [],
      "name": "payoutMultiplier",
      "outputs": [
        {
          "internalType": "uint256",
          "name": "",
          "type": "uint256"
        }
      ],
      "stateMutability": "view",
      "type": "function",
      "constant": true
    },
    {
      "inputs": [
        {
          "internalType": "bytes32",
          "name": "requestId",
          "type": "bytes32"
        },
        {
          "internalType": "uint256",
          "name": "randomness",
          "type": "uint256"
        }
      ],
      "name": "rawFulfillRandomness",
      "outputs": [],
      "stateMutability": "nonpayable",
      "type": "function"
    },
    {
      "inputs": [],
      "name": "renounceOwnership",
      "outputs": [],
      "stateMutability": "nonpayable",
      "type": "function"
    },
    {
      "inputs": [
        {
          "internalType": "bytes32",
          "name": "",
          "type": "bytes32"
        }
      ],
      "name": "requestIdToRandomNumber",
      "outputs": [
        {
          "internalType": "uint256",
          "name": "",
          "type": "uint256"
        }
      ],
      "stateMutability": "view",
      "type": "function",
      "constant": true
    },
    {
      "inputs": [
        {
          "internalType": "address",
          "name": "newOwner",
          "type": "address"
        }
      ],
      "name": "transferOwnership",
      "outputs": [],
      "stateMutability": "nonpayable",
      "type": "function"
    },
    {
      "inputs": [
        {
          "internalType": "address",
          "name": "player",
          "type": "address"
        }
      ],
      "name": "requestIdOf",
      "outputs": [
        {
          "internalType": "bytes32",
          "name": "",
          "type": "bytes32"
        }
      ],
      "stateMutability": "view",
      "type": "function",
      "constant": true
    },
    {
      "inputs": [],
      "name": "getBalance",
      "outputs": [
        {
          "internalType": "uint256",
          "name": "",
          "type": "uint256"
        }
      ],
      "stateMutability": "view",
      "type": "function",
      "constant": true
    },
    {
      "inputs": [
        {
          "internalType": "address",
          "name": "player",
          "type": "address"
        }
      ],
      "name": "betOf",
      "outputs": [
        {
          "internalType": "uint256",
          "name": "",
          "type": "uint256"
        }
      ],
      "stateMutability": "view",
      "type": "function",
      "constant": true
    },
    {
      "inputs": [
        {
          "internalType": "address",
          "name": "LLTH_",
          "type": "address"
        }
      ],
      "name": "setLLTH",
      "outputs": [],
      "stateMutability": "nonpayable",
      "type": "function"
    },
    {
      "inputs": [
        {
          "internalType": "uint256",
          "name": "minMultiplier_",
          "type": "uint256"
        }
      ],
      "name": "setMinMultiplier",
      "outputs": [],
      "stateMutability": "nonpayable",
      "type": "function"
    },
    {
      "inputs": [
        {
          "internalType": "uint256",
          "name": "maxMultiplier_",
          "type": "uint256"
        }
      ],
      "name": "setMaxMultiplier",
      "outputs": [],
      "stateMutability": "nonpayable",
      "type": "function"
    },
    {
      "inputs": [
        {
          "internalType": "uint256",
          "name": "maxBet_",
          "type": "uint256"
        }
      ],
      "name": "setMaxBet",
      "outputs": [],
      "stateMutability": "nonpayable",
      "type": "function"
    },
    {
      "inputs": [
        {
          "internalType": "uint256",
          "name": "payoutMultiplier_",
          "type": "uint256"
        }
      ],
      "name": "setPayoutMultiplier",
      "outputs": [],
      "stateMutability": "nonpayable",
      "type": "function"
    },
    {
      "inputs": [
        {
          "internalType": "address",
          "name": "player",
          "type": "address"
        }
      ],
      "name": "getWinningMultiplier",
      "outputs": [
        {
          "internalType": "uint256",
          "name": "",
          "type": "uint256"
        }
      ],
      "stateMutability": "view",
      "type": "function",
      "constant": true
    },
    {
      "inputs": [
        {
          "internalType": "uint256",
          "name": "bet",
          "type": "uint256"
        },
        {
          "internalType": "uint256",
          "name": "multiplier",
          "type": "uint256"
        }
      ],
      "name": "placeBet",
      "outputs": [],
      "stateMutability": "nonpayable",
      "type": "function"
    },
    {
      "inputs": [
        {
          "internalType": "uint256",
          "name": "amount",
          "type": "uint256"
        }
      ],
      "name": "withdraw",
      "outputs": [],
      "stateMutability": "nonpayable",
      "type": "function"
    },
    {
      "inputs": [
        {
          "internalType": "address",
          "name": "player",
          "type": "address"
        }
      ],
      "name": "closeRound",
      "outputs": [],
      "stateMutability": "nonpayable",
      "type": "function"
    }
  ],
  "bytecode": "0x60c0604052600c60035569021e19e0c9bab24000006004556001600555600d600655738c7382f9d8f56b33781fe506e897a4f1e2d17255600960006101000a81548173ffffffffffffffffffffffffffffffffffffffff021916908373ffffffffffffffffffffffffffffffffffffffff16021790555073326c977e6efc84e512bb9c30f76e30c160ed06fb600a60006101000a81548173ffffffffffffffffffffffffffffffffffffffff021916908373ffffffffffffffffffffffffffffffffffffffff160217905550348015620000d857600080fd5b5060405162002ed938038062002ed98339818101604052810190620000fe919062000336565b600960009054906101000a900473ffffffffffffffffffffffffffffffffffffffff16600a60009054906101000a900473ffffffffffffffffffffffffffffffffffffffff1662000164620001586200025360201b60201c565b6200025b60201b60201c565b8173ffffffffffffffffffffffffffffffffffffffff1660a08173ffffffffffffffffffffffffffffffffffffffff1660601b815250508073ffffffffffffffffffffffffffffffffffffffff1660808173ffffffffffffffffffffffffffffffffffffffff1660601b81525050505080600260006101000a81548173ffffffffffffffffffffffffffffffffffffffff021916908373ffffffffffffffffffffffffffffffffffffffff1602179055507f6e75b569a01ef56d18cab6a8e71e6600d6ce853834d4a5748b720d06f878b3a460001b600881905550655af3107a400060078190555050620003bb565b600033905090565b60008060009054906101000a900473ffffffffffffffffffffffffffffffffffffffff169050816000806101000a81548173ffffffffffffffffffffffffffffffffffffffff021916908373ffffffffffffffffffffffffffffffffffffffff1602179055508173ffffffffffffffffffffffffffffffffffffffff168173ffffffffffffffffffffffffffffffffffffffff167f8be0079c531659141344cd1fd0a4f28419497f9722a3daafe3b4186f6b6457e060405160405180910390a35050565b6000815190506200033081620003a1565b92915050565b6000602082840312156200034f576200034e6200039c565b5b60006200035f848285016200031f565b91505092915050565b600062000375826200037c565b9050919050565b600073ffffffffffffffffffffffffffffffffffffffff82169050919050565b600080fd5b620003ac8162000368565b8114620003b857600080fd5b50565b60805160601c60a05160601c612ae4620003f5600039600081816116ee0152611c9f01526000818161198b0152611c630152612ae46000f3fe608060405234801561001057600080fd5b50600436106101c45760003560e01c806368258f49116100f95780639bef920011610097578063ac524f3d11610071578063ac524f3d146104df578063ddca3f431461050f578063f2fde38b1461052d578063f4e9775d14610549576101c4565b80639bef9200146104755780639fd751c7146104a5578063a24e0d87146104c1576101c4565b8063881eff1e116100d3578063881eff1e146103ef57806389a78f1a1461040b5780638da5cb5b1461043b57806394985ddd14610459576101c4565b806368258f49146103ad578063715018a6146103c95780637c777806146103d3576101c4565b8063497358c911610166578063507953991161014057806350795399146103115780635ae46774146103415780635c8127371461037157806361728f391461038f576101c4565b8063497358c9146102a95780634afe62b5146102c55780635017efb6146102e1576101c4565b80632e1a7d4d116101a25780632e1a7d4d146102215780632e5b21681461023d57806333b608631461025b5780634288d75914610279576101c4565b806301526a43146101c95780630187aea0146101e557806312065fe014610203575b600080fd5b6101e360048036038101906101de9190611f75565b610567565b005b6101ed6105ed565b6040516101fa919061251b565b60405180910390f35b61020b6105f3565b604051610218919061251b565b60405180910390f35b61023b60048036038101906102369190611f75565b6106a5565b005b6102456108c8565b604051610252919061251b565b60405180910390f35b6102636108ce565b6040516102709190612250565b60405180910390f35b610293600480360381019061028e9190611eae565b6108f4565b6040516102a0919061251b565b60405180910390f35b6102c360048036038101906102be9190611f75565b610976565b005b6102df60048036038101906102da9190611fcf565b6109fc565b005b6102fb60048036038101906102f69190611eae565b610dfd565b6040516103089190612332565b60405180910390f35b61032b60048036038101906103269190611eae565b610e15565b604051610338919061251b565b60405180910390f35b61035b60048036038101906103569190611eae565b610f9a565b6040516103689190612332565b60405180910390f35b610379610fe3565b604051610386919061251b565b60405180910390f35b610397610fe9565b6040516103a49190612332565b60405180910390f35b6103c760048036038101906103c29190611eae565b610fef565b005b6103d16114dd565b005b6103ed60048036038101906103e89190611eae565b611565565b005b61040960048036038101906104049190611f75565b611625565b005b61042560048036038101906104209190611eae565b6116ab565b604051610432919061251b565b60405180910390f35b6104436116c3565b6040516104509190612250565b60405180910390f35b610473600480360381019061046e9190611f35565b6116ec565b005b61048f600480360381019061048a9190611f08565b611788565b60405161049c919061251b565b60405180910390f35b6104bf60048036038101906104ba9190611f75565b6117a0565b005b6104c9611826565b6040516104d6919061251b565b60405180910390f35b6104f960048036038101906104f49190611eae565b61182c565b604051610506919061251b565b60405180910390f35b610517611844565b604051610524919061251b565b60405180910390f35b61054760048036038101906105429190611eae565b61184a565b005b610551611942565b60405161055e9190612250565b60405180910390f35b61056f611968565b73ffffffffffffffffffffffffffffffffffffffff1661058d6116c3565b73ffffffffffffffffffffffffffffffffffffffff16146105e3576040517f08c379a00000000000000000000000000000000000000000000000000000000081526004016105da9061247b565b60405180910390fd5b8060068190555050565b60065481565b6000600260009054906101000a900473ffffffffffffffffffffffffffffffffffffffff1673ffffffffffffffffffffffffffffffffffffffff166370a08231306040518263ffffffff1660e01b81526004016106509190612250565b60206040518083038186803b15801561066857600080fd5b505afa15801561067c573d6000803e3d6000fd5b505050506040513d601f19601f820116820180604052508101906106a09190611fa2565b905090565b6106ad611968565b73ffffffffffffffffffffffffffffffffffffffff166106cb6116c3565b73ffffffffffffffffffffffffffffffffffffffff1614610721576040517f08c379a00000000000000000000000000000000000000000000000000000000081526004016107189061247b565b60405180910390fd5b80600260009054906101000a900473ffffffffffffffffffffffffffffffffffffffff1673ffffffffffffffffffffffffffffffffffffffff166370a08231306040518263ffffffff1660e01b815260040161077d9190612250565b60206040518083038186803b15801561079557600080fd5b505afa1580156107a9573d6000803e3d6000fd5b505050506040513d601f19601f820116820180604052508101906107cd9190611fa2565b101561080e576040517f08c379a00000000000000000000000000000000000000000000000000000000081526004016108059061241b565b60405180910390fd5b600260009054906101000a900473ffffffffffffffffffffffffffffffffffffffff1673ffffffffffffffffffffffffffffffffffffffff1663a9059cbb6108546116c3565b836040518363ffffffff1660e01b81526004016108729291906122cb565b602060405180830381600087803b15801561088c57600080fd5b505af11580156108a0573d6000803e3d6000fd5b505050506040513d601f19601f820116820180604052508101906108c49190611edb565b5050565b60045481565b600960009054906101000a900473ffffffffffffffffffffffffffffffffffffffff1681565b60008073ffffffffffffffffffffffffffffffffffffffff168273ffffffffffffffffffffffffffffffffffffffff16141561092f57600080fd5b600b60008373ffffffffffffffffffffffffffffffffffffffff1673ffffffffffffffffffffffffffffffffffffffff168152602001908152602001600020549050919050565b61097e611968565b73ffffffffffffffffffffffffffffffffffffffff1661099c6116c3565b73ffffffffffffffffffffffffffffffffffffffff16146109f2576040517f08c379a00000000000000000000000000000000000000000000000000000000081526004016109e99061247b565b60405180910390fd5b8060038190555050565b600454821115610a41576040517f08c379a0000000000000000000000000000000000000000000000000000000008152600401610a38906124fb565b60405180910390fd5b6001811015610a85576040517f08c379a0000000000000000000000000000000000000000000000000000000008152600401610a7c906123fb565b60405180910390fd5b600e8110610ac8576040517f08c379a0000000000000000000000000000000000000000000000000000000008152600401610abf906123fb565b60405180910390fd5b81600260009054906101000a900473ffffffffffffffffffffffffffffffffffffffff1673ffffffffffffffffffffffffffffffffffffffff166370a08231336040518263ffffffff1660e01b8152600401610b249190612250565b60206040518083038186803b158015610b3c57600080fd5b505afa158015610b50573d6000803e3d6000fd5b505050506040513d601f19601f82011682018060405250810190610b749190611fa2565b1015610bb5576040517f08c379a0000000000000000000000000000000000000000000000000000000008152600401610bac9061245b565b60405180910390fd5b610bca6003548361197090919063ffffffff16565b600260009054906101000a900473ffffffffffffffffffffffffffffffffffffffff1673ffffffffffffffffffffffffffffffffffffffff166370a08231306040518263ffffffff1660e01b8152600401610c259190612250565b60206040518083038186803b158015610c3d57600080fd5b505afa158015610c51573d6000803e3d6000fd5b505050506040513d601f19601f82011682018060405250810190610c759190611fa2565b1015610cb6576040517f08c379a0000000000000000000000000000000000000000000000000000000008152600401610cad906123bb565b60405180910390fd5b600260009054906101000a900473ffffffffffffffffffffffffffffffffffffffff1673ffffffffffffffffffffffffffffffffffffffff166323b872dd3330856040518463ffffffff1660e01b8152600401610d159392919061226b565b602060405180830381600087803b158015610d2f57600080fd5b505af1158015610d43573d6000803e3d6000fd5b505050506040513d601f19601f82011682018060405250810190610d679190611edb565b50610d7133611986565b81600b60003373ffffffffffffffffffffffffffffffffffffffff1673ffffffffffffffffffffffffffffffffffffffff1681526020019081526020016000208190555080600c60003373ffffffffffffffffffffffffffffffffffffffff1673ffffffffffffffffffffffffffffffffffffffff168152602001908152602001600020819055505050565b600d6020528060005260406000206000915090505481565b60006001600e6000600d60008673ffffffffffffffffffffffffffffffffffffffff1673ffffffffffffffffffffffffffffffffffffffff1681526020019081526020016000205481526020019081526020016000205411610eac576040517f08c379a0000000000000000000000000000000000000000000000000000000008152600401610ea3906124db565b60405180910390fd5b600e806000600d60008673ffffffffffffffffffffffffffffffffffffffff1673ffffffffffffffffffffffffffffffffffffffff1681526020019081526020016000205481526020019081526020016000205410610f40576040517f08c379a0000000000000000000000000000000000000000000000000000000008152600401610f37906124db565b60405180910390fd5b600e6000600d60008573ffffffffffffffffffffffffffffffffffffffff1673ffffffffffffffffffffffffffffffffffffffff168152602001908152602001600020548152602001908152602001600020549050919050565b6000600d60008373ffffffffffffffffffffffffffffffffffffffff1673ffffffffffffffffffffffffffffffffffffffff168152602001908152602001600020549050919050565b60035481565b60085481565b610ff7611968565b73ffffffffffffffffffffffffffffffffffffffff166110156116c3565b73ffffffffffffffffffffffffffffffffffffffff161461106b576040517f08c379a00000000000000000000000000000000000000000000000000000000081526004016110629061247b565b60405180910390fd5b600073ffffffffffffffffffffffffffffffffffffffff168173ffffffffffffffffffffffffffffffffffffffff1614156110db576040517f08c379a00000000000000000000000000000000000000000000000000000000081526004016110d29061243b565b60405180910390fd5b60016110e682610e15565b1415801561113a57506110f881610e15565b600c60008373ffffffffffffffffffffffffffffffffffffffff1673ffffffffffffffffffffffffffffffffffffffff16815260200190815260200160002054145b15611403576000611195600354600b60008573ffffffffffffffffffffffffffffffffffffffff1673ffffffffffffffffffffffffffffffffffffffff1681526020019081526020016000205461197090919063ffffffff16565b905080600260009054906101000a900473ffffffffffffffffffffffffffffffffffffffff1673ffffffffffffffffffffffffffffffffffffffff166370a08231306040518263ffffffff1660e01b81526004016111f39190612250565b60206040518083038186803b15801561120b57600080fd5b505afa15801561121f573d6000803e3d6000fd5b505050506040513d601f19601f820116820180604052508101906112439190611fa2565b1015611284576040517f08c379a000000000000000000000000000000000000000000000000000000000815260040161127b9061241b565b60405180910390fd5b600260009054906101000a900473ffffffffffffffffffffffffffffffffffffffff1673ffffffffffffffffffffffffffffffffffffffff1663a9059cbb83836040518363ffffffff1660e01b81526004016112e19291906122cb565b602060405180830381600087803b1580156112fb57600080fd5b505af115801561130f573d6000803e3d6000fd5b505050506040513d601f19601f820116820180604052508101906113339190611edb565b50600c60008373ffffffffffffffffffffffffffffffffffffffff1673ffffffffffffffffffffffffffffffffffffffff16815260200190815260200160002060009055600b60008373ffffffffffffffffffffffffffffffffffffffff1673ffffffffffffffffffffffffffffffffffffffff16815260200190815260200160002060009055600d60008373ffffffffffffffffffffffffffffffffffffffff1673ffffffffffffffffffffffffffffffffffffffff16815260200190815260200160002060009055506114da565b61140c81610e15565b600c60008373ffffffffffffffffffffffffffffffffffffffff1673ffffffffffffffffffffffffffffffffffffffff1681526020019081526020016000205414156114d957600c60008273ffffffffffffffffffffffffffffffffffffffff1673ffffffffffffffffffffffffffffffffffffffff16815260200190815260200160002060009055600d60008273ffffffffffffffffffffffffffffffffffffffff1673ffffffffffffffffffffffffffffffffffffffff168152602001908152602001600020600090555b5b50565b6114e5611968565b73ffffffffffffffffffffffffffffffffffffffff166115036116c3565b73ffffffffffffffffffffffffffffffffffffffff1614611559576040517f08c379a00000000000000000000000000000000000000000000000000000000081526004016115509061247b565b60405180910390fd5b6115636000611b06565b565b61156d611968565b73ffffffffffffffffffffffffffffffffffffffff1661158b6116c3565b73ffffffffffffffffffffffffffffffffffffffff16146115e1576040517f08c379a00000000000000000000000000000000000000000000000000000000081526004016115d89061247b565b60405180910390fd5b80600260006101000a81548173ffffffffffffffffffffffffffffffffffffffff021916908373ffffffffffffffffffffffffffffffffffffffff16021790555050565b61162d611968565b73ffffffffffffffffffffffffffffffffffffffff1661164b6116c3565b73ffffffffffffffffffffffffffffffffffffffff16146116a1576040517f08c379a00000000000000000000000000000000000000000000000000000000081526004016116989061247b565b60405180910390fd5b8060048190555050565b600b6020528060005260406000206000915090505481565b60008060009054906101000a900473ffffffffffffffffffffffffffffffffffffffff16905090565b7f000000000000000000000000000000000000000000000000000000000000000073ffffffffffffffffffffffffffffffffffffffff163373ffffffffffffffffffffffffffffffffffffffff161461177a576040517f08c379a00000000000000000000000000000000000000000000000000000000081526004016117719061249b565b60405180910390fd5b6117848282611bca565b5050565b600e6020528060005260406000206000915090505481565b6117a8611968565b73ffffffffffffffffffffffffffffffffffffffff166117c66116c3565b73ffffffffffffffffffffffffffffffffffffffff161461181c576040517f08c379a00000000000000000000000000000000000000000000000000000000081526004016118139061247b565b60405180910390fd5b8060058190555050565b60055481565b600c6020528060005260406000206000915090505481565b60075481565b611852611968565b73ffffffffffffffffffffffffffffffffffffffff166118706116c3565b73ffffffffffffffffffffffffffffffffffffffff16146118c6576040517f08c379a00000000000000000000000000000000000000000000000000000000081526004016118bd9061247b565b60405180910390fd5b600073ffffffffffffffffffffffffffffffffffffffff168173ffffffffffffffffffffffffffffffffffffffff161415611936576040517f08c379a000000000000000000000000000000000000000000000000000000000815260040161192d906123db565b60405180910390fd5b61193f81611b06565b50565b600a60009054906101000a900473ffffffffffffffffffffffffffffffffffffffff1681565b600033905090565b6000818361197e91906125b9565b905092915050565b6007547f000000000000000000000000000000000000000000000000000000000000000073ffffffffffffffffffffffffffffffffffffffff166370a08231306040518263ffffffff1660e01b81526004016119e29190612250565b60206040518083038186803b1580156119fa57600080fd5b505afa158015611a0e573d6000803e3d6000fd5b505050506040513d601f19601f82011682018060405250810190611a329190611fa2565b1015611a73576040517f08c379a0000000000000000000000000000000000000000000000000000000008152600401611a6a906124bb565b60405180910390fd5b6000611a83600854600754611c5f565b905080600d60008473ffffffffffffffffffffffffffffffffffffffff1673ffffffffffffffffffffffffffffffffffffffff168152602001908152602001600020819055507faede8a84bd70912adc412a1c86f3aa87a32e75e15b66e8d2c6139982e12777768282604051611afa9291906122a2565b60405180910390a15050565b60008060009054906101000a900473ffffffffffffffffffffffffffffffffffffffff169050816000806101000a81548173ffffffffffffffffffffffffffffffffffffffff021916908373ffffffffffffffffffffffffffffffffffffffff1602179055508173ffffffffffffffffffffffffffffffffffffffff168173ffffffffffffffffffffffffffffffffffffffff167f8be0079c531659141344cd1fd0a4f28419497f9722a3daafe3b4186f6b6457e060405160405180910390a35050565b6000600554600554611be86001600654611dc090919063ffffffff16565b611bf29190612613565b83611bfd91906126e0565b611c079190612563565b905080600e6000858152602001908152602001600020819055507f487bf13e5d88ca8eb4a14e229b6ad3371c9627c7a096e6e416d556ac33a7da4c8382604051611c5292919061234d565b60405180910390a1505050565b60007f000000000000000000000000000000000000000000000000000000000000000073ffffffffffffffffffffffffffffffffffffffff16634000aea07f000000000000000000000000000000000000000000000000000000000000000084866000604051602001611cd392919061234d565b6040516020818303038152906040526040518463ffffffff1660e01b8152600401611d00939291906122f4565b602060405180830381600087803b158015611d1a57600080fd5b505af1158015611d2e573d6000803e3d6000fd5b505050506040513d601f19601f82011682018060405250810190611d529190611edb565b506000611d75846000306001600089815260200190815260200160002054611dd6565b9050600180600086815260200190815260200160002054611d969190612563565b6001600086815260200190815260200160002081905550611db78482611e12565b91505092915050565b60008183611dce9190612563565b905092915050565b600084848484604051602001611def9493929190612376565b6040516020818303038152906040528051906020012060001c9050949350505050565b60008282604051602001611e27929190612224565b60405160208183030381529060405280519060200120905092915050565b600081359050611e5481612a52565b92915050565b600081519050611e6981612a69565b92915050565b600081359050611e7e81612a80565b92915050565b600081359050611e9381612a97565b92915050565b600081519050611ea881612a97565b92915050565b600060208284031215611ec457611ec361276f565b5b6000611ed284828501611e45565b91505092915050565b600060208284031215611ef157611ef061276f565b5b6000611eff84828501611e5a565b91505092915050565b600060208284031215611f1e57611f1d61276f565b5b6000611f2c84828501611e6f565b91505092915050565b60008060408385031215611f4c57611f4b61276f565b5b6000611f5a85828601611e6f565b9250506020611f6b85828601611e84565b9150509250929050565b600060208284031215611f8b57611f8a61276f565b5b6000611f9984828501611e84565b91505092915050565b600060208284031215611fb857611fb761276f565b5b6000611fc684828501611e99565b91505092915050565b60008060408385031215611fe657611fe561276f565b5b6000611ff485828601611e84565b925050602061200585828601611e84565b9150509250929050565b61201881612647565b82525050565b61202781612665565b82525050565b61203e61203982612665565b6126cc565b82525050565b600061204f82612536565b6120598185612541565b9350612069818560208601612699565b61207281612774565b840191505092915050565b600061208a602883612552565b915061209582612785565b604082019050919050565b60006120ad602683612552565b91506120b8826127d4565b604082019050919050565b60006120d0602483612552565b91506120db82612823565b604082019050919050565b60006120f3602283612552565b91506120fe82612872565b604082019050919050565b6000612116601783612552565b9150612121826128c1565b602082019050919050565b6000612139602683612552565b9150612144826128ea565b604082019050919050565b600061215c602083612552565b915061216782612939565b602082019050919050565b600061217f601f83612552565b915061218a82612962565b602082019050919050565b60006121a2601083612552565b91506121ad8261298b565b602082019050919050565b60006121c5602783612552565b91506121d0826129b4565b604082019050919050565b60006121e8603083612552565b91506121f382612a03565b604082019050919050565b6122078161268f565b82525050565b61221e6122198261268f565b6126d6565b82525050565b6000612230828561202d565b602082019150612240828461220d565b6020820191508190509392505050565b6000602082019050612265600083018461200f565b92915050565b6000606082019050612280600083018661200f565b61228d602083018561200f565b61229a60408301846121fe565b949350505050565b60006040820190506122b7600083018561200f565b6122c4602083018461201e565b9392505050565b60006040820190506122e0600083018561200f565b6122ed60208301846121fe565b9392505050565b6000606082019050612309600083018661200f565b61231660208301856121fe565b81810360408301526123288184612044565b9050949350505050565b6000602082019050612347600083018461201e565b92915050565b6000604082019050612362600083018561201e565b61236f60208301846121fe565b9392505050565b600060808201905061238b600083018761201e565b61239860208301866121fe565b6123a5604083018561200f565b6123b260608301846121fe565b95945050505050565b600060208201905081810360008301526123d48161207d565b9050919050565b600060208201905081810360008301526123f4816120a0565b9050919050565b60006020820190508181036000830152612414816120c3565b9050919050565b60006020820190508181036000830152612434816120e6565b9050919050565b6000602082019050818103600083015261245481612109565b9050919050565b600060208201905081810360008301526124748161212c565b9050919050565b600060208201905081810360008301526124948161214f565b9050919050565b600060208201905081810360008301526124b481612172565b9050919050565b600060208201905081810360008301526124d481612195565b9050919050565b600060208201905081810360008301526124f4816121b8565b9050919050565b60006020820190508181036000830152612514816121db565b9050919050565b600060208201905061253060008301846121fe565b92915050565b600081519050919050565b600082825260208201905092915050565b600082825260208201905092915050565b600061256e8261268f565b91506125798361268f565b9250827fffffffffffffffffffffffffffffffffffffffffffffffffffffffffffffffff038211156125ae576125ad612711565b5b828201905092915050565b60006125c48261268f565b91506125cf8361268f565b9250817fffffffffffffffffffffffffffffffffffffffffffffffffffffffffffffffff048311821515161561260857612607612711565b5b828202905092915050565b600061261e8261268f565b91506126298361268f565b92508282101561263c5761263b612711565b5b828203905092915050565b60006126528261266f565b9050919050565b60008115159050919050565b6000819050919050565b600073ffffffffffffffffffffffffffffffffffffffff82169050919050565b6000819050919050565b60005b838110156126b757808201518184015260208101905061269c565b838111156126c6576000848401525b50505050565b6000819050919050565b6000819050919050565b60006126eb8261268f565b91506126f68361268f565b92508261270657612705612740565b5b828206905092915050565b7f4e487b7100000000000000000000000000000000000000000000000000000000600052601160045260246000fd5b7f4e487b7100000000000000000000000000000000000000000000000000000000600052601260045260246000fd5b600080fd5b6000601f19601f8301169050919050565b7f4e6f7420656e6f75676820244c4c544820746f6b656e20696e2067616d65277360008201527f2077616c6c65742e000000000000000000000000000000000000000000000000602082015250565b7f4f776e61626c653a206e6577206f776e657220697320746865207a65726f206160008201527f6464726573730000000000000000000000000000000000000000000000000000602082015250565b7f4d756c7469706c696572206d757374206265206265747765656e203120616e6460008201527f2031332e00000000000000000000000000000000000000000000000000000000602082015250565b7f4e6f7420656e6f75676820244c4c544820696e2067616d6527732077616c6c6560008201527f742e000000000000000000000000000000000000000000000000000000000000602082015250565b7f416464726573732063616e6e6f74206265206e756c6c2e000000000000000000600082015250565b7f4e6f7420656e6f75676820244c4c544820746f6b656e20696e20796f7572207760008201527f616c6c65742e0000000000000000000000000000000000000000000000000000602082015250565b7f4f776e61626c653a2063616c6c6572206973206e6f7420746865206f776e6572600082015250565b7f4f6e6c7920565246436f6f7264696e61746f722063616e2066756c66696c6c00600082015250565b7f4e6f7420656e6f756768204c494e4b2e00000000000000000000000000000000600082015250565b7f52616e646f6d206e756d626572206d757374206265206265747765656e20322060008201527f616e642031332e00000000000000000000000000000000000000000000000000602082015250565b7f42657420616d6f756e74206d757374206265206c657373207468616e2074686560008201527f206d61782062657420616d6f756e742e00000000000000000000000000000000602082015250565b612a5b81612647565b8114612a6657600080fd5b50565b612a7281612659565b8114612a7d57600080fd5b50565b612a8981612665565b8114612a9457600080fd5b50565b612aa08161268f565b8114612aab57600080fd5b5056fea26469706673582212200065df3d620406feef493703b58d6cedfa9c0a4617c570d5c183a6a1ed2af3fd64736f6c63430008070033",
  "immutableReferences": {
    "73": [
      {
        "length": 32,
        "start": 6539
      },
      {
        "length": 32,
        "start": 7267
      }
    ],
    "75": [
      {
        "length": 32,
        "start": 5870
      },
      {
        "length": 32,
        "start": 7327
      }
    ]
  },
  "source": "/**\n *   _____________   _______ _____ ___________ ________  ________ _   _ ______\n *  /  __ | ___ \\ \\ / | ___ |_   _|  _  |  _  |  ___|  \\/  |  _  | \\ | |___  /\n *  | /  \\| |_/ /\\ V /| |_/ / | | | | | | | | | |__ |      | | | |  \\| |  / /\n *  | |   |    /  \\ / |  __/  | | | | | | | | |  __|| |\\/| | | | |     | / /\n *  \\ \\__/| |\\ \\  | | | |     | | \\ \\_/ | |/ /| |___| |  | \\ \\_/ | |\\  |/ /___\n *   \\____\\_| \\_| \\_/ \\_|     \\_/  \\___/|___/ \\____/\\_|  |_/\\___/\\_| \\_\\_____/\n *\n *\n *  #CryptoDemonz, Wheel of Fortune\n *\n * Its a wheel with 13 segments, each segment defines a value like 2, 3, , 12, 13, and it has a wild segment which pays 0.\n * The player can place a bet and has to figure out which multiplier will be the result when the wheel is stopped.\n * After betting, the wheel starts spinning and spinning, then it stops.\n * Anyone who successfully figured out the winning multiplier where the wheels stopped, gets the prize: bet amount x 12.\n * Otherwise, the player loses their bet.\n *\n */\n\n// SPDX-License-Identifier: MIT\npragma solidity ^0.8.7;\n\nimport \"@openzeppelin/contracts/token/ERC20/IERC20.sol\";\nimport \"@openzeppelin/contracts/token/ERC20/utils/SafeERC20.sol\";\nimport \"@openzeppelin/contracts/utils/Address.sol\";\nimport \"@openzeppelin/contracts/access/Ownable.sol\";\nimport \"@openzeppelin/contracts/utils/math/SafeMath.sol\";\nimport \"@chainlink/contracts/src/v0.8/VRFConsumerBase.sol\";\n\ncontract Wheel is Ownable, VRFConsumerBase {\n    using SafeMath for uint256;\n    using Address for address;\n\n    // instance of $LLTH token\n    IERC20 internal _LLTH;\n\n    // payout multiplier\n    uint256 public payoutMultiplier = 12;\n\n    // maximum value that can be placed as bets\n    uint256 public maxBet = 10000 ether;\n\n    // minimum value of the wheel segment multiplier\n    uint256 public minMultiplier = 1;\n\n    // maximum value of the wheel segment multiplier\n    uint256 public maxMultiplier = 13;\n\n    // fee required to fulfill a VRF request\n    uint256 public fee;\n\n    // public key against which randomness is generated\n    bytes32 public keyHash;\n\n    // the address of the smart contract which verifies if the numbers returned from Chainlink are actually random\n    address public VRFCoordinator = 0x8C7382F9D8f56b33781fE506E897a4F1e2d17255;\n\n    // LINK token's address\n    address public LINKToken = 0x326C977E6efc84E512bB9C30f76E30c160eD06FB;\n\n    // bets of players\n    mapping(address => uint256) public bets;\n\n    // multipliers of players\n    mapping(address => uint256) public multipliers;\n\n    // mapping of player's address to requestId\n    mapping(address => bytes32) public addressToRequestId;\n\n    // mapping of requestId to the returned random number\n    mapping(bytes32 => uint256) public requestIdToRandomNumber;\n\n    // sending random number for front-end\n    event RandomIsArrived(bytes32 requestId, uint256 randomNumber);\n\n    // sending request ID for front-end\n    event RequestIdIsCreated(address player, bytes32 requestId);\n\n    //-------------------------------------------------------------------------\n    // CONSTRUCTOR\n    //-------------------------------------------------------------------------\n\n    constructor(address LLTH_) VRFConsumerBase(VRFCoordinator, LINKToken) {\n        _LLTH = IERC20(LLTH_);\n        keyHash = 0x6e75b569a01ef56d18cab6a8e71e6600d6ce853834d4a5748b720d06f878b3a4;\n        fee = 0.0001 * 10**18; // 0.0001 LINK\n    }\n\n    //-------------------------------------------------------------------------\n    // VIEW FUNCTIONS\n    //-------------------------------------------------------------------------\n\n    function requestIdOf(address player) external view returns (bytes32) {\n        return addressToRequestId[player];\n    }\n\n    function getBalance() external view returns (uint256) {\n        return _LLTH.balanceOf(address(this));\n    }\n\n    function betOf(address player) external view returns (uint256) {\n        require(player != address(0));\n        return bets[player];\n    }\n\n    //-------------------------------------------------------------------------\n    // SET FUNCTIONS\n    //-------------------------------------------------------------------------\n\n    function setLLTH(address LLTH_) external onlyOwner {\n        _LLTH = IERC20(LLTH_);\n    }\n\n    function setMinMultiplier(uint256 minMultiplier_) external onlyOwner {\n        minMultiplier = minMultiplier_;\n    }\n\n    function setMaxMultiplier(uint256 maxMultiplier_) external onlyOwner {\n        maxMultiplier = maxMultiplier_;\n    }\n\n    function setMaxBet(uint256 maxBet_) external onlyOwner {\n        maxBet = maxBet_;\n    }\n\n    function setPayoutMultiplier(uint256 payoutMultiplier_) external onlyOwner {\n        payoutMultiplier = payoutMultiplier_;\n    }\n\n    //-------------------------------------------------------------------------\n    // RANDOM NUMBER FUNCTIONS\n    //-------------------------------------------------------------------------\n\n    function getRandomNumber(address player) internal {\n        require(LINK.balanceOf(address(this)) >= fee, \"Not enough LINK.\");\n        bytes32 requestId = requestRandomness(keyHash, fee);\n        addressToRequestId[player] = requestId;\n\n        emit RequestIdIsCreated(player, requestId);\n    }\n\n    function fulfillRandomness(bytes32 requestId, uint256 randomness)\n        internal\n        override\n    {\n        uint256 randomNumber = (randomness %\n            (maxMultiplier.add(1) - minMultiplier)) + minMultiplier; // random number between 1 and 13\n        requestIdToRandomNumber[requestId] = randomNumber;\n\n        emit RandomIsArrived(requestId, randomNumber);\n    }\n\n    function getWinningMultiplier(address player)\n        public\n        view\n        returns (uint256)\n    {\n        require(\n            requestIdToRandomNumber[addressToRequestId[player]] > 1,\n            \"Random number must be between 2 and 13.\"\n        );\n        require(\n            requestIdToRandomNumber[addressToRequestId[player]] < 14,\n            \"Random number must be between 2 and 13.\"\n        );\n\n        return requestIdToRandomNumber[addressToRequestId[player]];\n    }\n\n    //-------------------------------------------------------------------------\n    // EXTERNAL FUNCTIONS\n    //-------------------------------------------------------------------------\n\n    // Called by front-end when placing bet. It saves player's data and tranfers their bet to this contract's address.\n    function placeBet(uint256 bet, uint256 multiplier) external {\n        require(\n            bet <= maxBet,\n            \"Bet amount must be less than the max bet amount.\"\n        );\n        require(multiplier >= 1, \"Multiplier must be between 1 and 13.\");\n        require(multiplier < 14, \"Multiplier must be between 1 and 13.\");\n        require(\n            _LLTH.balanceOf(address(msg.sender)) >= bet,\n            \"Not enough $LLTH token in your wallet.\"\n        );\n        require(\n            _LLTH.balanceOf(address(this)) >= bet.mul(payoutMultiplier),\n            \"Not enough $LLTH token in game's wallet.\"\n        );\n\n        _LLTH.transferFrom(msg.sender, address(this), bet);\n        getRandomNumber(msg.sender);\n        bets[msg.sender] = bet;\n        multipliers[msg.sender] = multiplier;\n    }\n\n    function withdraw(uint256 amount) external onlyOwner {\n        require(\n            _LLTH.balanceOf(address(this)) >= amount,\n            \"Not enough $LLTH in game's wallet.\"\n        );\n\n        _LLTH.transfer(owner(), amount);\n    }\n\n    // Transfers prize, resets mappings and array.\n    function closeRound(address player) external onlyOwner {\n        require(player != address(0), \"Address cannot be null.\");\n\n        if (\n            getWinningMultiplier(player) != 1 &&\n            multipliers[player] == getWinningMultiplier(player)\n        ) {\n            uint256 amount = bets[player].mul(payoutMultiplier);\n\n            require(\n                _LLTH.balanceOf(address(this)) >= amount,\n                \"Not enough $LLTH in game's wallet.\"\n            );\n            _LLTH.transfer(player, amount);\n            delete multipliers[player];\n            delete bets[player];\n            delete addressToRequestId[player];\n        } else if (multipliers[player] == getWinningMultiplier(player)) {\n            delete multipliers[player];\n            delete addressToRequestId[player];\n        }\n    }\n}\n",
  "sourcePath": "/home/levi/wheel_typescript/contracts/Wheel.sol",
  "compiler": {
    "name": "solc",
    "version": "0.8.7+commit.e28d00a7.Emscripten.clang"
  },
  "schemaVersion": "3.4.1",
  "updatedAt": "2021-10-29T00:03:26.339Z",
  "networkType": "ethereum",
  "devdoc": {
    "kind": "dev",
    "methods": {
      "owner()": {
        "details": "Returns the address of the current owner."
      },
      "renounceOwnership()": {
        "details": "Leaves the contract without owner. It will not be possible to call `onlyOwner` functions anymore. Can only be called by the current owner. NOTE: Renouncing ownership will leave the contract without an owner, thereby removing any functionality that is only available to the owner."
      },
      "transferOwnership(address)": {
        "details": "Transfers ownership of the contract to a new account (`newOwner`). Can only be called by the current owner."
      }
    },
    "version": 1
  },
  "userdoc": {
    "kind": "user",
    "methods": {},
    "version": 1
  }
}