{
  "contractName": "Wheel",
  "abi": [
    {
      "inputs": [
        {
          "internalType": "address",
          "name": "LLTH_",
          "type": "address"
        }
      ],
      "stateMutability": "nonpayable",
      "type": "constructor"
    },
    {
      "anonymous": false,
      "inputs": [
        {
          "indexed": true,
          "internalType": "address",
          "name": "previousOwner",
          "type": "address"
        },
        {
          "indexed": true,
          "internalType": "address",
          "name": "newOwner",
          "type": "address"
        }
      ],
      "name": "OwnershipTransferred",
      "type": "event"
    },
    {
      "anonymous": false,
      "inputs": [
        {
          "indexed": false,
          "internalType": "bytes32",
          "name": "requestId",
          "type": "bytes32"
        },
        {
          "indexed": false,
          "internalType": "uint256",
          "name": "randomNumber",
          "type": "uint256"
        }
      ],
      "name": "RandomIsArrived",
      "type": "event"
    },
    {
      "anonymous": false,
      "inputs": [
        {
          "indexed": false,
          "internalType": "address",
          "name": "player",
          "type": "address"
        },
        {
          "indexed": false,
          "internalType": "bytes32",
          "name": "requestId",
          "type": "bytes32"
        }
      ],
      "name": "RequestIdIsCreated",
      "type": "event"
    },
    {
      "inputs": [],
      "name": "LINKToken",
      "outputs": [
        {
          "internalType": "address",
          "name": "",
          "type": "address"
        }
      ],
      "stateMutability": "view",
      "type": "function",
      "constant": true
    },
    {
      "inputs": [],
      "name": "VRFCoordinator",
      "outputs": [
        {
          "internalType": "address",
          "name": "",
          "type": "address"
        }
      ],
      "stateMutability": "view",
      "type": "function",
      "constant": true
    },
    {
      "inputs": [
        {
          "internalType": "address",
          "name": "",
          "type": "address"
        }
      ],
      "name": "addressToRequestId",
      "outputs": [
        {
          "internalType": "bytes32",
          "name": "",
          "type": "bytes32"
        }
      ],
      "stateMutability": "view",
      "type": "function",
      "constant": true
    },
    {
      "inputs": [
        {
          "internalType": "address",
          "name": "",
          "type": "address"
        }
      ],
      "name": "addressToSpawn",
      "outputs": [
        {
          "internalType": "uint256",
          "name": "",
          "type": "uint256"
        }
      ],
      "stateMutability": "view",
      "type": "function",
      "constant": true
    },
    {
      "inputs": [
        {
          "internalType": "address",
          "name": "",
          "type": "address"
        }
      ],
      "name": "bets",
      "outputs": [
        {
          "internalType": "uint256",
          "name": "",
          "type": "uint256"
        }
      ],
      "stateMutability": "view",
      "type": "function",
      "constant": true
    },
    {
      "inputs": [],
      "name": "fee",
      "outputs": [
        {
          "internalType": "uint256",
          "name": "",
          "type": "uint256"
        }
      ],
      "stateMutability": "view",
      "type": "function",
      "constant": true
    },
    {
      "inputs": [],
      "name": "keyHash",
      "outputs": [
        {
          "internalType": "bytes32",
          "name": "",
          "type": "bytes32"
        }
      ],
      "stateMutability": "view",
      "type": "function",
      "constant": true
    },
    {
      "inputs": [],
      "name": "maxBet",
      "outputs": [
        {
          "internalType": "uint256",
          "name": "",
          "type": "uint256"
        }
      ],
      "stateMutability": "view",
      "type": "function",
      "constant": true
    },
    {
      "inputs": [],
      "name": "maxMultiplier",
      "outputs": [
        {
          "internalType": "uint256",
          "name": "",
          "type": "uint256"
        }
      ],
      "stateMutability": "view",
      "type": "function",
      "constant": true
    },
    {
      "inputs": [],
      "name": "minMultiplier",
      "outputs": [
        {
          "internalType": "uint256",
          "name": "",
          "type": "uint256"
        }
      ],
      "stateMutability": "view",
      "type": "function",
      "constant": true
    },
    {
      "inputs": [
        {
          "internalType": "address",
          "name": "",
          "type": "address"
        }
      ],
      "name": "multipliers",
      "outputs": [
        {
          "internalType": "uint256",
          "name": "",
          "type": "uint256"
        }
      ],
      "stateMutability": "view",
      "type": "function",
      "constant": true
    },
    {
      "inputs": [],
      "name": "owner",
      "outputs": [
        {
          "internalType": "address",
          "name": "",
          "type": "address"
        }
      ],
      "stateMutability": "view",
      "type": "function",
      "constant": true
    },
    {
      "inputs": [],
      "name": "payoutMultiplier",
      "outputs": [
        {
          "internalType": "uint256",
          "name": "",
          "type": "uint256"
        }
      ],
      "stateMutability": "view",
      "type": "function",
      "constant": true
    },
    {
      "inputs": [
        {
          "internalType": "bytes32",
          "name": "requestId",
          "type": "bytes32"
        },
        {
          "internalType": "uint256",
          "name": "randomness",
          "type": "uint256"
        }
      ],
      "name": "rawFulfillRandomness",
      "outputs": [],
      "stateMutability": "nonpayable",
      "type": "function"
    },
    {
      "inputs": [],
      "name": "renounceOwnership",
      "outputs": [],
      "stateMutability": "nonpayable",
      "type": "function"
    },
    {
      "inputs": [
        {
          "internalType": "bytes32",
          "name": "",
          "type": "bytes32"
        }
      ],
      "name": "requestIdToAddress",
      "outputs": [
        {
          "internalType": "address",
          "name": "",
          "type": "address"
        }
      ],
      "stateMutability": "view",
      "type": "function",
      "constant": true
    },
    {
      "inputs": [
        {
          "internalType": "bytes32",
          "name": "",
          "type": "bytes32"
        }
      ],
      "name": "requestIdToRandomNumber",
      "outputs": [
        {
          "internalType": "uint256",
          "name": "",
          "type": "uint256"
        }
      ],
      "stateMutability": "view",
      "type": "function",
      "constant": true
    },
    {
      "inputs": [
        {
          "internalType": "address",
          "name": "newOwner",
          "type": "address"
        }
      ],
      "name": "transferOwnership",
      "outputs": [],
      "stateMutability": "nonpayable",
      "type": "function"
    },
    {
      "inputs": [
        {
          "internalType": "address",
          "name": "player",
          "type": "address"
        }
      ],
      "name": "requestIdOf",
      "outputs": [
        {
          "internalType": "bytes32",
          "name": "",
          "type": "bytes32"
        }
      ],
      "stateMutability": "view",
      "type": "function",
      "constant": true
    },
    {
      "inputs": [],
      "name": "getBalance",
      "outputs": [
        {
          "internalType": "uint256",
          "name": "",
          "type": "uint256"
        }
      ],
      "stateMutability": "view",
      "type": "function",
      "constant": true
    },
    {
      "inputs": [
        {
          "internalType": "address",
          "name": "player",
          "type": "address"
        }
      ],
      "name": "betOf",
      "outputs": [
        {
          "internalType": "uint256",
          "name": "",
          "type": "uint256"
        }
      ],
      "stateMutability": "view",
      "type": "function",
      "constant": true
    },
    {
      "inputs": [
        {
          "internalType": "address",
          "name": "LLTH_",
          "type": "address"
        }
      ],
      "name": "setLLTH",
      "outputs": [],
      "stateMutability": "nonpayable",
      "type": "function"
    },
    {
      "inputs": [
        {
          "internalType": "uint256",
          "name": "minMultiplier_",
          "type": "uint256"
        }
      ],
      "name": "setMinMultiplier",
      "outputs": [],
      "stateMutability": "nonpayable",
      "type": "function"
    },
    {
      "inputs": [
        {
          "internalType": "uint256",
          "name": "maxMultiplier_",
          "type": "uint256"
        }
      ],
      "name": "setMaxMultiplier",
      "outputs": [],
      "stateMutability": "nonpayable",
      "type": "function"
    },
    {
      "inputs": [
        {
          "internalType": "uint256",
          "name": "maxBet_",
          "type": "uint256"
        }
      ],
      "name": "setMaxBet",
      "outputs": [],
      "stateMutability": "nonpayable",
      "type": "function"
    },
    {
      "inputs": [
        {
          "internalType": "uint256",
          "name": "payoutMultiplier_",
          "type": "uint256"
        }
      ],
      "name": "setPayoutMultiplier",
      "outputs": [],
      "stateMutability": "nonpayable",
      "type": "function"
    },
    {
      "inputs": [
        {
          "internalType": "uint256",
          "name": "bet",
          "type": "uint256"
        },
        {
          "internalType": "uint256",
          "name": "multiplier",
          "type": "uint256"
        },
        {
          "internalType": "uint256",
          "name": "spawn",
          "type": "uint256"
        }
      ],
      "name": "placeBet",
      "outputs": [],
      "stateMutability": "nonpayable",
      "type": "function"
    },
    {
      "inputs": [
        {
          "internalType": "uint256",
          "name": "amount",
          "type": "uint256"
        }
      ],
      "name": "withdraw",
      "outputs": [],
      "stateMutability": "nonpayable",
      "type": "function"
    },
    {
      "inputs": [
        {
          "internalType": "address",
          "name": "player",
          "type": "address"
        }
      ],
      "name": "getWinningMultiplier",
      "outputs": [
        {
          "internalType": "uint256",
          "name": "",
          "type": "uint256"
        }
      ],
      "stateMutability": "view",
      "type": "function",
      "constant": true
    }
  ],
  "bytecode": "0x60c0604052600c60035569021e19e0c9bab24000006004556001600555600d600655738c7382f9d8f56b33781fe506e897a4f1e2d17255600960006101000a81548173ffffffffffffffffffffffffffffffffffffffff021916908373ffffffffffffffffffffffffffffffffffffffff16021790555073326c977e6efc84e512bb9c30f76e30c160ed06fb600a60006101000a81548173ffffffffffffffffffffffffffffffffffffffff021916908373ffffffffffffffffffffffffffffffffffffffff160217905550348015620000d857600080fd5b5060405162003276380380620032768339818101604052810190620000fe919062000336565b600960009054906101000a900473ffffffffffffffffffffffffffffffffffffffff16600a60009054906101000a900473ffffffffffffffffffffffffffffffffffffffff1662000164620001586200025360201b60201c565b6200025b60201b60201c565b8173ffffffffffffffffffffffffffffffffffffffff1660a08173ffffffffffffffffffffffffffffffffffffffff1660601b815250508073ffffffffffffffffffffffffffffffffffffffff1660808173ffffffffffffffffffffffffffffffffffffffff1660601b81525050505080600260006101000a81548173ffffffffffffffffffffffffffffffffffffffff021916908373ffffffffffffffffffffffffffffffffffffffff1602179055507f6e75b569a01ef56d18cab6a8e71e6600d6ce853834d4a5748b720d06f878b3a460001b600881905550655af3107a400060078190555050620003bb565b600033905090565b60008060009054906101000a900473ffffffffffffffffffffffffffffffffffffffff169050816000806101000a81548173ffffffffffffffffffffffffffffffffffffffff021916908373ffffffffffffffffffffffffffffffffffffffff1602179055508173ffffffffffffffffffffffffffffffffffffffff168173ffffffffffffffffffffffffffffffffffffffff167f8be0079c531659141344cd1fd0a4f28419497f9722a3daafe3b4186f6b6457e060405160405180910390a35050565b6000815190506200033081620003a1565b92915050565b6000602082840312156200034f576200034e6200039c565b5b60006200035f848285016200031f565b91505092915050565b600062000375826200037c565b9050919050565b600073ffffffffffffffffffffffffffffffffffffffff82169050919050565b600080fd5b620003ac8162000368565b8114620003b857600080fd5b50565b60805160601c60a05160601c612e81620003f560003960008181610e660152611ff101526000818161171b0152611fb50152612e816000f3fe608060405234801561001057600080fd5b50600436106101cf5760003560e01c806379a33466116101045780639fd751c7116100a2578063ddca3f4311610071578063ddca3f4314610542578063e71c969714610560578063f2fde38b1461057c578063f4e9775d14610598576101cf565b80639fd751c7146104a8578063a24e0d87146104c4578063ac524f3d146104e2578063bc64beee14610512576101cf565b806389a78f1a116100de57806389a78f1a1461040e5780638da5cb5b1461043e57806394985ddd1461045c5780639bef920014610478576101cf565b806379a33466146103a65780637c777806146103d6578063881eff1e146103f2576101cf565b8063497358c9116101715780635ae467741161014b5780635ae46774146103305780635c8127371461036057806361728f391461037e578063715018a61461039c576101cf565b8063497358c9146102b45780635017efb6146102d05780635079539914610300576101cf565b80632e1a7d4d116101ad5780632e1a7d4d1461022c5780632e5b21681461024857806333b60863146102665780634288d75914610284576101cf565b806301526a43146101d45780630187aea0146101f057806312065fe01461020e575b600080fd5b6101ee60048036038101906101e991906122c7565b6105b6565b005b6101f861063c565b60405161020591906128c3565b60405180910390f35b610216610642565b60405161022391906128c3565b60405180910390f35b610246600480360381019061024191906122c7565b6106f4565b005b610250610917565b60405161025d91906128c3565b60405180910390f35b61026e61091d565b60405161027b91906125d8565b60405180910390f35b61029e60048036038101906102999190612200565b610943565b6040516102ab91906128c3565b60405180910390f35b6102ce60048036038101906102c991906122c7565b6109c5565b005b6102ea60048036038101906102e59190612200565b610a4b565b6040516102f791906126ba565b60405180910390f35b61031a60048036038101906103159190612200565b610a63565b60405161032791906128c3565b60405180910390f35b61034a60048036038101906103459190612200565b610be8565b60405161035791906126ba565b60405180910390f35b610368610c31565b60405161037591906128c3565b60405180910390f35b610386610c37565b60405161039391906126ba565b60405180910390f35b6103a4610c3d565b005b6103c060048036038101906103bb9190612200565b610cc5565b6040516103cd91906128c3565b60405180910390f35b6103f060048036038101906103eb9190612200565b610cdd565b005b61040c600480360381019061040791906122c7565b610d9d565b005b61042860048036038101906104239190612200565b610e23565b60405161043591906128c3565b60405180910390f35b610446610e3b565b60405161045391906125d8565b60405180910390f35b61047660048036038101906104719190612287565b610e64565b005b610492600480360381019061048d919061225a565b610f00565b60405161049f91906128c3565b60405180910390f35b6104c260048036038101906104bd91906122c7565b610f18565b005b6104cc610f9e565b6040516104d991906128c3565b60405180910390f35b6104fc60048036038101906104f79190612200565b610fa4565b60405161050991906128c3565b60405180910390f35b61052c6004803603810190610527919061225a565b610fbc565b60405161053991906125d8565b60405180910390f35b61054a610fef565b60405161055791906128c3565b60405180910390f35b61057a60048036038101906105759190612321565b610ff5565b005b61059660048036038101906105919190612200565b61147e565b005b6105a0611576565b6040516105ad91906125d8565b60405180910390f35b6105be61159c565b73ffffffffffffffffffffffffffffffffffffffff166105dc610e3b565b73ffffffffffffffffffffffffffffffffffffffff1614610632576040517f08c379a000000000000000000000000000000000000000000000000000000000815260040161062990612803565b60405180910390fd5b8060068190555050565b60065481565b6000600260009054906101000a900473ffffffffffffffffffffffffffffffffffffffff1673ffffffffffffffffffffffffffffffffffffffff166370a08231306040518263ffffffff1660e01b815260040161069f91906125d8565b60206040518083038186803b1580156106b757600080fd5b505afa1580156106cb573d6000803e3d6000fd5b505050506040513d601f19601f820116820180604052508101906106ef91906122f4565b905090565b6106fc61159c565b73ffffffffffffffffffffffffffffffffffffffff1661071a610e3b565b73ffffffffffffffffffffffffffffffffffffffff1614610770576040517f08c379a000000000000000000000000000000000000000000000000000000000815260040161076790612803565b60405180910390fd5b80600260009054906101000a900473ffffffffffffffffffffffffffffffffffffffff1673ffffffffffffffffffffffffffffffffffffffff166370a08231306040518263ffffffff1660e01b81526004016107cc91906125d8565b60206040518083038186803b1580156107e457600080fd5b505afa1580156107f8573d6000803e3d6000fd5b505050506040513d601f19601f8201168201806040525081019061081c91906122f4565b101561085d576040517f08c379a0000000000000000000000000000000000000000000000000000000008152600401610854906127a3565b60405180910390fd5b600260009054906101000a900473ffffffffffffffffffffffffffffffffffffffff1673ffffffffffffffffffffffffffffffffffffffff1663a9059cbb6108a3610e3b565b836040518363ffffffff1660e01b81526004016108c1929190612653565b602060405180830381600087803b1580156108db57600080fd5b505af11580156108ef573d6000803e3d6000fd5b505050506040513d601f19601f82011682018060405250810190610913919061222d565b5050565b60045481565b600960009054906101000a900473ffffffffffffffffffffffffffffffffffffffff1681565b60008073ffffffffffffffffffffffffffffffffffffffff168273ffffffffffffffffffffffffffffffffffffffff16141561097e57600080fd5b600b60008373ffffffffffffffffffffffffffffffffffffffff1673ffffffffffffffffffffffffffffffffffffffff168152602001908152602001600020549050919050565b6109cd61159c565b73ffffffffffffffffffffffffffffffffffffffff166109eb610e3b565b73ffffffffffffffffffffffffffffffffffffffff1614610a41576040517f08c379a0000000000000000000000000000000000000000000000000000000008152600401610a3890612803565b60405180910390fd5b8060038190555050565b600d6020528060005260406000206000915090505481565b60006001600e6000600d60008673ffffffffffffffffffffffffffffffffffffffff1673ffffffffffffffffffffffffffffffffffffffff1681526020019081526020016000205481526020019081526020016000205411610afa576040517f08c379a0000000000000000000000000000000000000000000000000000000008152600401610af190612863565b60405180910390fd5b600e806000600d60008673ffffffffffffffffffffffffffffffffffffffff1673ffffffffffffffffffffffffffffffffffffffff1681526020019081526020016000205481526020019081526020016000205410610b8e576040517f08c379a0000000000000000000000000000000000000000000000000000000008152600401610b8590612863565b60405180910390fd5b600e6000600d60008573ffffffffffffffffffffffffffffffffffffffff1673ffffffffffffffffffffffffffffffffffffffff168152602001908152602001600020548152602001908152602001600020549050919050565b6000600d60008373ffffffffffffffffffffffffffffffffffffffff1673ffffffffffffffffffffffffffffffffffffffff168152602001908152602001600020549050919050565b60035481565b60085481565b610c4561159c565b73ffffffffffffffffffffffffffffffffffffffff16610c63610e3b565b73ffffffffffffffffffffffffffffffffffffffff1614610cb9576040517f08c379a0000000000000000000000000000000000000000000000000000000008152600401610cb090612803565b60405180910390fd5b610cc360006115a4565b565b60106020528060005260406000206000915090505481565b610ce561159c565b73ffffffffffffffffffffffffffffffffffffffff16610d03610e3b565b73ffffffffffffffffffffffffffffffffffffffff1614610d59576040517f08c379a0000000000000000000000000000000000000000000000000000000008152600401610d5090612803565b60405180910390fd5b80600260006101000a81548173ffffffffffffffffffffffffffffffffffffffff021916908373ffffffffffffffffffffffffffffffffffffffff16021790555050565b610da561159c565b73ffffffffffffffffffffffffffffffffffffffff16610dc3610e3b565b73ffffffffffffffffffffffffffffffffffffffff1614610e19576040517f08c379a0000000000000000000000000000000000000000000000000000000008152600401610e1090612803565b60405180910390fd5b8060048190555050565b600b6020528060005260406000206000915090505481565b60008060009054906101000a900473ffffffffffffffffffffffffffffffffffffffff16905090565b7f000000000000000000000000000000000000000000000000000000000000000073ffffffffffffffffffffffffffffffffffffffff163373ffffffffffffffffffffffffffffffffffffffff1614610ef2576040517f08c379a0000000000000000000000000000000000000000000000000000000008152600401610ee990612823565b60405180910390fd5b610efc8282611668565b5050565b600e6020528060005260406000206000915090505481565b610f2061159c565b73ffffffffffffffffffffffffffffffffffffffff16610f3e610e3b565b73ffffffffffffffffffffffffffffffffffffffff1614610f94576040517f08c379a0000000000000000000000000000000000000000000000000000000008152600401610f8b90612803565b60405180910390fd5b8060058190555050565b60055481565b600c6020528060005260406000206000915090505481565b600f6020528060005260406000206000915054906101000a900473ffffffffffffffffffffffffffffffffffffffff1681565b60075481565b60045483111561103a576040517f08c379a000000000000000000000000000000000000000000000000000000000815260040161103190612883565b60405180910390fd5b600182101561107e576040517f08c379a000000000000000000000000000000000000000000000000000000000815260040161107590612783565b60405180910390fd5b600e82106110c1576040517f08c379a00000000000000000000000000000000000000000000000000000000081526004016110b890612783565b60405180910390fd5b82600260009054906101000a900473ffffffffffffffffffffffffffffffffffffffff1673ffffffffffffffffffffffffffffffffffffffff166370a08231336040518263ffffffff1660e01b815260040161111d91906125d8565b60206040518083038186803b15801561113557600080fd5b505afa158015611149573d6000803e3d6000fd5b505050506040513d601f19601f8201168201806040525081019061116d91906122f4565b10156111ae576040517f08c379a00000000000000000000000000000000000000000000000000000000081526004016111a5906127e3565b60405180910390fd5b6111c36003548461170090919063ffffffff16565b600260009054906101000a900473ffffffffffffffffffffffffffffffffffffffff1673ffffffffffffffffffffffffffffffffffffffff166370a08231306040518263ffffffff1660e01b815260040161121e91906125d8565b60206040518083038186803b15801561123657600080fd5b505afa15801561124a573d6000803e3d6000fd5b505050506040513d601f19601f8201168201806040525081019061126e91906122f4565b10156112af576040517f08c379a00000000000000000000000000000000000000000000000000000000081526004016112a690612743565b60405180910390fd5b600481106112f2576040517f08c379a00000000000000000000000000000000000000000000000000000000081526004016112e9906128a3565b60405180910390fd5b80601060003373ffffffffffffffffffffffffffffffffffffffff1673ffffffffffffffffffffffffffffffffffffffff16815260200190815260200160002081905550600260009054906101000a900473ffffffffffffffffffffffffffffffffffffffff1673ffffffffffffffffffffffffffffffffffffffff166323b872dd3330866040518463ffffffff1660e01b8152600401611395939291906125f3565b602060405180830381600087803b1580156113af57600080fd5b505af11580156113c3573d6000803e3d6000fd5b505050506040513d601f19601f820116820180604052508101906113e7919061222d565b506113f133611716565b82600b60003373ffffffffffffffffffffffffffffffffffffffff1673ffffffffffffffffffffffffffffffffffffffff1681526020019081526020016000208190555081600c60003373ffffffffffffffffffffffffffffffffffffffff1673ffffffffffffffffffffffffffffffffffffffff16815260200190815260200160002081905550505050565b61148661159c565b73ffffffffffffffffffffffffffffffffffffffff166114a4610e3b565b73ffffffffffffffffffffffffffffffffffffffff16146114fa576040517f08c379a00000000000000000000000000000000000000000000000000000000081526004016114f190612803565b60405180910390fd5b600073ffffffffffffffffffffffffffffffffffffffff168173ffffffffffffffffffffffffffffffffffffffff16141561156a576040517f08c379a000000000000000000000000000000000000000000000000000000000815260040161156190612763565b60405180910390fd5b611573816115a4565b50565b600a60009054906101000a900473ffffffffffffffffffffffffffffffffffffffff1681565b600033905090565b60008060009054906101000a900473ffffffffffffffffffffffffffffffffffffffff169050816000806101000a81548173ffffffffffffffffffffffffffffffffffffffff021916908373ffffffffffffffffffffffffffffffffffffffff1602179055508173ffffffffffffffffffffffffffffffffffffffff168173ffffffffffffffffffffffffffffffffffffffff167f8be0079c531659141344cd1fd0a4f28419497f9722a3daafe3b4186f6b6457e060405160405180910390a35050565b6000600a905080600e6000858152602001908152602001600020819055506116c2600f600085815260200190815260200160002060009054906101000a900473ffffffffffffffffffffffffffffffffffffffff166118e8565b7f487bf13e5d88ca8eb4a14e229b6ad3371c9627c7a096e6e416d556ac33a7da4c83826040516116f39291906126d5565b60405180910390a1505050565b6000818361170e9190612992565b905092915050565b6007547f000000000000000000000000000000000000000000000000000000000000000073ffffffffffffffffffffffffffffffffffffffff166370a08231306040518263ffffffff1660e01b815260040161177291906125d8565b60206040518083038186803b15801561178a57600080fd5b505afa15801561179e573d6000803e3d6000fd5b505050506040513d601f19601f820116820180604052508101906117c291906122f4565b1015611803576040517f08c379a00000000000000000000000000000000000000000000000000000000081526004016117fa90612843565b60405180910390fd5b6000611813600854600754611fb1565b905080600d60008473ffffffffffffffffffffffffffffffffffffffff1673ffffffffffffffffffffffffffffffffffffffff1681526020019081526020016000208190555081600f600083815260200190815260200160002060006101000a81548173ffffffffffffffffffffffffffffffffffffffff021916908373ffffffffffffffffffffffffffffffffffffffff1602179055507faede8a84bd70912adc412a1c86f3aa87a32e75e15b66e8d2c6139982e127777682826040516118dc92919061262a565b60405180910390a15050565b600073ffffffffffffffffffffffffffffffffffffffff168173ffffffffffffffffffffffffffffffffffffffff161415611958576040517f08c379a000000000000000000000000000000000000000000000000000000000815260040161194f906127c3565b60405180910390fd5b600161196382610a63565b141580156119b7575061197581610a63565b600c60008373ffffffffffffffffffffffffffffffffffffffff1673ffffffffffffffffffffffffffffffffffffffff16815260200190815260200160002054145b15611ee45760006001601060008473ffffffffffffffffffffffffffffffffffffffff1673ffffffffffffffffffffffffffffffffffffffff168152602001908152602001600020541415611a8957611a826103e8611a7461044c611a66600354600b60008973ffffffffffffffffffffffffffffffffffffffff1673ffffffffffffffffffffffffffffffffffffffff1681526020019081526020016000205461170090919063ffffffff16565b61170090919063ffffffff16565b61211290919063ffffffff16565b9050611c78565b6002601060008473ffffffffffffffffffffffffffffffffffffffff1673ffffffffffffffffffffffffffffffffffffffff168152602001908152602001600020541415611b5457611b4d6103e8611b3f6104b0611b31600354600b60008973ffffffffffffffffffffffffffffffffffffffff1673ffffffffffffffffffffffffffffffffffffffff1681526020019081526020016000205461170090919063ffffffff16565b61170090919063ffffffff16565b61211290919063ffffffff16565b9050611c77565b6003601060008473ffffffffffffffffffffffffffffffffffffffff1673ffffffffffffffffffffffffffffffffffffffff168152602001908152602001600020541415611c1f57611c186103e8611c0a610514611bfc600354600b60008973ffffffffffffffffffffffffffffffffffffffff1673ffffffffffffffffffffffffffffffffffffffff1681526020019081526020016000205461170090919063ffffffff16565b61170090919063ffffffff16565b61211290919063ffffffff16565b9050611c76565b611c73600354600b60008573ffffffffffffffffffffffffffffffffffffffff1673ffffffffffffffffffffffffffffffffffffffff1681526020019081526020016000205461170090919063ffffffff16565b90505b5b5b80600260009054906101000a900473ffffffffffffffffffffffffffffffffffffffff1673ffffffffffffffffffffffffffffffffffffffff166370a08231306040518263ffffffff1660e01b8152600401611cd491906125d8565b60206040518083038186803b158015611cec57600080fd5b505afa158015611d00573d6000803e3d6000fd5b505050506040513d601f19601f82011682018060405250810190611d2491906122f4565b1015611d65576040517f08c379a0000000000000000000000000000000000000000000000000000000008152600401611d5c906127a3565b60405180910390fd5b600260009054906101000a900473ffffffffffffffffffffffffffffffffffffffff1673ffffffffffffffffffffffffffffffffffffffff1663a9059cbb83836040518363ffffffff1660e01b8152600401611dc2929190612653565b602060405180830381600087803b158015611ddc57600080fd5b505af1158015611df0573d6000803e3d6000fd5b505050506040513d601f19601f82011682018060405250810190611e14919061222d565b50600c60008373ffffffffffffffffffffffffffffffffffffffff1673ffffffffffffffffffffffffffffffffffffffff16815260200190815260200160002060009055600b60008373ffffffffffffffffffffffffffffffffffffffff1673ffffffffffffffffffffffffffffffffffffffff16815260200190815260200160002060009055600d60008373ffffffffffffffffffffffffffffffffffffffff1673ffffffffffffffffffffffffffffffffffffffff1681526020019081526020016000206000905550611fae565b600c60008273ffffffffffffffffffffffffffffffffffffffff1673ffffffffffffffffffffffffffffffffffffffff16815260200190815260200160002060009055600b60008273ffffffffffffffffffffffffffffffffffffffff1673ffffffffffffffffffffffffffffffffffffffff16815260200190815260200160002060009055600d60008273ffffffffffffffffffffffffffffffffffffffff1673ffffffffffffffffffffffffffffffffffffffff168152602001908152602001600020600090555b50565b60007f000000000000000000000000000000000000000000000000000000000000000073ffffffffffffffffffffffffffffffffffffffff16634000aea07f0000000000000000000000000000000000000000000000000000000000000000848660006040516020016120259291906126d5565b6040516020818303038152906040526040518463ffffffff1660e01b81526004016120529392919061267c565b602060405180830381600087803b15801561206c57600080fd5b505af1158015612080573d6000803e3d6000fd5b505050506040513d601f19601f820116820180604052508101906120a4919061222d565b5060006120c7846000306001600089815260200190815260200160002054612128565b90506001806000868152602001908152602001600020546120e8919061290b565b60016000868152602001908152602001600020819055506121098482612164565b91505092915050565b600081836121209190612961565b905092915050565b60008484848460405160200161214194939291906126fe565b6040516020818303038152906040528051906020012060001c9050949350505050565b600082826040516020016121799291906125ac565b60405160208183030381529060405280519060200120905092915050565b6000813590506121a681612def565b92915050565b6000815190506121bb81612e06565b92915050565b6000813590506121d081612e1d565b92915050565b6000813590506121e581612e34565b92915050565b6000815190506121fa81612e34565b92915050565b60006020828403121561221657612215612ae3565b5b600061222484828501612197565b91505092915050565b60006020828403121561224357612242612ae3565b5b6000612251848285016121ac565b91505092915050565b6000602082840312156122705761226f612ae3565b5b600061227e848285016121c1565b91505092915050565b6000806040838503121561229e5761229d612ae3565b5b60006122ac858286016121c1565b92505060206122bd858286016121d6565b9150509250929050565b6000602082840312156122dd576122dc612ae3565b5b60006122eb848285016121d6565b91505092915050565b60006020828403121561230a57612309612ae3565b5b6000612318848285016121eb565b91505092915050565b60008060006060848603121561233a57612339612ae3565b5b6000612348868287016121d6565b9350506020612359868287016121d6565b925050604061236a868287016121d6565b9150509250925092565b61237d816129ec565b82525050565b61238c81612a0a565b82525050565b6123a361239e82612a0a565b612a71565b82525050565b60006123b4826128de565b6123be81856128e9565b93506123ce818560208601612a3e565b6123d781612ae8565b840191505092915050565b60006123ef6028836128fa565b91506123fa82612af9565b604082019050919050565b60006124126026836128fa565b915061241d82612b48565b604082019050919050565b60006124356024836128fa565b915061244082612b97565b604082019050919050565b60006124586022836128fa565b915061246382612be6565b604082019050919050565b600061247b6017836128fa565b915061248682612c35565b602082019050919050565b600061249e6026836128fa565b91506124a982612c5e565b604082019050919050565b60006124c16020836128fa565b91506124cc82612cad565b602082019050919050565b60006124e4601f836128fa565b91506124ef82612cd6565b602082019050919050565b60006125076010836128fa565b915061251282612cff565b602082019050919050565b600061252a6027836128fa565b915061253582612d28565b604082019050919050565b600061254d6030836128fa565b915061255882612d77565b604082019050919050565b60006125706019836128fa565b915061257b82612dc6565b602082019050919050565b61258f81612a34565b82525050565b6125a66125a182612a34565b612a7b565b82525050565b60006125b88285612392565b6020820191506125c88284612595565b6020820191508190509392505050565b60006020820190506125ed6000830184612374565b92915050565b60006060820190506126086000830186612374565b6126156020830185612374565b6126226040830184612586565b949350505050565b600060408201905061263f6000830185612374565b61264c6020830184612383565b9392505050565b60006040820190506126686000830185612374565b6126756020830184612586565b9392505050565b60006060820190506126916000830186612374565b61269e6020830185612586565b81810360408301526126b081846123a9565b9050949350505050565b60006020820190506126cf6000830184612383565b92915050565b60006040820190506126ea6000830185612383565b6126f76020830184612586565b9392505050565b60006080820190506127136000830187612383565b6127206020830186612586565b61272d6040830185612374565b61273a6060830184612586565b95945050505050565b6000602082019050818103600083015261275c816123e2565b9050919050565b6000602082019050818103600083015261277c81612405565b9050919050565b6000602082019050818103600083015261279c81612428565b9050919050565b600060208201905081810360008301526127bc8161244b565b9050919050565b600060208201905081810360008301526127dc8161246e565b9050919050565b600060208201905081810360008301526127fc81612491565b9050919050565b6000602082019050818103600083015261281c816124b4565b9050919050565b6000602082019050818103600083015261283c816124d7565b9050919050565b6000602082019050818103600083015261285c816124fa565b9050919050565b6000602082019050818103600083015261287c8161251d565b9050919050565b6000602082019050818103600083015261289c81612540565b9050919050565b600060208201905081810360008301526128bc81612563565b9050919050565b60006020820190506128d86000830184612586565b92915050565b600081519050919050565b600082825260208201905092915050565b600082825260208201905092915050565b600061291682612a34565b915061292183612a34565b9250827fffffffffffffffffffffffffffffffffffffffffffffffffffffffffffffffff0382111561295657612955612a85565b5b828201905092915050565b600061296c82612a34565b915061297783612a34565b92508261298757612986612ab4565b5b828204905092915050565b600061299d82612a34565b91506129a883612a34565b9250817fffffffffffffffffffffffffffffffffffffffffffffffffffffffffffffffff04831182151516156129e1576129e0612a85565b5b828202905092915050565b60006129f782612a14565b9050919050565b60008115159050919050565b6000819050919050565b600073ffffffffffffffffffffffffffffffffffffffff82169050919050565b6000819050919050565b60005b83811015612a5c578082015181840152602081019050612a41565b83811115612a6b576000848401525b50505050565b6000819050919050565b6000819050919050565b7f4e487b7100000000000000000000000000000000000000000000000000000000600052601160045260246000fd5b7f4e487b7100000000000000000000000000000000000000000000000000000000600052601260045260246000fd5b600080fd5b6000601f19601f8301169050919050565b7f4e6f7420656e6f75676820244c4c544820746f6b656e20696e2067616d65277360008201527f2077616c6c65742e000000000000000000000000000000000000000000000000602082015250565b7f4f776e61626c653a206e6577206f776e657220697320746865207a65726f206160008201527f6464726573730000000000000000000000000000000000000000000000000000602082015250565b7f4d756c7469706c696572206d757374206265206265747765656e203120616e6460008201527f2031332e00000000000000000000000000000000000000000000000000000000602082015250565b7f4e6f7420656e6f75676820244c4c544820696e2067616d6527732077616c6c6560008201527f742e000000000000000000000000000000000000000000000000000000000000602082015250565b7f416464726573732063616e6e6f74206265206e756c6c2e000000000000000000600082015250565b7f4e6f7420656e6f75676820244c4c544820746f6b656e20696e20796f7572207760008201527f616c6c65742e0000000000000000000000000000000000000000000000000000602082015250565b7f4f776e61626c653a2063616c6c6572206973206e6f7420746865206f776e6572600082015250565b7f4f6e6c7920565246436f6f7264696e61746f722063616e2066756c66696c6c00600082015250565b7f4e6f7420656e6f756768204c494e4b2e00000000000000000000000000000000600082015250565b7f52616e646f6d206e756d626572206d757374206265206265747765656e20322060008201527f616e642031332e00000000000000000000000000000000000000000000000000602082015250565b7f42657420616d6f756e74206d757374206265206c657373207468616e2074686560008201527f206d61782062657420616d6f756e742e00000000000000000000000000000000602082015250565b7f53706177206d757374206265206c657373207468616e20342e00000000000000600082015250565b612df8816129ec565b8114612e0357600080fd5b50565b612e0f816129fe565b8114612e1a57600080fd5b50565b612e2681612a0a565b8114612e3157600080fd5b50565b612e3d81612a34565b8114612e4857600080fd5b5056fea2646970667358221220e8a663f6febad54e76a77de73e74818f50fa0372eda097755fb20e7d4758468a64736f6c63430008070033",
  "immutableReferences": {
    "73": [
      {
        "length": 32,
        "start": 5915
      },
      {
        "length": 32,
        "start": 8117
      }
    ],
    "75": [
      {
        "length": 32,
        "start": 3686
      },
      {
        "length": 32,
        "start": 8177
      }
    ]
  },
  "source": "/**\n *   _____________   _______ _____ ___________ ________  ________ _   _ ______\n *  /  __ | ___ \\ \\ / | ___ |_   _|  _  |  _  |  ___|  \\/  |  _  | \\ | |___  /\n *  | /  \\| |_/ /\\ V /| |_/ / | | | | | | | | | |__ |      | | | |  \\| |  / /\n *  | |   |    /  \\ / |  __/  | | | | | | | | |  __|| |\\/| | | | |     | / /\n *  \\ \\__/| |\\ \\  | | | |     | | \\ \\_/ | |/ /| |___| |  | \\ \\_/ | |\\  |/ /___\n *   \\____\\_| \\_| \\_/ \\_|     \\_/  \\___/|___/ \\____/\\_|  |_/\\___/\\_| \\_\\_____/\n *\n *\n *  #CryptoDemonz, Wheel of Fortune\n *\n * Its a wheel with 13 segments, each segment defines a value like 2, 3, , 12, 13, and it has a wild segment which pays 0.\n * The player can place a bet and has to figure out which multiplier will be the result when the wheel is stopped.\n * After betting, the wheel starts spinning and spinning, then it stops.\n * Anyone who successfully figured out the winning multiplier where the wheels stopped, gets the prize: bet amount x 12.\n * Otherwise, the player loses their bet.\n *\n */\n\n// SPDX-License-Identifier: MIT\npragma solidity ^0.8.7;\n\nimport \"@openzeppelin/contracts/token/ERC20/IERC20.sol\";\nimport \"@openzeppelin/contracts/token/ERC20/utils/SafeERC20.sol\";\nimport \"@openzeppelin/contracts/utils/Address.sol\";\nimport \"@openzeppelin/contracts/access/Ownable.sol\";\nimport \"@openzeppelin/contracts/utils/math/SafeMath.sol\";\nimport \"@chainlink/contracts/src/v0.8/VRFConsumerBase.sol\";\n\ncontract Wheel is Ownable, VRFConsumerBase {\n    using SafeMath for uint256;\n    using Address for address;\n\n    // instance of $LLTH token\n    IERC20 internal _LLTH;\n\n    // payout multiplier\n    uint256 public payoutMultiplier = 12;\n\n    // maximum value that can be placed as bets\n    uint256 public maxBet = 10000 ether;\n\n    // minimum value of the wheel segment multiplier\n    uint256 public minMultiplier = 1;\n\n    // maximum value of the wheel segment multiplier\n    uint256 public maxMultiplier = 13;\n\n    // fee required to fulfill a VRF request\n    uint256 public fee;\n\n    // public key against which randomness is generated\n    bytes32 public keyHash;\n\n    // the address of the smart contract which verifies if the numbers returned from Chainlink are actually random\n    address public VRFCoordinator = 0x8C7382F9D8f56b33781fE506E897a4F1e2d17255;\n\n    // LINK token's address\n    address public LINKToken = 0x326C977E6efc84E512bB9C30f76E30c160eD06FB;\n\n    // bets of players\n    mapping(address => uint256) public bets;\n\n    // multipliers of players\n    mapping(address => uint256) public multipliers;\n\n    // mapping of player's address to requestId\n    mapping(address => bytes32) public addressToRequestId;\n\n    // mapping of requestId to the returned random number\n    mapping(bytes32 => uint256) public requestIdToRandomNumber;\n\n    // mapping of requestId to player's address\n    mapping(bytes32 => address) public requestIdToAddress;\n\n    // mapping to player's spawn holdings (Spawn1 - 1, Spawn2 - 2, Spawn - 3)\n    mapping(address => uint256) public addressToSpawn;\n\n    // sending random number for front-end\n    event RandomIsArrived(bytes32 requestId, uint256 randomNumber);\n\n    // sending request ID for front-end\n    event RequestIdIsCreated(address player, bytes32 requestId);\n\n    //-------------------------------------------------------------------------\n    // CONSTRUCTOR\n    //-------------------------------------------------------------------------\n\n    constructor(address LLTH_) VRFConsumerBase(VRFCoordinator, LINKToken) {\n        _LLTH = IERC20(LLTH_);\n        keyHash = 0x6e75b569a01ef56d18cab6a8e71e6600d6ce853834d4a5748b720d06f878b3a4;\n        fee = 0.0001 * 10**18; // 0.0001 LINK\n    }\n\n    //-------------------------------------------------------------------------\n    // VIEW FUNCTIONS\n    //-------------------------------------------------------------------------\n\n    function requestIdOf(address player) external view returns (bytes32) {\n        return addressToRequestId[player];\n    }\n\n    function getBalance() external view returns (uint256) {\n        return _LLTH.balanceOf(address(this));\n    }\n\n    function betOf(address player) external view returns (uint256) {\n        require(player != address(0));\n        return bets[player];\n    }\n\n    //-------------------------------------------------------------------------\n    // SET FUNCTIONS\n    //-------------------------------------------------------------------------\n\n    function setLLTH(address LLTH_) external onlyOwner {\n        _LLTH = IERC20(LLTH_);\n    }\n\n    function setMinMultiplier(uint256 minMultiplier_) external onlyOwner {\n        minMultiplier = minMultiplier_;\n    }\n\n    function setMaxMultiplier(uint256 maxMultiplier_) external onlyOwner {\n        maxMultiplier = maxMultiplier_;\n    }\n\n    function setMaxBet(uint256 maxBet_) external onlyOwner {\n        maxBet = maxBet_;\n    }\n\n    function setPayoutMultiplier(uint256 payoutMultiplier_) external onlyOwner {\n        payoutMultiplier = payoutMultiplier_;\n    }\n\n    //-------------------------------------------------------------------------\n    // INTERNAL FUNCTIONS\n    //-------------------------------------------------------------------------\n\n    // Transfers prize, resets mappings and array.\n    function closeRound(address player) internal {\n        require(player != address(0), \"Address cannot be null.\");\n\n        if (\n            getWinningMultiplier(player) != 1 &&\n            multipliers[player] == getWinningMultiplier(player)\n        ) {\n            uint256 amount;\n\n            if (addressToSpawn[player] == 1) {\n                amount = bets[player].mul(payoutMultiplier).mul(1100).div(1000); // Spawn1 - 1.1x\n            } else if (addressToSpawn[player] == 2) {\n                amount = bets[player].mul(payoutMultiplier).mul(1200).div(1000); // Spawn2 - 1.2x\n            } else if (addressToSpawn[player] == 3) {\n                amount = bets[player].mul(payoutMultiplier).mul(1300).div(1000); // Spawn3 - 1.3x\n            } else {\n                amount = bets[player].mul(payoutMultiplier);\n            }\n            require(\n                _LLTH.balanceOf(address(this)) >= amount,\n                \"Not enough $LLTH in game's wallet.\"\n            );\n            _LLTH.transfer(player, amount);\n            delete multipliers[player];\n            delete bets[player];\n            delete addressToRequestId[player];\n        } else {\n            delete multipliers[player];\n            delete bets[player];\n            delete addressToRequestId[player];\n        }\n    }\n\n    //-------------------------------------------------------------------------\n    // EXTERNAL FUNCTIONS\n    //-------------------------------------------------------------------------\n\n    // Called by front-end when placing bet. It saves player's data and tranfers their bet to this contract's address.\n    function placeBet(\n        uint256 bet,\n        uint256 multiplier,\n        uint256 spawn\n    ) external {\n        require(\n            bet <= maxBet,\n            \"Bet amount must be less than the max bet amount.\"\n        );\n        require(multiplier >= 1, \"Multiplier must be between 1 and 13.\");\n        require(multiplier < 14, \"Multiplier must be between 1 and 13.\");\n        require(\n            _LLTH.balanceOf(address(msg.sender)) >= bet,\n            \"Not enough $LLTH token in your wallet.\"\n        );\n        require(\n            _LLTH.balanceOf(address(this)) >= bet.mul(payoutMultiplier),\n            \"Not enough $LLTH token in game's wallet.\"\n        );\n        require(spawn < 4, \"Spaw must be less than 4.\");\n\n        addressToSpawn[msg.sender] = spawn;\n\n        _LLTH.transferFrom(msg.sender, address(this), bet);\n        getRandomNumber(msg.sender);\n        bets[msg.sender] = bet;\n        multipliers[msg.sender] = multiplier;\n    }\n\n    function withdraw(uint256 amount) external onlyOwner {\n        require(\n            _LLTH.balanceOf(address(this)) >= amount,\n            \"Not enough $LLTH in game's wallet.\"\n        );\n\n        _LLTH.transfer(owner(), amount);\n    }\n\n    //-------------------------------------------------------------------------\n    // RANDOM NUMBER FUNCTIONS\n    //-------------------------------------------------------------------------\n\n    function getRandomNumber(address player) internal {\n        require(LINK.balanceOf(address(this)) >= fee, \"Not enough LINK.\");\n        bytes32 requestId = requestRandomness(keyHash, fee);\n        addressToRequestId[player] = requestId;\n        requestIdToAddress[requestId] = player;\n\n        emit RequestIdIsCreated(player, requestId);\n    }\n\n    function fulfillRandomness(bytes32 requestId, uint256 randomness)\n        internal\n        override\n    {\n        /*\n        uint256 randomNumber = (randomness %\n            (maxMultiplier.add(1) - minMultiplier)) + minMultiplier; // random number between 1 and 13\n        requestIdToRandomNumber[requestId] = randomNumber;*/\n        uint256 randomNumber = 10;\n        requestIdToRandomNumber[requestId] = randomNumber;\n        closeRound(requestIdToAddress[requestId]);\n\n        emit RandomIsArrived(requestId, randomNumber);\n    }\n\n    function getWinningMultiplier(address player)\n        public\n        view\n        returns (uint256)\n    {\n        require(\n            requestIdToRandomNumber[addressToRequestId[player]] > 1,\n            \"Random number must be between 2 and 13.\"\n        );\n        require(\n            requestIdToRandomNumber[addressToRequestId[player]] < 14,\n            \"Random number must be between 2 and 13.\"\n        );\n\n        return requestIdToRandomNumber[addressToRequestId[player]];\n    }\n}\n",
  "sourcePath": "/home/levi/wheel_typescript/contracts/Wheel.sol",
  "compiler": {
    "name": "solc",
    "version": "0.8.7+commit.e28d00a7.Emscripten.clang"
  },
  "schemaVersion": "3.4.1",
  "updatedAt": "2021-11-01T02:58:47.953Z",
  "networkType": "ethereum",
  "devdoc": {
    "kind": "dev",
    "methods": {
      "owner()": {
        "details": "Returns the address of the current owner."
      },
      "renounceOwnership()": {
        "details": "Leaves the contract without owner. It will not be possible to call `onlyOwner` functions anymore. Can only be called by the current owner. NOTE: Renouncing ownership will leave the contract without an owner, thereby removing any functionality that is only available to the owner."
      },
      "transferOwnership(address)": {
        "details": "Transfers ownership of the contract to a new account (`newOwner`). Can only be called by the current owner."
      }
    },
    "version": 1
  },
  "userdoc": {
    "kind": "user",
    "methods": {},
    "version": 1
  }
}